{
  "abi": [
    {
      "inputs": [
        {
          "internalType": "contract IERC721",
          "name": "_gbc",
          "type": "address"
        },
        {
          "internalType": "address",
          "name": "_owner",
          "type": "address"
        },
        {
          "internalType": "contract Authority",
          "name": "_authority",
          "type": "address"
        }
      ],
      "stateMutability": "nonpayable",
      "type": "constructor"
    },
    {
      "inputs": [],
      "name": "InvalidUsername",
      "type": "error"
    },
    {
      "inputs": [],
      "name": "NotOwner",
      "type": "error"
    },
    {
      "anonymous": false,
      "inputs": [
        {
          "indexed": true,
          "internalType": "address",
          "name": "user",
          "type": "address"
        },
        {
          "indexed": true,
          "internalType": "contract Authority",
          "name": "newAuthority",
          "type": "address"
        }
      ],
      "name": "AuthorityUpdated",
      "type": "event"
    },
    {
      "anonymous": false,
      "inputs": [
        {
          "indexed": true,
          "internalType": "address",
          "name": "user",
          "type": "address"
        },
        {
          "indexed": true,
          "internalType": "address",
          "name": "newOwner",
          "type": "address"
        }
      ],
      "name": "OwnershipTransferred",
      "type": "event"
    },
    {
      "anonymous": false,
      "inputs": [
        {
          "indexed": true,
          "internalType": "address",
          "name": "assigner",
          "type": "address"
        },
        {
          "indexed": false,
          "internalType": "uint256",
          "name": "tokenId",
          "type": "uint256"
        }
      ],
      "name": "SetMain",
      "type": "event"
    },
    {
      "anonymous": false,
      "inputs": [
        {
          "indexed": true,
          "internalType": "address",
          "name": "assigner",
          "type": "address"
        },
        {
          "indexed": false,
          "internalType": "string",
          "name": "username",
          "type": "string"
        }
      ],
      "name": "SetUsername",
      "type": "event"
    },
    {
      "inputs": [],
      "name": "authority",
      "outputs": [
        {
          "internalType": "contract Authority",
          "name": "",
          "type": "address"
        }
      ],
      "stateMutability": "view",
      "type": "function"
    },
    {
      "inputs": [
        {
          "internalType": "uint256",
          "name": "tokenId",
          "type": "uint256"
        }
      ],
      "name": "chooseMain",
      "outputs": [],
      "stateMutability": "nonpayable",
      "type": "function"
    },
    {
      "inputs": [
        {
          "internalType": "uint256",
          "name": "tokenId",
          "type": "uint256"
        },
        {
          "internalType": "string",
          "name": "newUsername",
          "type": "string"
        }
      ],
      "name": "chooseMainAndUsername",
      "outputs": [],
      "stateMutability": "nonpayable",
      "type": "function"
    },
    {
      "inputs": [
        {
          "internalType": "string",
          "name": "newUsername",
          "type": "string"
        }
      ],
      "name": "chooseUsername",
      "outputs": [],
      "stateMutability": "nonpayable",
      "type": "function"
    },
    {
      "inputs": [
        {
          "internalType": "address",
          "name": "account",
          "type": "address"
        }
      ],
      "name": "getDataOf",
      "outputs": [
        {
          "internalType": "uint256",
          "name": "tokenId",
          "type": "uint256"
        },
        {
          "internalType": "string",
          "name": "username",
          "type": "string"
        }
      ],
      "stateMutability": "view",
      "type": "function"
    },
    {
      "inputs": [
        {
          "internalType": "address",
          "name": "",
          "type": "address"
        }
      ],
      "name": "isHandler",
      "outputs": [
        {
          "internalType": "bool",
          "name": "",
          "type": "bool"
        }
      ],
      "stateMutability": "view",
      "type": "function"
    },
    {
      "inputs": [
        {
          "internalType": "string",
          "name": "",
          "type": "string"
        }
      ],
      "name": "isUsernameUsed",
      "outputs": [
        {
          "internalType": "bool",
          "name": "",
          "type": "bool"
        }
      ],
      "stateMutability": "view",
      "type": "function"
    },
    {
      "inputs": [
        {
          "internalType": "address",
          "name": "",
          "type": "address"
        }
      ],
      "name": "mainOf",
      "outputs": [
        {
          "internalType": "uint256",
          "name": "",
          "type": "uint256"
        }
      ],
      "stateMutability": "view",
      "type": "function"
    },
    {
      "inputs": [],
      "name": "owner",
      "outputs": [
        {
          "internalType": "address",
          "name": "",
          "type": "address"
        }
      ],
      "stateMutability": "view",
      "type": "function"
    },
    {
      "inputs": [
        {
          "internalType": "contract Authority",
          "name": "newAuthority",
          "type": "address"
        }
      ],
      "name": "setAuthority",
      "outputs": [],
      "stateMutability": "nonpayable",
      "type": "function"
    },
    {
      "inputs": [
        {
          "internalType": "address",
          "name": "handler",
          "type": "address"
        },
        {
          "internalType": "bool",
          "name": "_isHandler",
          "type": "bool"
        }
      ],
      "name": "setHandler",
      "outputs": [],
      "stateMutability": "nonpayable",
      "type": "function"
    },
    {
      "inputs": [
        {
          "internalType": "address",
          "name": "newOwner",
          "type": "address"
        }
      ],
      "name": "transferOwnership",
      "outputs": [],
      "stateMutability": "nonpayable",
      "type": "function"
    },
    {
      "inputs": [
        {
          "internalType": "address",
          "name": "",
          "type": "address"
        }
      ],
      "name": "usernameOf",
      "outputs": [
        {
          "internalType": "string",
          "name": "",
          "type": "string"
        }
      ],
      "stateMutability": "view",
      "type": "function"
    }
  ],
  "bytecode": {
    "object": "0x60a060405234801561001057600080fd5b5060405161102638038061102683398101604081905261002f916100ed565b600080546001600160a01b03199081166001600160a01b0385811691821784556001805490931690851617909155604051849284929133917f8be0079c531659141344cd1fd0a4f28419497f9722a3daafe3b4186f6b6457e091a36040516001600160a01b0382169033907fa3396fd7f6e0a21b50e5089d2da70d5ac0a3bbbd1f617a93f134b7638998019890600090a3505050506001600160a01b031660805261013a565b6001600160a01b03811681146100ea57600080fd5b50565b60008060006060848603121561010257600080fd5b835161010d816100d5565b602085015190935061011e816100d5565b604085015190925061012f816100d5565b809150509250925092565b608051610eca61015c6000396000818161032501526106e60152610eca6000f3fe608060405234801561001057600080fd5b50600436106100cf5760003560e01c80637a9e5e4b1161008c5780639cb7de4b116100665780639cb7de4b146101f4578063bf7e214f14610207578063e8f7b6381461021a578063f2fde38b1461024857600080fd5b80637a9e5e4b146101955780637e36245e146101a85780638da5cb5b146101c957600080fd5b80631e73daa8146100d45780632561aa39146100e957806337320618146100fc57806346ea87af1461013f578063479a882e146101625780637898acef14610175575b600080fd5b6100e76100e2366004610ac2565b61025b565b005b6100e76100f7366004610b09565b610305565b61012a61010a366004610b22565b805160208183018101805160048252928201919093012091525460ff1681565b60405190151581526020015b60405180910390f35b61012a61014d366004610b6f565b60056020526000908152604090205460ff1681565b6100e7610170366004610b22565b610406565b610188610183366004610b6f565b61052c565b6040516101369190610be3565b6100e76101a3366004610b6f565b6105c6565b6101bb6101b6366004610b6f565b6106b0565b604051610136929190610bf6565b6000546101dc906001600160a01b031681565b6040516001600160a01b039091168152602001610136565b6100e7610202366004610c1d565b610858565b6001546101dc906001600160a01b031681565b61023a610228366004610b6f565b60026020526000908152604090205481565b604051908152602001610136565b6100e7610256366004610b6f565b6108d9565b604051632561aa3960e01b8152600481018390523090632561aa3990602401600060405180830381600087803b15801561029457600080fd5b505af11580156102a8573d6000803e3d6000fd5b50506040516323cd441760e11b815230925063479a882e91506102cf908490600401610be3565b600060405180830381600087803b1580156102e957600080fd5b505af11580156102fd573d6000803e3d6000fd5b505050505050565b6040516331a9108f60e11b81526004810182905233906001600160a01b037f00000000000000000000000000000000000000000000000000000000000000001690636352211e90602401602060405180830381865afa15801561036c573d6000803e3d6000fd5b505050506040513d601f19601f820116820180604052508101906103909190610c56565b6001600160a01b0316146103b7576040516330cd747160e01b815260040160405180910390fd5b3360008181526002602052604090819020839055517f4f19a34f9645d0bf8e1d70001c7ed9c2cc92894428f53ffadfc9f31ab9c07354906103fb9084815260200190565b60405180910390a250565b805160018110806104175750600881115b80610441575060048260405161042d9190610c73565b9081526040519081900360200190205460ff165b1561045f57604051630a1de65160e31b815260040160405180910390fd5b33600090815260036020526040808220905160049161047d91610cc9565b908152604051908190036020018120805492151560ff19909316929092179091556001906004906104af908590610c73565b9081526040805160209281900383019020805460ff1916931515939093179092553360009081526003909152206104e68382610d8a565b50336001600160a01b03167fcfa484be7b1d89ac1b8203c2067a8efdffde3d5e5ec8a446cf9c54cb01c7e20b836040516105209190610be3565b60405180910390a25050565b6003602052600090815260409020805461054590610c8f565b80601f016020809104026020016040519081016040528092919081815260200182805461057190610c8f565b80156105be5780601f10610593576101008083540402835291602001916105be565b820191906000526020600020905b8154815290600101906020018083116105a157829003601f168201915b505050505081565b6000546001600160a01b031633148061065b575060015460405163b700961360e01b81526001600160a01b039091169063b70096139061061a90339030906001600160e01b03196000351690600401610e4a565b602060405180830381865afa158015610637573d6000803e3d6000fd5b505050506040513d601f19601f8201168201806040525081019061065b9190610e77565b61066457600080fd5b600180546001600160a01b0319166001600160a01b03831690811790915560405133907fa3396fd7f6e0a21b50e5089d2da70d5ac0a3bbbd1f617a93f134b7638998019890600090a350565b6001600160a01b038181166000908152600260205260408082205490516331a9108f60e11b8152600481018290529092606092917f000000000000000000000000000000000000000000000000000000000000000090911690636352211e90602401602060405180830381865afa15801561072f573d6000803e3d6000fd5b505050506040513d601f19601f820116820180604052508101906107539190610c56565b6001600160a01b03811660009081526005602052604090205490915060ff161580156107915750836001600160a01b0316816001600160a01b031614155b156107af576040516330cd747160e01b815260040160405180910390fd5b6001600160a01b038416600090815260036020526040902080546107d290610c8f565b80601f01602080910402602001604051908101604052809291908181526020018280546107fe90610c8f565b801561084b5780601f106108205761010080835404028352916020019161084b565b820191906000526020600020905b81548152906001019060200180831161082e57829003601f168201915b5050505050915050915091565b61086e336000356001600160e01b031916610975565b6108ae5760405162461bcd60e51b815260206004820152600c60248201526b15539055551213d49256915160a21b60448201526064015b60405180910390fd5b6001600160a01b03919091166000908152600560205260409020805460ff1916911515919091179055565b6108ef336000356001600160e01b031916610975565b61092a5760405162461bcd60e51b815260206004820152600c60248201526b15539055551213d49256915160a21b60448201526064016108a5565b600080546001600160a01b0319166001600160a01b0383169081178255604051909133917f8be0079c531659141344cd1fd0a4f28419497f9722a3daafe3b4186f6b6457e09190a350565b6001546000906001600160a01b031680158015906109ff575060405163b700961360e01b81526001600160a01b0382169063b7009613906109be90879030908890600401610e4a565b602060405180830381865afa1580156109db573d6000803e3d6000fd5b505050506040513d601f19601f820116820180604052508101906109ff9190610e77565b80610a1757506000546001600160a01b038581169116145b949350505050565b634e487b7160e01b600052604160045260246000fd5b600082601f830112610a4657600080fd5b813567ffffffffffffffff80821115610a6157610a61610a1f565b604051601f8301601f19908116603f01168101908282118183101715610a8957610a89610a1f565b81604052838152866020858801011115610aa257600080fd5b836020870160208301376000602085830101528094505050505092915050565b60008060408385031215610ad557600080fd5b82359150602083013567ffffffffffffffff811115610af357600080fd5b610aff85828601610a35565b9150509250929050565b600060208284031215610b1b57600080fd5b5035919050565b600060208284031215610b3457600080fd5b813567ffffffffffffffff811115610b4b57600080fd5b610a1784828501610a35565b6001600160a01b0381168114610b6c57600080fd5b50565b600060208284031215610b8157600080fd5b8135610b8c81610b57565b9392505050565b60005b83811015610bae578181015183820152602001610b96565b50506000910152565b60008151808452610bcf816020860160208601610b93565b601f01601f19169290920160200192915050565b602081526000610b8c6020830184610bb7565b828152604060208201526000610a176040830184610bb7565b8015158114610b6c57600080fd5b60008060408385031215610c3057600080fd5b8235610c3b81610b57565b91506020830135610c4b81610c0f565b809150509250929050565b600060208284031215610c6857600080fd5b8151610b8c81610b57565b60008251610c85818460208701610b93565b9190910192915050565b600181811c90821680610ca357607f821691505b602082108103610cc357634e487b7160e01b600052602260045260246000fd5b50919050565b6000808354610cd781610c8f565b60018281168015610cef5760018114610d0457610d33565b60ff1984168752821515830287019450610d33565b8760005260208060002060005b85811015610d2a5781548a820152908401908201610d11565b50505082870194505b50929695505050505050565b601f821115610d8557600081815260208120601f850160051c81016020861015610d665750805b601f850160051c820191505b818110156102fd57828155600101610d72565b505050565b815167ffffffffffffffff811115610da457610da4610a1f565b610db881610db28454610c8f565b84610d3f565b602080601f831160018114610ded5760008415610dd55750858301515b600019600386901b1c1916600185901b1785556102fd565b600085815260208120601f198616915b82811015610e1c57888601518255948401946001909101908401610dfd565b5085821015610e3a5787850151600019600388901b60f8161c191681555b5050505050600190811b01905550565b6001600160a01b0393841681529190921660208201526001600160e01b0319909116604082015260600190565b600060208284031215610e8957600080fd5b8151610b8c81610c0f56fea2646970667358221220fa1afc1c4efe3c10913199c3d19d0ea63eba3ec925ca40746835c2efe0413c0764736f6c63430008110033",
    "linkReferences": {}
  },
  "methodIdentifiers": {
    "authority()": "bf7e214f",
    "chooseMain(uint256)": "2561aa39",
    "chooseMainAndUsername(uint256,string)": "1e73daa8",
    "chooseUsername(string)": "479a882e",
    "getDataOf(address)": "7e36245e",
    "isHandler(address)": "46ea87af",
    "isUsernameUsed(string)": "37320618",
    "mainOf(address)": "e8f7b638",
    "owner()": "8da5cb5b",
    "setAuthority(address)": "7a9e5e4b",
    "setHandler(address,bool)": "9cb7de4b",
    "transferOwnership(address)": "f2fde38b",
    "usernameOf(address)": "7898acef"
  },
  "id": 7
}