{
  "abi": [
    {
      "inputs": [],
      "stateMutability": "nonpayable",
      "type": "constructor"
    },
    {
      "anonymous": false,
      "inputs": [
        {
          "indexed": true,
          "internalType": "address",
          "name": "owner",
          "type": "address"
        },
        {
          "indexed": true,
          "internalType": "address",
          "name": "approved",
          "type": "address"
        },
        {
          "indexed": true,
          "internalType": "uint256",
          "name": "tokenId",
          "type": "uint256"
        }
      ],
      "name": "Approval",
      "type": "event"
    },
    {
      "anonymous": false,
      "inputs": [
        {
          "indexed": true,
          "internalType": "address",
          "name": "owner",
          "type": "address"
        },
        {
          "indexed": true,
          "internalType": "address",
          "name": "operator",
          "type": "address"
        },
        {
          "indexed": false,
          "internalType": "bool",
          "name": "approved",
          "type": "bool"
        }
      ],
      "name": "ApprovalForAll",
      "type": "event"
    },
    {
      "anonymous": false,
      "inputs": [
        {
          "indexed": true,
          "internalType": "address",
          "name": "delegator",
          "type": "address"
        },
        {
          "indexed": true,
          "internalType": "address",
          "name": "fromDelegate",
          "type": "address"
        },
        {
          "indexed": true,
          "internalType": "address",
          "name": "toDelegate",
          "type": "address"
        }
      ],
      "name": "DelegateChanged",
      "type": "event"
    },
    {
      "anonymous": false,
      "inputs": [
        {
          "indexed": true,
          "internalType": "address",
          "name": "delegate",
          "type": "address"
        },
        {
          "indexed": false,
          "internalType": "uint256",
          "name": "previousBalance",
          "type": "uint256"
        },
        {
          "indexed": false,
          "internalType": "uint256",
          "name": "newBalance",
          "type": "uint256"
        }
      ],
      "name": "DelegateVotesChanged",
      "type": "event"
    },
    {
      "anonymous": false,
      "inputs": [
        {
          "indexed": true,
          "internalType": "address",
          "name": "previousOwner",
          "type": "address"
        },
        {
          "indexed": true,
          "internalType": "address",
          "name": "newOwner",
          "type": "address"
        }
      ],
      "name": "OwnershipTransferred",
      "type": "event"
    },
    {
      "anonymous": false,
      "inputs": [
        {
          "indexed": true,
          "internalType": "address",
          "name": "from",
          "type": "address"
        },
        {
          "indexed": true,
          "internalType": "address",
          "name": "to",
          "type": "address"
        },
        {
          "indexed": true,
          "internalType": "uint256",
          "name": "tokenId",
          "type": "uint256"
        }
      ],
      "name": "Transfer",
      "type": "event"
    },
    {
      "inputs": [],
      "name": "DOMAIN_SEPARATOR",
      "outputs": [
        {
          "internalType": "bytes32",
          "name": "",
          "type": "bytes32"
        }
      ],
      "stateMutability": "view",
      "type": "function"
    },
    {
      "inputs": [
        {
          "internalType": "address",
          "name": "to",
          "type": "address"
        },
        {
          "internalType": "uint256",
          "name": "tokenId",
          "type": "uint256"
        }
      ],
      "name": "approve",
      "outputs": [],
      "stateMutability": "nonpayable",
      "type": "function"
    },
    {
      "inputs": [
        {
          "internalType": "address",
          "name": "owner",
          "type": "address"
        }
      ],
      "name": "balanceOf",
      "outputs": [
        {
          "internalType": "uint256",
          "name": "",
          "type": "uint256"
        }
      ],
      "stateMutability": "view",
      "type": "function"
    },
    {
      "inputs": [
        {
          "internalType": "address",
          "name": "delegatee",
          "type": "address"
        }
      ],
      "name": "delegate",
      "outputs": [],
      "stateMutability": "nonpayable",
      "type": "function"
    },
    {
      "inputs": [
        {
          "internalType": "address",
          "name": "delegatee",
          "type": "address"
        },
        {
          "internalType": "uint256",
          "name": "nonce",
          "type": "uint256"
        },
        {
          "internalType": "uint256",
          "name": "expiry",
          "type": "uint256"
        },
        {
          "internalType": "uint8",
          "name": "v",
          "type": "uint8"
        },
        {
          "internalType": "bytes32",
          "name": "r",
          "type": "bytes32"
        },
        {
          "internalType": "bytes32",
          "name": "s",
          "type": "bytes32"
        }
      ],
      "name": "delegateBySig",
      "outputs": [],
      "stateMutability": "nonpayable",
      "type": "function"
    },
    {
      "inputs": [
        {
          "internalType": "address",
          "name": "account",
          "type": "address"
        }
      ],
      "name": "delegates",
      "outputs": [
        {
          "internalType": "address",
          "name": "",
          "type": "address"
        }
      ],
      "stateMutability": "view",
      "type": "function"
    },
    {
      "inputs": [],
      "name": "erc721Token",
      "outputs": [
        {
          "internalType": "contract ERC721",
          "name": "",
          "type": "address"
        }
      ],
      "stateMutability": "view",
      "type": "function"
    },
    {
      "inputs": [
        {
          "internalType": "uint256",
          "name": "tokenId",
          "type": "uint256"
        }
      ],
      "name": "getApproved",
      "outputs": [
        {
          "internalType": "address",
          "name": "",
          "type": "address"
        }
      ],
      "stateMutability": "view",
      "type": "function"
    },
    {
      "inputs": [
        {
          "internalType": "uint256",
          "name": "blockNumber",
          "type": "uint256"
        }
      ],
      "name": "getPastTotalSupply",
      "outputs": [
        {
          "internalType": "uint256",
          "name": "",
          "type": "uint256"
        }
      ],
      "stateMutability": "view",
      "type": "function"
    },
    {
      "inputs": [
        {
          "internalType": "address",
          "name": "account",
          "type": "address"
        },
        {
          "internalType": "uint256",
          "name": "blockNumber",
          "type": "uint256"
        }
      ],
      "name": "getPastVotes",
      "outputs": [
        {
          "internalType": "uint256",
          "name": "",
          "type": "uint256"
        }
      ],
      "stateMutability": "view",
      "type": "function"
    },
    {
      "inputs": [
        {
          "internalType": "address",
          "name": "account",
          "type": "address"
        }
      ],
      "name": "getVotes",
      "outputs": [
        {
          "internalType": "uint256",
          "name": "",
          "type": "uint256"
        }
      ],
      "stateMutability": "view",
      "type": "function"
    },
    {
      "inputs": [
        {
          "internalType": "address",
          "name": "owner",
          "type": "address"
        },
        {
          "internalType": "address",
          "name": "operator",
          "type": "address"
        }
      ],
      "name": "isApprovedForAll",
      "outputs": [
        {
          "internalType": "bool",
          "name": "",
          "type": "bool"
        }
      ],
      "stateMutability": "view",
      "type": "function"
    },
    {
      "inputs": [],
      "name": "name",
      "outputs": [
        {
          "internalType": "string",
          "name": "",
          "type": "string"
        }
      ],
      "stateMutability": "view",
      "type": "function"
    },
    {
      "inputs": [
        {
          "internalType": "address",
          "name": "owner",
          "type": "address"
        }
      ],
      "name": "nonces",
      "outputs": [
        {
          "internalType": "uint256",
          "name": "",
          "type": "uint256"
        }
      ],
      "stateMutability": "view",
      "type": "function"
    },
    {
      "inputs": [],
      "name": "owner",
      "outputs": [
        {
          "internalType": "address",
          "name": "",
          "type": "address"
        }
      ],
      "stateMutability": "view",
      "type": "function"
    },
    {
      "inputs": [
        {
          "internalType": "uint256",
          "name": "tokenId",
          "type": "uint256"
        }
      ],
      "name": "ownerOf",
      "outputs": [
        {
          "internalType": "address",
          "name": "",
          "type": "address"
        }
      ],
      "stateMutability": "view",
      "type": "function"
    },
    {
      "inputs": [],
      "name": "renounceOwnership",
      "outputs": [],
      "stateMutability": "nonpayable",
      "type": "function"
    },
    {
      "inputs": [
        {
          "internalType": "address",
          "name": "to",
          "type": "address"
        },
        {
          "internalType": "uint256",
          "name": "tokenId",
          "type": "uint256"
        }
      ],
      "name": "safeMint",
      "outputs": [],
      "stateMutability": "nonpayable",
      "type": "function"
    },
    {
      "inputs": [
        {
          "internalType": "address",
          "name": "from",
          "type": "address"
        },
        {
          "internalType": "address",
          "name": "to",
          "type": "address"
        },
        {
          "internalType": "uint256",
          "name": "tokenId",
          "type": "uint256"
        }
      ],
      "name": "safeTransferFrom",
      "outputs": [],
      "stateMutability": "nonpayable",
      "type": "function"
    },
    {
      "inputs": [
        {
          "internalType": "address",
          "name": "from",
          "type": "address"
        },
        {
          "internalType": "address",
          "name": "to",
          "type": "address"
        },
        {
          "internalType": "uint256",
          "name": "tokenId",
          "type": "uint256"
        },
        {
          "internalType": "bytes",
          "name": "data",
          "type": "bytes"
        }
      ],
      "name": "safeTransferFrom",
      "outputs": [],
      "stateMutability": "nonpayable",
      "type": "function"
    },
    {
      "inputs": [
        {
          "internalType": "address",
          "name": "operator",
          "type": "address"
        },
        {
          "internalType": "bool",
          "name": "approved",
          "type": "bool"
        }
      ],
      "name": "setApprovalForAll",
      "outputs": [],
      "stateMutability": "nonpayable",
      "type": "function"
    },
    {
      "inputs": [
        {
          "internalType": "bytes4",
          "name": "interfaceId",
          "type": "bytes4"
        }
      ],
      "name": "supportsInterface",
      "outputs": [
        {
          "internalType": "bool",
          "name": "",
          "type": "bool"
        }
      ],
      "stateMutability": "view",
      "type": "function"
    },
    {
      "inputs": [],
      "name": "symbol",
      "outputs": [
        {
          "internalType": "string",
          "name": "",
          "type": "string"
        }
      ],
      "stateMutability": "view",
      "type": "function"
    },
    {
      "inputs": [
        {
          "internalType": "uint256",
          "name": "tokenId",
          "type": "uint256"
        }
      ],
      "name": "tokenURI",
      "outputs": [
        {
          "internalType": "string",
          "name": "",
          "type": "string"
        }
      ],
      "stateMutability": "view",
      "type": "function"
    },
    {
      "inputs": [
        {
          "internalType": "address",
          "name": "from",
          "type": "address"
        },
        {
          "internalType": "address",
          "name": "to",
          "type": "address"
        },
        {
          "internalType": "uint256",
          "name": "tokenId",
          "type": "uint256"
        }
      ],
      "name": "transferFrom",
      "outputs": [],
      "stateMutability": "nonpayable",
      "type": "function"
    },
    {
      "inputs": [
        {
          "internalType": "address",
          "name": "newOwner",
          "type": "address"
        }
      ],
      "name": "transferOwnership",
      "outputs": [],
      "stateMutability": "nonpayable",
      "type": "function"
    },
    {
      "inputs": [
        {
          "internalType": "uint256",
          "name": "tokenId",
          "type": "uint256"
        }
      ],
      "name": "unwrapToken",
      "outputs": [],
      "stateMutability": "nonpayable",
      "type": "function"
    },
    {
      "inputs": [
        {
          "internalType": "uint256",
          "name": "tokenId",
          "type": "uint256"
        }
      ],
      "name": "wrapToken",
      "outputs": [],
      "stateMutability": "nonpayable",
      "type": "function"
    }
  ],
  "bytecode": {
    "object": "0x6101406040523480156200001257600080fd5b5060408051808201825260078082526626bcaa37b5b2b760c91b60208084018290528451808601865260018152603160f81b818301528551808701875293845283820192909252845180860190955260038552624d544b60e81b90850152919260006200008083826200023c565b5060016200008f82826200023c565b505050620000ac620000a66200014160201b60201c565b62000145565b815160209283012081519183019190912060e08290526101008190524660a0818152604080517f8b73c3c69bb8fe3d512ecc4cf759cc79239f7b179b0ffacaa9a75d522b39400f818801819052818301969096526060810194909452608080850193909352308483018190528151808603909301835260c0948501909152815191909501209052919091526101205262000308565b3390565b600680546001600160a01b038381166001600160a01b0319831681179093556040519116919082907f8be0079c531659141344cd1fd0a4f28419497f9722a3daafe3b4186f6b6457e090600090a35050565b634e487b7160e01b600052604160045260246000fd5b600181811c90821680620001c257607f821691505b602082108103620001e357634e487b7160e01b600052602260045260246000fd5b50919050565b601f8211156200023757600081815260208120601f850160051c81016020861015620002125750805b601f850160051c820191505b8181101562000233578281556001016200021e565b5050505b505050565b81516001600160401b0381111562000258576200025862000197565b6200027081620002698454620001ad565b84620001e9565b602080601f831160018114620002a857600084156200028f5750858301515b600019600386901b1c1916600185901b17855562000233565b600085815260208120601f198616915b82811015620002d957888601518255948401946001909101908401620002b8565b5085821015620002f85787850151600019600388901b60f8161c191681555b5050505050600190811b01905550565b60805160a05160c05160e0516101005161012051612897620003586000396000611087015260006110d6015260006110b10152600061100a015260006110340152600061105e01526128976000f3fe608060405234801561001057600080fd5b50600436106101c45760003560e01c8063715018a6116100f9578063a144819411610097578063c3cda52011610071578063c3cda520146103c6578063c87b56dd146103d9578063e985e9c5146103ec578063f2fde38b1461042857600080fd5b8063a14481941461038d578063a22cb465146103a0578063b88d4fde146103b357600080fd5b80638e539e8c116100d35780638e539e8c1461034c578063940997f71461035f57806395d89b41146103725780639ab24eb01461037a57600080fd5b8063715018a6146103205780637ecebe00146103285780638da5cb5b1461033b57600080fd5b806342842e0e116101665780635f2d6bcd116101405780635f2d6bcd146102d45780636352211e146102e75780636371d6bb146102fa57806370a082311461030d57600080fd5b806342842e0e14610282578063587cde1e146102955780635c19a95c146102c157600080fd5b8063095ea7b3116101a2578063095ea7b31461023157806323b872dd146102465780633644e515146102595780633a46b1a81461026f57600080fd5b806301ffc9a7146101c957806306fdde03146101f1578063081812fc14610206575b600080fd5b6101dc6101d736600461231d565b61043b565b60405190151581526020015b60405180910390f35b6101f961048d565b6040516101e8919061238a565b61021961021436600461239d565b61051f565b6040516001600160a01b0390911681526020016101e8565b61024461023f3660046123cb565b610546565b005b6102446102543660046123f7565b610660565b610261610691565b6040519081526020016101e8565b61026161027d3660046123cb565b6106a0565b6102446102903660046123f7565b6106c9565b6102196102a3366004612438565b6001600160a01b039081166000908152600760205260409020541690565b6102446102cf366004612438565b6106e4565b600b54610219906001600160a01b031681565b6102196102f536600461239d565b6106f3565b61024461030836600461239d565b610753565b61026161031b366004612438565b61089b565b610244610921565b610261610336366004612438565b610935565b6006546001600160a01b0316610219565b61026161035a36600461239d565b610953565b61024461036d36600461239d565b6109af565b6101f9610a9b565b610261610388366004612438565b610aaa565b61024461039b3660046123cb565b610ada565b6102446103ae366004612455565b610aec565b6102446103c13660046124a9565b610af7565b6102446103d4366004612589565b610b2f565b6101f96103e736600461239d565b610c5c565b6101dc6103fa3660046125eb565b6001600160a01b03918216600090815260056020908152604080832093909416825291909152205460ff1690565b610244610436366004612438565b610ccf565b60006001600160e01b031982166380ac58cd60e01b148061046c57506001600160e01b03198216635b5e139f60e01b145b8061048757506301ffc9a760e01b6001600160e01b03198316145b92915050565b60606000805461049c90612619565b80601f01602080910402602001604051908101604052809291908181526020018280546104c890612619565b80156105155780601f106104ea57610100808354040283529160200191610515565b820191906000526020600020905b8154815290600101906020018083116104f857829003601f168201915b5050505050905090565b600061052a82610d45565b506000908152600460205260409020546001600160a01b031690565b6000610551826106f3565b9050806001600160a01b0316836001600160a01b0316036105c35760405162461bcd60e51b815260206004820152602160248201527f4552433732313a20617070726f76616c20746f2063757272656e74206f776e656044820152603960f91b60648201526084015b60405180910390fd5b336001600160a01b03821614806105df57506105df81336103fa565b6106515760405162461bcd60e51b815260206004820152603d60248201527f4552433732313a20617070726f76652063616c6c6572206973206e6f7420746f60448201527f6b656e206f776e6572206f7220617070726f76656420666f7220616c6c00000060648201526084016105ba565b61065b8383610da4565b505050565b61066a3382610e12565b6106865760405162461bcd60e51b81526004016105ba9061264d565b61065b838383610e91565b600061069b610ffd565b905090565b6001600160a01b03821660009081526008602052604081206106c29083611124565b9392505050565b61065b83838360405180602001604052806000815250610af7565b336106ef8183611240565b5050565b6000818152600260205260408120546001600160a01b0316806104875760405162461bcd60e51b8152602060048201526018602482015277115490cdcc8c4e881a5b9d985b1a59081d1bdad95b88125160421b60448201526064016105ba565b600b546040516331a9108f60e11b81526004810183905233916001600160a01b031690636352211e90602401602060405180830381865afa15801561079c573d6000803e3d6000fd5b505050506040513d601f19601f820116820180604052508101906107c0919061269a565b6001600160a01b0316146108245760405162461bcd60e51b815260206004820152602560248201527f43616c6c6572206973206e6f7420746865206f776e6572206f6620746865207460448201526437b5b2b71760d91b60648201526084016105ba565b600b546040516323b872dd60e01b8152336004820152306024820152604481018390526001600160a01b03909116906323b872dd90606401600060405180830381600087803b15801561087657600080fd5b505af115801561088a573d6000803e3d6000fd5b5050505061089833826112b2565b50565b60006001600160a01b0382166109055760405162461bcd60e51b815260206004820152602960248201527f4552433732313a2061646472657373207a65726f206973206e6f7420612076616044820152683634b21037bbb732b960b91b60648201526084016105ba565b506001600160a01b031660009081526003602052604090205490565b610929611447565b61093360006114a1565b565b6001600160a01b0381166000908152600a6020526040812054610487565b60004382106109a45760405162461bcd60e51b815260206004820152601a60248201527f566f7465733a20626c6f636b206e6f7420796574206d696e656400000000000060448201526064016105ba565b610487600983611124565b336109b9826106f3565b6001600160a01b031614610a255760405162461bcd60e51b815260206004820152602d60248201527f43616c6c6572206973206e6f7420746865206f776e6572206f6620746865207760448201526c3930b83832b2103a37b5b2b71760991b60648201526084016105ba565b610a2e816114f3565b600b546040516323b872dd60e01b8152306004820152336024820152604481018390526001600160a01b03909116906323b872dd90606401600060405180830381600087803b158015610a8057600080fd5b505af1158015610a94573d6000803e3d6000fd5b5050505050565b60606001805461049c90612619565b6001600160a01b0381166000908152600860205260408120610acb90611592565b6001600160e01b031692915050565b610ae2611447565b6106ef82826115cc565b6106ef3383836115e6565b610b013383610e12565b610b1d5760405162461bcd60e51b81526004016105ba9061264d565b610b29848484846116b4565b50505050565b83421115610b7f5760405162461bcd60e51b815260206004820152601860248201527f566f7465733a207369676e61747572652065787069726564000000000000000060448201526064016105ba565b604080517fe48329057bfd03d55e49b547132e39cffd9c1820ad7b9d4c5307691425d15adf60208201526001600160a01b038816918101919091526060810186905260808101859052600090610bf990610bf19060a001604051602081830303815290604052805190602001206116e7565b858585611735565b9050610c048161175d565b8614610c495760405162461bcd60e51b8152602060048201526014602482015273566f7465733a20696e76616c6964206e6f6e636560601b60448201526064016105ba565b610c538188611240565b50505050505050565b6060610c6782610d45565b6000610c7e60408051602081019091526000815290565b90506000815111610c9e57604051806020016040528060008152506106c2565b80610ca884611785565b604051602001610cb99291906126b7565b6040516020818303038152906040529392505050565b610cd7611447565b6001600160a01b038116610d3c5760405162461bcd60e51b815260206004820152602660248201527f4f776e61626c653a206e6577206f776e657220697320746865207a65726f206160448201526564647265737360d01b60648201526084016105ba565b610898816114a1565b6000818152600260205260409020546001600160a01b03166108985760405162461bcd60e51b8152602060048201526018602482015277115490cdcc8c4e881a5b9d985b1a59081d1bdad95b88125160421b60448201526064016105ba565b600081815260046020526040902080546001600160a01b0319166001600160a01b0384169081179091558190610dd9826106f3565b6001600160a01b03167f8c5be1e5ebec7d5bd14f71427d1e84f3dd0314c0f7b2291e5b200ac8c7c3b92560405160405180910390a45050565b600080610e1e836106f3565b9050806001600160a01b0316846001600160a01b03161480610e6557506001600160a01b0380821660009081526005602090815260408083209388168352929052205460ff165b80610e895750836001600160a01b0316610e7e8461051f565b6001600160a01b0316145b949350505050565b826001600160a01b0316610ea4826106f3565b6001600160a01b031614610eca5760405162461bcd60e51b81526004016105ba906126e6565b6001600160a01b038216610f2c5760405162461bcd60e51b8152602060048201526024808201527f4552433732313a207472616e7366657220746f20746865207a65726f206164646044820152637265737360e01b60648201526084016105ba565b826001600160a01b0316610f3f826106f3565b6001600160a01b031614610f655760405162461bcd60e51b81526004016105ba906126e6565b600081815260046020908152604080832080546001600160a01b03199081169091556001600160a01b0387811680865260038552838620805460001901905590871680865283862080546001019055868652600290945282852080549092168417909155905184937fddf252ad1be2c89b69c2b068fc378daa952ba7f163c4a11628f55a4df523b3ef91a461065b8383836001611818565b6000306001600160a01b037f00000000000000000000000000000000000000000000000000000000000000001614801561105657507f000000000000000000000000000000000000000000000000000000000000000046145b1561108057507f000000000000000000000000000000000000000000000000000000000000000090565b50604080517f00000000000000000000000000000000000000000000000000000000000000006020808301919091527f0000000000000000000000000000000000000000000000000000000000000000828401527f000000000000000000000000000000000000000000000000000000000000000060608301524660808301523060a0808401919091528351808403909101815260c0909201909252805191012090565b60004382106111755760405162461bcd60e51b815260206004820181905260248201527f436865636b706f696e74733a20626c6f636b206e6f7420796574206d696e656460448201526064016105ba565b600061118083611824565b845490915060008160058111156111de57600061119c8461188d565b6111a69085612741565b60008981526020902090915081015463ffffffff90811690861610156111ce578091506111dc565b6111d9816001612754565b92505b505b60006111ec88868585611975565b905080156112285761121188611203600184612741565b600091825260209091200190565b5464010000000090046001600160e01b031661122b565b60005b6001600160e01b031698975050505050505050565b6001600160a01b0382811660008181526007602052604080822080548686166001600160a01b0319821681179092559151919094169392849290917f3134e8a2e6d97e929a7e54011ea5485d7d196dd5f0ba4d4ef95803e8e3fc257f9190a461065b81836112ad866119d3565b6119de565b6001600160a01b0382166113085760405162461bcd60e51b815260206004820181905260248201527f4552433732313a206d696e7420746f20746865207a65726f206164647265737360448201526064016105ba565b6000818152600260205260409020546001600160a01b03161561136d5760405162461bcd60e51b815260206004820152601c60248201527f4552433732313a20746f6b656e20616c7265616479206d696e7465640000000060448201526064016105ba565b6000818152600260205260409020546001600160a01b0316156113d25760405162461bcd60e51b815260206004820152601c60248201527f4552433732313a20746f6b656e20616c7265616479206d696e7465640000000060448201526064016105ba565b6001600160a01b038216600081815260036020908152604080832080546001019055848352600290915280822080546001600160a01b0319168417905551839291907fddf252ad1be2c89b69c2b068fc378daa952ba7f163c4a11628f55a4df523b3ef908290a46106ef600083836001611818565b6006546001600160a01b031633146109335760405162461bcd60e51b815260206004820181905260248201527f4f776e61626c653a2063616c6c6572206973206e6f7420746865206f776e657260448201526064016105ba565b600680546001600160a01b038381166001600160a01b0319831681179093556040519116919082907f8be0079c531659141344cd1fd0a4f28419497f9722a3daafe3b4186f6b6457e090600090a35050565b60006114fe826106f3565b9050611509826106f3565b600083815260046020908152604080832080546001600160a01b03199081169091556001600160a01b0385168085526003845282852080546000190190558785526002909352818420805490911690555192935084927fddf252ad1be2c89b69c2b068fc378daa952ba7f163c4a11628f55a4df523b3ef908390a46106ef816000846001611818565b805460009080156115c3576115ac83611203600184612741565b5464010000000090046001600160e01b03166106c2565b60009392505050565b6106ef828260405180602001604052806000815250611b1b565b816001600160a01b0316836001600160a01b0316036116475760405162461bcd60e51b815260206004820152601960248201527f4552433732313a20617070726f766520746f2063616c6c65720000000000000060448201526064016105ba565b6001600160a01b03838116600081815260056020908152604080832094871680845294825291829020805460ff191686151590811790915591519182527f17307eab39ab6107e8899845ad3d59bd9653f200f220920489ca2b5937696c31910160405180910390a3505050565b6116bf848484610e91565b6116cb84848484611b4e565b610b295760405162461bcd60e51b81526004016105ba90612767565b60006104876116f4610ffd565b8360405161190160f01b6020820152602281018390526042810182905260009060620160405160208183030381529060405280519060200120905092915050565b600080600061174687878787611c4c565b9150915061175381611d10565b5095945050505050565b6001600160a01b0381166000908152600a602052604090208054600181018255905b50919050565b6060600061179283611e5a565b600101905060008167ffffffffffffffff8111156117b2576117b2612493565b6040519080825280601f01601f1916602001820160405280156117dc576020820181803683370190505b5090508181016020015b600019016f181899199a1a9b1b9c1cb0b131b232b360811b600a86061a8153600a85049450846117e657509392505050565b610b2984848484611f32565b600063ffffffff8211156118895760405162461bcd60e51b815260206004820152602660248201527f53616665436173743a2076616c756520646f65736e27742066697420696e203360448201526532206269747360d01b60648201526084016105ba565b5090565b60008160000361189f57506000919050565b600060016118ac84611f42565b901c6001901b905060018184816118c5576118c56127b9565b048201901c905060018184816118dd576118dd6127b9565b048201901c905060018184816118f5576118f56127b9565b048201901c9050600181848161190d5761190d6127b9565b048201901c90506001818481611925576119256127b9565b048201901c9050600181848161193d5761193d6127b9565b048201901c90506001818481611955576119556127b9565b048201901c90506106c28182858161196f5761196f6127b9565b04611fd6565b60005b818310156119cb57600061198c8484611fec565b60008781526020902090915063ffffffff86169082015463ffffffff1611156119b7578092506119c5565b6119c2816001612754565b93505b50611978565b509392505050565b60006104878261089b565b816001600160a01b0316836001600160a01b031614158015611a005750600081115b1561065b576001600160a01b03831615611a8e576001600160a01b03831660009081526008602052604081208190611a3b9061200785612013565b91509150846001600160a01b03167fdec2bacdd2f05b59de34da9b523dff8be42e5e38e818c82fdb0bae774387a7248383604051611a83929190918252602082015260400190565b60405180910390a250505b6001600160a01b0382161561065b576001600160a01b03821660009081526008602052604081208190611ac49061204b85612013565b91509150836001600160a01b03167fdec2bacdd2f05b59de34da9b523dff8be42e5e38e818c82fdb0bae774387a7248383604051611b0c929190918252602082015260400190565b60405180910390a25050505050565b611b2583836112b2565b611b326000848484611b4e565b61065b5760405162461bcd60e51b81526004016105ba90612767565b60006001600160a01b0384163b15611c4457604051630a85bd0160e11b81526001600160a01b0385169063150b7a0290611b929033908990889088906004016127cf565b6020604051808303816000875af1925050508015611bcd575060408051601f3d908101601f19168201909252611bca9181019061280c565b60015b611c2a573d808015611bfb576040519150601f19603f3d011682016040523d82523d6000602084013e611c00565b606091505b508051600003611c225760405162461bcd60e51b81526004016105ba90612767565b805181602001fd5b6001600160e01b031916630a85bd0160e11b149050610e89565b506001610e89565b6000807f7fffffffffffffffffffffffffffffff5d576e7357a4501ddfe92f46681b20a0831115611c835750600090506003611d07565b6040805160008082526020820180845289905260ff881692820192909252606081018690526080810185905260019060a0016020604051602081039080840390855afa158015611cd7573d6000803e3d6000fd5b5050604051601f1901519150506001600160a01b038116611d0057600060019250925050611d07565b9150600090505b94509492505050565b6000816004811115611d2457611d24612829565b03611d2c5750565b6001816004811115611d4057611d40612829565b03611d8d5760405162461bcd60e51b815260206004820152601860248201527f45434453413a20696e76616c6964207369676e6174757265000000000000000060448201526064016105ba565b6002816004811115611da157611da1612829565b03611dee5760405162461bcd60e51b815260206004820152601f60248201527f45434453413a20696e76616c6964207369676e6174757265206c656e6774680060448201526064016105ba565b6003816004811115611e0257611e02612829565b036108985760405162461bcd60e51b815260206004820152602260248201527f45434453413a20696e76616c6964207369676e6174757265202773272076616c604482015261756560f01b60648201526084016105ba565b60008072184f03e93ff9f4daa797ed6e38ed64bf6a1f0160401b8310611e995772184f03e93ff9f4daa797ed6e38ed64bf6a1f0160401b830492506040015b6d04ee2d6d415b85acef81000000008310611ec5576d04ee2d6d415b85acef8100000000830492506020015b662386f26fc100008310611ee357662386f26fc10000830492506010015b6305f5e1008310611efb576305f5e100830492506008015b6127108310611f0f57612710830492506004015b60648310611f21576064830492506002015b600a83106104875760010192915050565b611f3d848483612057565b610b29565b600080608083901c15611f5757608092831c92015b604083901c15611f6957604092831c92015b602083901c15611f7b57602092831c92015b601083901c15611f8d57601092831c92015b600883901c15611f9f57600892831c92015b600483901c15611fb157600492831c92015b600283901c15611fc357600292831c92015b600183901c156104875760010192915050565b6000818310611fe557816106c2565b5090919050565b6000611ffb600284841861283f565b6106c290848416612754565b60006106c28284612741565b60008061203e8561203961202688611592565b6001600160e01b0316868863ffffffff16565b6120c7565b915091505b935093915050565b60006106c28284612754565b6001600160a01b03831661207657612073600961204b83612013565b50505b6001600160a01b03821661209557612092600961200783612013565b50505b6001600160a01b0383811660009081526007602052604080822054858416835291205461065b929182169116836119de565b6000806120e5846120d743611824565b6120e0866120fb565b612164565b6001600160e01b03918216969116945092505050565b60006001600160e01b038211156118895760405162461bcd60e51b815260206004820152602760248201527f53616665436173743a2076616c756520646f65736e27742066697420696e20326044820152663234206269747360c81b60648201526084016105ba565b8254600090819080156122ad57600061218287611203600185612741565b60408051808201909152905463ffffffff8082168084526401000000009092046001600160e01b0316602084015291925090871610156122045760405162461bcd60e51b815260206004820152601760248201527f436865636b706f696e743a20696e76616c6964206b657900000000000000000060448201526064016105ba565b805163ffffffff80881691160361224d578461222588611203600186612741565b80546001600160e01b03929092166401000000000263ffffffff90921691909117905561229d565b6040805180820190915263ffffffff80881682526001600160e01b0380881660208085019182528b54600181018d5560008d81529190912094519151909216640100000000029216919091179101555b6020015192508391506120439050565b50506040805180820190915263ffffffff80851682526001600160e01b0380851660208085019182528854600181018a5560008a815291822095519251909316640100000000029190931617920191909155905081612043565b6001600160e01b03198116811461089857600080fd5b60006020828403121561232f57600080fd5b81356106c281612307565b60005b8381101561235557818101518382015260200161233d565b50506000910152565b6000815180845261237681602086016020860161233a565b601f01601f19169290920160200192915050565b6020815260006106c2602083018461235e565b6000602082840312156123af57600080fd5b5035919050565b6001600160a01b038116811461089857600080fd5b600080604083850312156123de57600080fd5b82356123e9816123b6565b946020939093013593505050565b60008060006060848603121561240c57600080fd5b8335612417816123b6565b92506020840135612427816123b6565b929592945050506040919091013590565b60006020828403121561244a57600080fd5b81356106c2816123b6565b6000806040838503121561246857600080fd5b8235612473816123b6565b91506020830135801515811461248857600080fd5b809150509250929050565b634e487b7160e01b600052604160045260246000fd5b600080600080608085870312156124bf57600080fd5b84356124ca816123b6565b935060208501356124da816123b6565b925060408501359150606085013567ffffffffffffffff808211156124fe57600080fd5b818701915087601f83011261251257600080fd5b81358181111561252457612524612493565b604051601f8201601f19908116603f0116810190838211818310171561254c5761254c612493565b816040528281528a602084870101111561256557600080fd5b82602086016020830137600060208483010152809550505050505092959194509250565b60008060008060008060c087890312156125a257600080fd5b86356125ad816123b6565b95506020870135945060408701359350606087013560ff811681146125d157600080fd5b9598949750929560808101359460a0909101359350915050565b600080604083850312156125fe57600080fd5b8235612609816123b6565b91506020830135612488816123b6565b600181811c9082168061262d57607f821691505b60208210810361177f57634e487b7160e01b600052602260045260246000fd5b6020808252602d908201527f4552433732313a2063616c6c6572206973206e6f7420746f6b656e206f776e6560408201526c1c881bdc88185c1c1c9bdd9959609a1b606082015260800190565b6000602082840312156126ac57600080fd5b81516106c2816123b6565b600083516126c981846020880161233a565b8351908301906126dd81836020880161233a565b01949350505050565b60208082526025908201527f4552433732313a207472616e736665722066726f6d20696e636f72726563742060408201526437bbb732b960d91b606082015260800190565b634e487b7160e01b600052601160045260246000fd5b818103818111156104875761048761272b565b808201808211156104875761048761272b565b60208082526032908201527f4552433732313a207472616e7366657220746f206e6f6e20455243373231526560408201527131b2b4bb32b91034b6b83632b6b2b73a32b960711b606082015260800190565b634e487b7160e01b600052601260045260246000fd5b6001600160a01b03858116825284166020820152604081018390526080606082018190526000906128029083018461235e565b9695505050505050565b60006020828403121561281e57600080fd5b81516106c281612307565b634e487b7160e01b600052602160045260246000fd5b60008261285c57634e487b7160e01b600052601260045260246000fd5b50049056fea2646970667358221220db0edaba8222bd98618c020fd45464eea90906debf4455481fde735b22cd010a64736f6c63430008110033",
    "linkReferences": {}
  },
  "methodIdentifiers": {
    "DOMAIN_SEPARATOR()": "3644e515",
    "approve(address,uint256)": "095ea7b3",
    "balanceOf(address)": "70a08231",
    "delegate(address)": "5c19a95c",
    "delegateBySig(address,uint256,uint256,uint8,bytes32,bytes32)": "c3cda520",
    "delegates(address)": "587cde1e",
    "erc721Token()": "5f2d6bcd",
    "getApproved(uint256)": "081812fc",
    "getPastTotalSupply(uint256)": "8e539e8c",
    "getPastVotes(address,uint256)": "3a46b1a8",
    "getVotes(address)": "9ab24eb0",
    "isApprovedForAll(address,address)": "e985e9c5",
    "name()": "06fdde03",
    "nonces(address)": "7ecebe00",
    "owner()": "8da5cb5b",
    "ownerOf(uint256)": "6352211e",
    "renounceOwnership()": "715018a6",
    "safeMint(address,uint256)": "a1448194",
    "safeTransferFrom(address,address,uint256)": "42842e0e",
    "safeTransferFrom(address,address,uint256,bytes)": "b88d4fde",
    "setApprovalForAll(address,bool)": "a22cb465",
    "supportsInterface(bytes4)": "01ffc9a7",
    "symbol()": "95d89b41",
    "tokenURI(uint256)": "c87b56dd",
    "transferFrom(address,address,uint256)": "23b872dd",
    "transferOwnership(address)": "f2fde38b",
    "unwrapToken(uint256)": "940997f7",
    "wrapToken(uint256)": "6371d6bb"
  },
  "id": 1
}