{
  "abi": [
    {
      "inputs": [
        {
          "internalType": "address",
          "name": "_owner",
          "type": "address"
        },
        {
          "internalType": "contract Authority",
          "name": "_authority",
          "type": "address"
        }
      ],
      "stateMutability": "nonpayable",
      "type": "constructor"
    },
    {
      "anonymous": false,
      "inputs": [
        {
          "indexed": true,
          "internalType": "address",
          "name": "user",
          "type": "address"
        },
        {
          "indexed": true,
          "internalType": "contract Authority",
          "name": "newAuthority",
          "type": "address"
        }
      ],
      "name": "AuthorityUpdated",
      "type": "event"
    },
    {
      "anonymous": false,
      "inputs": [
        {
          "indexed": true,
          "internalType": "address",
          "name": "user",
          "type": "address"
        },
        {
          "indexed": true,
          "internalType": "address",
          "name": "newOwner",
          "type": "address"
        }
      ],
      "name": "OwnershipTransferred",
      "type": "event"
    },
    {
      "anonymous": false,
      "inputs": [
        {
          "indexed": true,
          "internalType": "address",
          "name": "target",
          "type": "address"
        },
        {
          "indexed": true,
          "internalType": "bytes4",
          "name": "functionSig",
          "type": "bytes4"
        },
        {
          "indexed": false,
          "internalType": "bool",
          "name": "enabled",
          "type": "bool"
        }
      ],
      "name": "PublicCapabilityUpdated",
      "type": "event"
    },
    {
      "anonymous": false,
      "inputs": [
        {
          "indexed": true,
          "internalType": "uint8",
          "name": "role",
          "type": "uint8"
        },
        {
          "indexed": true,
          "internalType": "address",
          "name": "target",
          "type": "address"
        },
        {
          "indexed": true,
          "internalType": "bytes4",
          "name": "functionSig",
          "type": "bytes4"
        },
        {
          "indexed": false,
          "internalType": "bool",
          "name": "enabled",
          "type": "bool"
        }
      ],
      "name": "RoleCapabilityUpdated",
      "type": "event"
    },
    {
      "anonymous": false,
      "inputs": [
        {
          "indexed": true,
          "internalType": "address",
          "name": "user",
          "type": "address"
        },
        {
          "indexed": true,
          "internalType": "uint8",
          "name": "role",
          "type": "uint8"
        },
        {
          "indexed": false,
          "internalType": "bool",
          "name": "enabled",
          "type": "bool"
        }
      ],
      "name": "UserRoleUpdated",
      "type": "event"
    },
    {
      "inputs": [],
      "name": "authority",
      "outputs": [
        {
          "internalType": "contract Authority",
          "name": "",
          "type": "address"
        }
      ],
      "stateMutability": "view",
      "type": "function"
    },
    {
      "inputs": [
        {
          "internalType": "address",
          "name": "user",
          "type": "address"
        },
        {
          "internalType": "address",
          "name": "target",
          "type": "address"
        },
        {
          "internalType": "bytes4",
          "name": "functionSig",
          "type": "bytes4"
        }
      ],
      "name": "canCall",
      "outputs": [
        {
          "internalType": "bool",
          "name": "",
          "type": "bool"
        }
      ],
      "stateMutability": "view",
      "type": "function"
    },
    {
      "inputs": [
        {
          "internalType": "uint8",
          "name": "role",
          "type": "uint8"
        },
        {
          "internalType": "address",
          "name": "target",
          "type": "address"
        },
        {
          "internalType": "bytes4",
          "name": "functionSig",
          "type": "bytes4"
        }
      ],
      "name": "doesRoleHaveCapability",
      "outputs": [
        {
          "internalType": "bool",
          "name": "",
          "type": "bool"
        }
      ],
      "stateMutability": "view",
      "type": "function"
    },
    {
      "inputs": [
        {
          "internalType": "address",
          "name": "user",
          "type": "address"
        },
        {
          "internalType": "uint8",
          "name": "role",
          "type": "uint8"
        }
      ],
      "name": "doesUserHaveRole",
      "outputs": [
        {
          "internalType": "bool",
          "name": "",
          "type": "bool"
        }
      ],
      "stateMutability": "view",
      "type": "function"
    },
    {
      "inputs": [
        {
          "internalType": "address",
          "name": "",
          "type": "address"
        },
        {
          "internalType": "bytes4",
          "name": "",
          "type": "bytes4"
        }
      ],
      "name": "getRolesWithCapability",
      "outputs": [
        {
          "internalType": "bytes32",
          "name": "",
          "type": "bytes32"
        }
      ],
      "stateMutability": "view",
      "type": "function"
    },
    {
      "inputs": [
        {
          "internalType": "address",
          "name": "",
          "type": "address"
        }
      ],
      "name": "getUserRoles",
      "outputs": [
        {
          "internalType": "bytes32",
          "name": "",
          "type": "bytes32"
        }
      ],
      "stateMutability": "view",
      "type": "function"
    },
    {
      "inputs": [
        {
          "internalType": "address",
          "name": "",
          "type": "address"
        },
        {
          "internalType": "bytes4",
          "name": "",
          "type": "bytes4"
        }
      ],
      "name": "isCapabilityPublic",
      "outputs": [
        {
          "internalType": "bool",
          "name": "",
          "type": "bool"
        }
      ],
      "stateMutability": "view",
      "type": "function"
    },
    {
      "inputs": [],
      "name": "owner",
      "outputs": [
        {
          "internalType": "address",
          "name": "",
          "type": "address"
        }
      ],
      "stateMutability": "view",
      "type": "function"
    },
    {
      "inputs": [
        {
          "internalType": "contract Authority",
          "name": "newAuthority",
          "type": "address"
        }
      ],
      "name": "setAuthority",
      "outputs": [],
      "stateMutability": "nonpayable",
      "type": "function"
    },
    {
      "inputs": [
        {
          "internalType": "address",
          "name": "target",
          "type": "address"
        },
        {
          "internalType": "bytes4",
          "name": "functionSig",
          "type": "bytes4"
        },
        {
          "internalType": "bool",
          "name": "enabled",
          "type": "bool"
        }
      ],
      "name": "setPublicCapability",
      "outputs": [],
      "stateMutability": "nonpayable",
      "type": "function"
    },
    {
      "inputs": [
        {
          "internalType": "uint8",
          "name": "role",
          "type": "uint8"
        },
        {
          "internalType": "address",
          "name": "target",
          "type": "address"
        },
        {
          "internalType": "bytes4",
          "name": "functionSig",
          "type": "bytes4"
        },
        {
          "internalType": "bool",
          "name": "enabled",
          "type": "bool"
        }
      ],
      "name": "setRoleCapability",
      "outputs": [],
      "stateMutability": "nonpayable",
      "type": "function"
    },
    {
      "inputs": [
        {
          "internalType": "address",
          "name": "user",
          "type": "address"
        },
        {
          "internalType": "uint8",
          "name": "role",
          "type": "uint8"
        },
        {
          "internalType": "bool",
          "name": "enabled",
          "type": "bool"
        }
      ],
      "name": "setUserRole",
      "outputs": [],
      "stateMutability": "nonpayable",
      "type": "function"
    },
    {
      "inputs": [
        {
          "internalType": "address",
          "name": "newOwner",
          "type": "address"
        }
      ],
      "name": "transferOwnership",
      "outputs": [],
      "stateMutability": "nonpayable",
      "type": "function"
    }
  ],
  "bytecode": {
    "object": "0x608060405234801561001057600080fd5b50604051610b9c380380610b9c83398101604081905261002f916100e1565b600080546001600160a01b03199081166001600160a01b0385811691821784556001805490931690851617909155604051849284929133917f8be0079c531659141344cd1fd0a4f28419497f9722a3daafe3b4186f6b6457e091a36040516001600160a01b0382169033907fa3396fd7f6e0a21b50e5089d2da70d5ac0a3bbbd1f617a93f134b7638998019890600090a35050505061011b565b6001600160a01b03811681146100de57600080fd5b50565b600080604083850312156100f457600080fd5b82516100ff816100c9565b6020840151909250610110816100c9565b809150509250929050565b610a728061012a6000396000f3fe608060405234801561001057600080fd5b50600436106100cf5760003560e01c80638da5cb5b1161008c578063bf7e214f11610066578063bf7e214f14610236578063c6b0263e14610249578063ea7ca2761461025c578063f2fde38b1461029357600080fd5b80638da5cb5b146101ab578063b4bad06a146101d6578063b70096131461022357600080fd5b806306a36aee146100d45780632f47571f1461010757806367aff484146101455780637917b7941461015a5780637a9e5e4b146101855780637d40583d14610198575b600080fd5b6100f46100e23660046107d7565b60026020526000908152604090205481565b6040519081526020015b60405180910390f35b610135610115366004610818565b600360209081526000928352604080842090915290825290205460ff1681565b60405190151581526020016100fe565b61015861015336600461086c565b6102a6565b005b6100f4610168366004610818565b600460209081526000928352604080842090915290825290205481565b6101586101933660046107d7565b610384565b6101586101a63660046108b5565b61046e565b6000546101be906001600160a01b031681565b6040516001600160a01b0390911681526020016100fe565b6101356101e436600461090d565b6001600160a01b039190911660009081526004602090815260408083206001600160e01b031990941683529290522054600160ff929092161c16151590565b610135610231366004610952565b610579565b6001546101be906001600160a01b031681565b610158610257366004610972565b6105f8565b61013561026a3660046109a0565b6001600160a01b0391909116600090815260026020526040902054600160ff9092161c16151590565b6101586102a13660046107d7565b610699565b6102bc336000356001600160e01b031916610716565b6102e15760405162461bcd60e51b81526004016102d8906109cc565b60405180910390fd5b8015610310576001600160a01b03831660009081526002602052604090208054600160ff85161b179055610336565b6001600160a01b03831660009081526002602052604090208054600160ff85161b191690555b8160ff16836001600160a01b03167f4c9bdd0c8e073eb5eda2250b18d8e5121ff27b62064fbeeeed4869bb99bc5bf283604051610377911515815260200190565b60405180910390a3505050565b6000546001600160a01b0316331480610419575060015460405163b700961360e01b81526001600160a01b039091169063b7009613906103d890339030906001600160e01b031960003516906004016109f2565b602060405180830381865afa1580156103f5573d6000803e3d6000fd5b505050506040513d601f19601f820116820180604052508101906104199190610a1f565b61042257600080fd5b600180546001600160a01b0319166001600160a01b03831690811790915560405133907fa3396fd7f6e0a21b50e5089d2da70d5ac0a3bbbd1f617a93f134b7638998019890600090a350565b610484336000356001600160e01b031916610716565b6104a05760405162461bcd60e51b81526004016102d8906109cc565b80156104e4576001600160a01b03831660009081526004602090815260408083206001600160e01b03198616845290915290208054600160ff87161b17905561051f565b6001600160a01b03831660009081526004602090815260408083206001600160e01b03198616845290915290208054600160ff87161b191690555b816001600160e01b031916836001600160a01b03168560ff167fa52ea92e6e955aa8ac66420b86350f7139959adfcc7e6a14eee1bd116d09860e8460405161056b911515815260200190565b60405180910390a450505050565b6001600160a01b03821660009081526003602090815260408083206001600160e01b03198516845290915281205460ff16806105f057506001600160a01b0380841660009081526004602090815260408083206001600160e01b031987168452825280832054938816835260029091529020541615155b949350505050565b61060e336000356001600160e01b031916610716565b61062a5760405162461bcd60e51b81526004016102d8906109cc565b6001600160a01b03831660008181526003602090815260408083206001600160e01b0319871680855290835292819020805460ff191686151590811790915590519081529192917f950a343f5d10445e82a71036d3f4fb3016180a25805141932543b83e2078a93e9101610377565b6106af336000356001600160e01b031916610716565b6106cb5760405162461bcd60e51b81526004016102d8906109cc565b600080546001600160a01b0319166001600160a01b0383169081178255604051909133917f8be0079c531659141344cd1fd0a4f28419497f9722a3daafe3b4186f6b6457e09190a350565b6001546000906001600160a01b031680158015906107a0575060405163b700961360e01b81526001600160a01b0382169063b70096139061075f908790309088906004016109f2565b602060405180830381865afa15801561077c573d6000803e3d6000fd5b505050506040513d601f19601f820116820180604052508101906107a09190610a1f565b806105f057506000546001600160a01b03858116911614949350505050565b6001600160a01b03811681146107d457600080fd5b50565b6000602082840312156107e957600080fd5b81356107f4816107bf565b9392505050565b80356001600160e01b03198116811461081357600080fd5b919050565b6000806040838503121561082b57600080fd5b8235610836816107bf565b9150610844602084016107fb565b90509250929050565b803560ff8116811461081357600080fd5b80151581146107d457600080fd5b60008060006060848603121561088157600080fd5b833561088c816107bf565b925061089a6020850161084d565b915060408401356108aa8161085e565b809150509250925092565b600080600080608085870312156108cb57600080fd5b6108d48561084d565b935060208501356108e4816107bf565b92506108f2604086016107fb565b915060608501356109028161085e565b939692955090935050565b60008060006060848603121561092257600080fd5b61092b8461084d565b9250602084013561093b816107bf565b9150610949604085016107fb565b90509250925092565b60008060006060848603121561096757600080fd5b833561092b816107bf565b60008060006060848603121561098757600080fd5b8335610992816107bf565b925061089a602085016107fb565b600080604083850312156109b357600080fd5b82356109be816107bf565b91506108446020840161084d565b6020808252600c908201526b15539055551213d49256915160a21b604082015260600190565b6001600160a01b0393841681529190921660208201526001600160e01b0319909116604082015260600190565b600060208284031215610a3157600080fd5b81516107f48161085e56fea2646970667358221220ed11b9e3d20460fbb05004a1f9837b81c054fe3660824ff4fa3eb30f829d22fe64736f6c63430008110033",
    "linkReferences": {}
  },
  "methodIdentifiers": {
    "authority()": "bf7e214f",
    "canCall(address,address,bytes4)": "b7009613",
    "doesRoleHaveCapability(uint8,address,bytes4)": "b4bad06a",
    "doesUserHaveRole(address,uint8)": "ea7ca276",
    "getRolesWithCapability(address,bytes4)": "7917b794",
    "getUserRoles(address)": "06a36aee",
    "isCapabilityPublic(address,bytes4)": "2f47571f",
    "owner()": "8da5cb5b",
    "setAuthority(address)": "7a9e5e4b",
    "setPublicCapability(address,bytes4,bool)": "c6b0263e",
    "setRoleCapability(uint8,address,bytes4,bool)": "7d40583d",
    "setUserRole(address,uint8,bool)": "67aff484",
    "transferOwnership(address)": "f2fde38b"
  },
  "id": 58
}