{
  "abi": [
    {
      "inputs": [
        {
          "internalType": "uint256",
          "name": "item_",
          "type": "uint256"
        },
        {
          "internalType": "uint208",
          "name": "totalMinted",
          "type": "uint208"
        },
        {
          "internalType": "address",
          "name": "_owner",
          "type": "address"
        },
        {
          "internalType": "contract GBCLab",
          "name": "lab_",
          "type": "address"
        },
        {
          "components": [
            {
              "internalType": "uint120",
              "name": "supply",
              "type": "uint120"
            },
            {
              "internalType": "uint208",
              "name": "cost",
              "type": "uint208"
            },
            {
              "internalType": "uint192",
              "name": "accountLimit",
              "type": "uint192"
            },
            {
              "internalType": "uint64",
              "name": "start",
              "type": "uint64"
            },
            {
              "internalType": "uint64",
              "name": "finish",
              "type": "uint64"
            }
          ],
          "internalType": "struct MintRule",
          "name": "_rule",
          "type": "tuple"
        },
        {
          "internalType": "contract IERC721",
          "name": "_nft",
          "type": "address"
        }
      ],
      "stateMutability": "nonpayable",
      "type": "constructor"
    },
    {
      "inputs": [],
      "name": "InvalidPaidAmount",
      "type": "error"
    },
    {
      "inputs": [],
      "name": "MaxSupplyReached",
      "type": "error"
    },
    {
      "inputs": [],
      "name": "MaxWalletReached",
      "type": "error"
    },
    {
      "inputs": [],
      "name": "MintEnded",
      "type": "error"
    },
    {
      "inputs": [],
      "name": "MintNotStarted",
      "type": "error"
    },
    {
      "inputs": [],
      "name": "NftAlreadyUsed",
      "type": "error"
    },
    {
      "inputs": [],
      "name": "NotOwner",
      "type": "error"
    },
    {
      "inputs": [],
      "name": "SaleCanceled",
      "type": "error"
    },
    {
      "inputs": [],
      "name": "TooManyTokens",
      "type": "error"
    },
    {
      "anonymous": false,
      "inputs": [
        {
          "indexed": true,
          "internalType": "address",
          "name": "user",
          "type": "address"
        },
        {
          "indexed": true,
          "internalType": "contract Authority",
          "name": "newAuthority",
          "type": "address"
        }
      ],
      "name": "AuthorityUpdated",
      "type": "event"
    },
    {
      "anonymous": false,
      "inputs": [
        {
          "indexed": true,
          "internalType": "address",
          "name": "user",
          "type": "address"
        },
        {
          "indexed": true,
          "internalType": "address",
          "name": "newOwner",
          "type": "address"
        }
      ],
      "name": "OwnershipTransferred",
      "type": "event"
    },
    {
      "anonymous": false,
      "inputs": [
        {
          "indexed": true,
          "internalType": "address",
          "name": "payeer",
          "type": "address"
        },
        {
          "indexed": false,
          "internalType": "uint256",
          "name": "amount",
          "type": "uint256"
        }
      ],
      "name": "Paied",
      "type": "event"
    },
    {
      "anonymous": false,
      "inputs": [
        {
          "indexed": true,
          "internalType": "address",
          "name": "token",
          "type": "address"
        },
        {
          "indexed": true,
          "internalType": "address",
          "name": "to",
          "type": "address"
        },
        {
          "indexed": false,
          "internalType": "uint256",
          "name": "amount",
          "type": "uint256"
        }
      ],
      "name": "Rescue",
      "type": "event"
    },
    {
      "inputs": [],
      "name": "ACCOUNT_LIMIT",
      "outputs": [
        {
          "internalType": "uint192",
          "name": "",
          "type": "uint192"
        }
      ],
      "stateMutability": "view",
      "type": "function"
    },
    {
      "inputs": [],
      "name": "COST",
      "outputs": [
        {
          "internalType": "uint208",
          "name": "",
          "type": "uint208"
        }
      ],
      "stateMutability": "view",
      "type": "function"
    },
    {
      "inputs": [],
      "name": "FINISH",
      "outputs": [
        {
          "internalType": "uint64",
          "name": "",
          "type": "uint64"
        }
      ],
      "stateMutability": "view",
      "type": "function"
    },
    {
      "inputs": [],
      "name": "ITEM",
      "outputs": [
        {
          "internalType": "uint256",
          "name": "",
          "type": "uint256"
        }
      ],
      "stateMutability": "view",
      "type": "function"
    },
    {
      "inputs": [],
      "name": "LAB",
      "outputs": [
        {
          "internalType": "contract GBCLab",
          "name": "",
          "type": "address"
        }
      ],
      "stateMutability": "view",
      "type": "function"
    },
    {
      "inputs": [],
      "name": "NFT",
      "outputs": [
        {
          "internalType": "contract IERC721",
          "name": "",
          "type": "address"
        }
      ],
      "stateMutability": "view",
      "type": "function"
    },
    {
      "inputs": [],
      "name": "RECEIVER",
      "outputs": [
        {
          "internalType": "address payable",
          "name": "",
          "type": "address"
        }
      ],
      "stateMutability": "view",
      "type": "function"
    },
    {
      "inputs": [],
      "name": "START",
      "outputs": [
        {
          "internalType": "uint64",
          "name": "",
          "type": "uint64"
        }
      ],
      "stateMutability": "view",
      "type": "function"
    },
    {
      "inputs": [],
      "name": "SUPPLY",
      "outputs": [
        {
          "internalType": "uint120",
          "name": "",
          "type": "uint120"
        }
      ],
      "stateMutability": "view",
      "type": "function"
    },
    {
      "inputs": [
        {
          "internalType": "address",
          "name": "",
          "type": "address"
        }
      ],
      "name": "accountMintCountOf",
      "outputs": [
        {
          "internalType": "uint256",
          "name": "",
          "type": "uint256"
        }
      ],
      "stateMutability": "view",
      "type": "function"
    },
    {
      "inputs": [],
      "name": "authority",
      "outputs": [
        {
          "internalType": "contract Authority",
          "name": "",
          "type": "address"
        }
      ],
      "stateMutability": "view",
      "type": "function"
    },
    {
      "inputs": [],
      "name": "cancel",
      "outputs": [],
      "stateMutability": "nonpayable",
      "type": "function"
    },
    {
      "inputs": [],
      "name": "canceled",
      "outputs": [
        {
          "internalType": "bool",
          "name": "",
          "type": "bool"
        }
      ],
      "stateMutability": "view",
      "type": "function"
    },
    {
      "inputs": [
        {
          "internalType": "uint256",
          "name": "",
          "type": "uint256"
        }
      ],
      "name": "isNftUsed",
      "outputs": [
        {
          "internalType": "bool",
          "name": "",
          "type": "bool"
        }
      ],
      "stateMutability": "view",
      "type": "function"
    },
    {
      "inputs": [
        {
          "internalType": "uint256[]",
          "name": "idList",
          "type": "uint256[]"
        }
      ],
      "name": "mint",
      "outputs": [],
      "stateMutability": "payable",
      "type": "function"
    },
    {
      "inputs": [
        {
          "internalType": "address",
          "name": "to",
          "type": "address"
        },
        {
          "internalType": "uint256[]",
          "name": "idList",
          "type": "uint256[]"
        }
      ],
      "name": "mintFor",
      "outputs": [],
      "stateMutability": "payable",
      "type": "function"
    },
    {
      "inputs": [
        {
          "internalType": "address",
          "name": "",
          "type": "address"
        }
      ],
      "name": "nftMinted",
      "outputs": [
        {
          "internalType": "uint256",
          "name": "",
          "type": "uint256"
        }
      ],
      "stateMutability": "view",
      "type": "function"
    },
    {
      "inputs": [],
      "name": "owner",
      "outputs": [
        {
          "internalType": "address",
          "name": "",
          "type": "address"
        }
      ],
      "stateMutability": "view",
      "type": "function"
    },
    {
      "inputs": [
        {
          "internalType": "address payable",
          "name": "to",
          "type": "address"
        },
        {
          "internalType": "uint256",
          "name": "amount",
          "type": "uint256"
        }
      ],
      "name": "rescueTokens",
      "outputs": [],
      "stateMutability": "nonpayable",
      "type": "function"
    },
    {
      "inputs": [
        {
          "internalType": "contract ERC20",
          "name": "token",
          "type": "address"
        },
        {
          "internalType": "address",
          "name": "to",
          "type": "address"
        },
        {
          "internalType": "uint256",
          "name": "amount",
          "type": "uint256"
        }
      ],
      "name": "rescueTokens",
      "outputs": [],
      "stateMutability": "nonpayable",
      "type": "function"
    },
    {
      "inputs": [
        {
          "internalType": "contract Authority",
          "name": "newAuthority",
          "type": "address"
        }
      ],
      "name": "setAuthority",
      "outputs": [],
      "stateMutability": "nonpayable",
      "type": "function"
    },
    {
      "inputs": [],
      "name": "totalMinted",
      "outputs": [
        {
          "internalType": "uint208",
          "name": "",
          "type": "uint208"
        }
      ],
      "stateMutability": "view",
      "type": "function"
    },
    {
      "inputs": [],
      "name": "totalNftMinted",
      "outputs": [
        {
          "internalType": "uint256",
          "name": "",
          "type": "uint256"
        }
      ],
      "stateMutability": "view",
      "type": "function"
    },
    {
      "inputs": [
        {
          "internalType": "address",
          "name": "newOwner",
          "type": "address"
        }
      ],
      "name": "transferOwnership",
      "outputs": [],
      "stateMutability": "nonpayable",
      "type": "function"
    }
  ],
  "bytecode": {
    "object": "0x6101a06040526003805460ff60d01b191690553480156200001f57600080fd5b506040516200162c3803806200162c833981016040819052620000429162000204565b8151602083015160408085015160608601516080870151600080546001600160a01b038c166001600160a01b0319918216811783556001805490921690915594519394929391928c928c928f928d9285928392909133907f8be0079c531659141344cd1fd0a4f28419497f9722a3daafe3b4186f6b6457e0908490a36040516001600160a01b0382169033907fa3396fd7f6e0a21b50e5089d2da70d5ac0a3bbbd1f617a93f134b7638998019890600090a35050506080919091526001600160a01b0390811660a05290811660c0526001600160781b03909616610100526001600160d01b0394851660e0526001600160c01b03909316610120526001600160401b0391821661014052166101605260038054919092166001600160d01b03199091161790551661018052506200031b9350505050565b80516001600160d01b03811681146200019157600080fd5b919050565b6001600160a01b0381168114620001ac57600080fd5b50565b80516001600160781b03811681146200019157600080fd5b80516001600160c01b03811681146200019157600080fd5b80516001600160401b03811681146200019157600080fd5b8051620001918162000196565b6000806000806000808688036101408112156200022057600080fd5b87519650620002326020890162000179565b95506040880151620002448162000196565b6060890151909550620002578162000196565b935060a0607f19820112156200026c57600080fd5b5060405160a081016001600160401b03811182821017156200029e57634e487b7160e01b600052604160045260246000fd5b604052620002af60808901620001af565b8152620002bf60a0890162000179565b6020820152620002d260c08901620001c7565b6040820152620002e560e08901620001df565b6060820152620002f96101008901620001df565b608082015291506200030f6101208801620001f7565b90509295509295509295565b60805160a05160c05160e0516101005161012051610140516101605161018051611261620003cb600039600081816102d90152610a4101526000818161026c0152610c7c01526000818161045e0152610c320152600081816103de0152610be80152600081816104e60152610d110152600081816104b20152610db401526000818161042a0152610edc0152600081816103720152610e480152600081816102030152610e0501526112616000f3fe60806040526004361061014b5760003560e01c8063a2309ff8116100b6578063c50497ae1161006f578063c50497ae146104d4578063cea9d26f14610520578063e01cfac714610540578063ea8a1af014610556578063f2fde38b1461056b578063f8e93ef91461058b57600080fd5b8063a2309ff814610394578063a582a534146103cc578063ad7430cc14610418578063ba9a061a1461044c578063bf7e214f14610480578063bf8fbbd2146104a057600080fd5b806372d193e21161010857806372d193e21461025a5780637a9e5e4b146102a75780637c0b8de2146102c75780638b4051ff146103135780638da5cb5b146103405780639f2b03b61461036057600080fd5b80632f6f92b3146101505780632f7fcce4146101905780633f9942ff146101d05780634f7efc45146101f157806357376198146102255780635dc3282d14610247575b600080fd5b34801561015c57600080fd5b5061017d61016b366004610f74565b60056020526000908152604090205481565b6040519081526020015b60405180910390f35b34801561019c57600080fd5b506101c06101ab366004610f98565b60046020526000908152604090205460ff1681565b6040519015158152602001610187565b3480156101dc57600080fd5b506003546101c090600160d01b900460ff1681565b3480156101fd57600080fd5b5061017d7f000000000000000000000000000000000000000000000000000000000000000081565b34801561023157600080fd5b50610245610240366004610fb1565b61059e565b005b610245610255366004611029565b610655565b34801561026657600080fd5b5061028e7f000000000000000000000000000000000000000000000000000000000000000081565b60405167ffffffffffffffff9091168152602001610187565b3480156102b357600080fd5b506102456102c2366004610f74565b610697565b3480156102d357600080fd5b506102fb7f000000000000000000000000000000000000000000000000000000000000000081565b6040516001600160a01b039091168152602001610187565b34801561031f57600080fd5b5061017d61032e366004610f74565b60026020526000908152604090205481565b34801561034c57600080fd5b506000546102fb906001600160a01b031681565b34801561036c57600080fd5b506102fb7f000000000000000000000000000000000000000000000000000000000000000081565b3480156103a057600080fd5b506003546103b4906001600160d01b031681565b6040516001600160d01b039091168152602001610187565b3480156103d857600080fd5b506104007f000000000000000000000000000000000000000000000000000000000000000081565b6040516001600160c01b039091168152602001610187565b34801561042457600080fd5b506102fb7f000000000000000000000000000000000000000000000000000000000000000081565b34801561045857600080fd5b5061028e7f000000000000000000000000000000000000000000000000000000000000000081565b34801561048c57600080fd5b506001546102fb906001600160a01b031681565b3480156104ac57600080fd5b506103b47f000000000000000000000000000000000000000000000000000000000000000081565b3480156104e057600080fd5b506105087f000000000000000000000000000000000000000000000000000000000000000081565b6040516001600160781b039091168152602001610187565b34801561052c57600080fd5b5061024561053b36600461107e565b610781565b34801561054c57600080fd5b5061017d60065481565b34801561056257600080fd5b50610245610879565b34801561057757600080fd5b50610245610586366004610f74565b6108c0565b6102456105993660046110bf565b61093d565b6105b4336000356001600160e01b03191661094c565b6105d95760405162461bcd60e51b81526004016105d090611101565b60405180910390fd5b6040516001600160a01b0383169082156108fc029083906000818181858888f1935050505015801561060f573d6000803e3d6000fd5b506040518181526001600160a01b038316906000907fe01920728668d89f092ef9cb92036bad90964bb622eec508d2c3ffe1d582efb29060200160405180910390a35050565b61066b336000356001600160e01b03191661094c565b6106875760405162461bcd60e51b81526004016105d090611101565b6106928383836109f8565b505050565b6000546001600160a01b031633148061072c575060015460405163b700961360e01b81526001600160a01b039091169063b7009613906106eb90339030906001600160e01b03196000351690600401611127565b602060405180830381865afa158015610708573d6000803e3d6000fd5b505050506040513d601f19601f8201168201806040525081019061072c9190611154565b61073557600080fd5b600180546001600160a01b0319166001600160a01b03831690811790915560405133907fa3396fd7f6e0a21b50e5089d2da70d5ac0a3bbbd1f617a93f134b7638998019890600090a350565b610797336000356001600160e01b03191661094c565b6107b35760405162461bcd60e51b81526004016105d090611101565b60405163a9059cbb60e01b81526001600160a01b0383811660048301526024820183905284169063a9059cbb906044016020604051808303816000875af1158015610802573d6000803e3d6000fd5b505050506040513d601f19601f820116820180604052508101906108269190611154565b50816001600160a01b0316836001600160a01b03167fe01920728668d89f092ef9cb92036bad90964bb622eec508d2c3ffe1d582efb28360405161086c91815260200190565b60405180910390a3505050565b61088f336000356001600160e01b03191661094c565b6108ab5760405162461bcd60e51b81526004016105d090611101565b6003805460ff60d01b1916600160d01b179055565b6108d6336000356001600160e01b03191661094c565b6108f25760405162461bcd60e51b81526004016105d090611101565b600080546001600160a01b0319166001600160a01b0383169081178255604051909133917f8be0079c531659141344cd1fd0a4f28419497f9722a3daafe3b4186f6b6457e09190a350565b6109483383836109f8565b5050565b6001546000906001600160a01b031680158015906109d6575060405163b700961360e01b81526001600160a01b0382169063b70096139061099590879030908890600401611127565b602060405180830381865afa1580156109b2573d6000803e3d6000fd5b505050506040513d601f19601f820116820180604052508101906109d69190611154565b806109ee57506000546001600160a01b038581169116145b9150505b92915050565b6001600160781b03811115610a2057604051633a4733d960e11b815260040160405180910390fd5b8060005b816001600160781b0316811015610ba657846001600160a01b03167f00000000000000000000000000000000000000000000000000000000000000006001600160a01b0316636352211e868685818110610a8057610a80611176565b905060200201356040518263ffffffff1660e01b8152600401610aa591815260200190565b602060405180830381865afa158015610ac2573d6000803e3d6000fd5b505050506040513d601f19601f82011682018060405250810190610ae6919061118c565b6001600160a01b031614610b0d576040516330cd747160e01b815260040160405180910390fd5b60046000858584818110610b2357610b23611176565b602090810292909201358352508101919091526040016000205460ff1615610b5e57604051636c0af10960e11b815260040160405180910390fd5b600160046000868685818110610b7657610b76611176565b60209081029290920135835250810191909152604001600020805460ff1916911515919091179055600101610a24565b50610bb18482610bb7565b50505050565b6001600160a01b038216600090815260026020526040812054610be4906001600160781b038416906111bf565b90507f00000000000000000000000000000000000000000000000000000000000000006001600160c01b0316811115610c3057604051633ce8c2bd60e11b815260040160405180910390fd5b7f000000000000000000000000000000000000000000000000000000000000000067ffffffffffffffff164211610c7a57604051630314872760e11b815260040160405180910390fd5b7f000000000000000000000000000000000000000000000000000000000000000067ffffffffffffffff16421115610cc55760405163124212e560e21b815260040160405180910390fd5b600380546001600160781b0384169190600090610cec9084906001600160d01b03166111d2565b82546101009290920a6001600160d01b038181021990931691831602179091556003547f00000000000000000000000000000000000000000000000000000000000000006001600160781b0316911611159050610d5c5760405163d05cb60960e01b815260040160405180910390fd5b600354600160d01b900460ff1615610d8757604051630943552b60e01b815260040160405180910390fd5b6001600160a01b0383166000908152600260205260409020819055610de6610dd86001600160781b0384167f00000000000000000000000000000000000000000000000000000000000000006111f9565b6001600160d01b0316610ea9565b60405163731133e960e01b81526001600160a01b0384811660048301527f000000000000000000000000000000000000000000000000000000000000000060248301526001600160781b038416604483015260806064830152600060848301527f0000000000000000000000000000000000000000000000000000000000000000169063731133e99060a401600060405180830381600087803b158015610e8c57600080fd5b505af1158015610ea0573d6000803e3d6000fd5b50505050505050565b348114610ec957604051633bc8b56760e21b815260040160405180910390fd5b8015610f5c576040516001600160a01b037f0000000000000000000000000000000000000000000000000000000000000000169082156108fc029083906000818181858888f19350505050158015610f25573d6000803e3d6000fd5b5060405181815233907f6ba9df9d92498f70e3ce503a61655f967479ba67129d4333e347a87c5c29b8949060200160405180910390a25b50565b6001600160a01b0381168114610f5c57600080fd5b600060208284031215610f8657600080fd5b8135610f9181610f5f565b9392505050565b600060208284031215610faa57600080fd5b5035919050565b60008060408385031215610fc457600080fd5b8235610fcf81610f5f565b946020939093013593505050565b60008083601f840112610fef57600080fd5b50813567ffffffffffffffff81111561100757600080fd5b6020830191508360208260051b850101111561102257600080fd5b9250929050565b60008060006040848603121561103e57600080fd5b833561104981610f5f565b9250602084013567ffffffffffffffff81111561106557600080fd5b61107186828701610fdd565b9497909650939450505050565b60008060006060848603121561109357600080fd5b833561109e81610f5f565b925060208401356110ae81610f5f565b929592945050506040919091013590565b600080602083850312156110d257600080fd5b823567ffffffffffffffff8111156110e957600080fd5b6110f585828601610fdd565b90969095509350505050565b6020808252600c908201526b15539055551213d49256915160a21b604082015260600190565b6001600160a01b0393841681529190921660208201526001600160e01b0319909116604082015260600190565b60006020828403121561116657600080fd5b81518015158114610f9157600080fd5b634e487b7160e01b600052603260045260246000fd5b60006020828403121561119e57600080fd5b8151610f9181610f5f565b634e487b7160e01b600052601160045260246000fd5b808201808211156109f2576109f26111a9565b6001600160d01b038181168382160190808211156111f2576111f26111a9565b5092915050565b6001600160d01b03828116828216818102831692918115828504821417611222576112226111a9565b5050509291505056fea2646970667358221220356654af01e3986aaa41f6d517379707239a9ec7313b6b1b19c4d84787a88d6a64736f6c63430008110033",
    "linkReferences": {}
  },
  "methodIdentifiers": {
    "ACCOUNT_LIMIT()": "a582a534",
    "COST()": "bf8fbbd2",
    "FINISH()": "72d193e2",
    "ITEM()": "4f7efc45",
    "LAB()": "9f2b03b6",
    "NFT()": "7c0b8de2",
    "RECEIVER()": "ad7430cc",
    "START()": "ba9a061a",
    "SUPPLY()": "c50497ae",
    "accountMintCountOf(address)": "8b4051ff",
    "authority()": "bf7e214f",
    "cancel()": "ea8a1af0",
    "canceled()": "3f9942ff",
    "isNftUsed(uint256)": "2f7fcce4",
    "mint(uint256[])": "f8e93ef9",
    "mintFor(address,uint256[])": "5dc3282d",
    "nftMinted(address)": "2f6f92b3",
    "owner()": "8da5cb5b",
    "rescueTokens(address,address,uint256)": "cea9d26f",
    "rescueTokens(address,uint256)": "57376198",
    "setAuthority(address)": "7a9e5e4b",
    "totalMinted()": "a2309ff8",
    "totalNftMinted()": "e01cfac7",
    "transferOwnership(address)": "f2fde38b"
  },
  "id": 13
}