{
  "abi": [
    {
      "inputs": [
        {
          "internalType": "uint256",
          "name": "item_",
          "type": "uint256"
        },
        {
          "internalType": "uint208",
          "name": "totalMinted",
          "type": "uint208"
        },
        {
          "internalType": "address",
          "name": "owner_",
          "type": "address"
        },
        {
          "internalType": "address",
          "name": "treasury_",
          "type": "address"
        },
        {
          "internalType": "contract GBCLab",
          "name": "lab_",
          "type": "address"
        },
        {
          "internalType": "contract ERC20",
          "name": "token_",
          "type": "address"
        },
        {
          "components": [
            {
              "internalType": "uint120",
              "name": "supply",
              "type": "uint120"
            },
            {
              "internalType": "uint208",
              "name": "cost",
              "type": "uint208"
            },
            {
              "internalType": "uint192",
              "name": "accountLimit",
              "type": "uint192"
            },
            {
              "internalType": "uint64",
              "name": "start",
              "type": "uint64"
            },
            {
              "internalType": "uint64",
              "name": "finish",
              "type": "uint64"
            }
          ],
          "internalType": "struct MintRule",
          "name": "_rule",
          "type": "tuple"
        }
      ],
      "stateMutability": "nonpayable",
      "type": "constructor"
    },
    {
      "inputs": [],
      "name": "MaxSupplyReached",
      "type": "error"
    },
    {
      "inputs": [],
      "name": "MaxWalletReached",
      "type": "error"
    },
    {
      "inputs": [],
      "name": "MintEnded",
      "type": "error"
    },
    {
      "inputs": [],
      "name": "MintNotStarted",
      "type": "error"
    },
    {
      "inputs": [],
      "name": "SaleCanceled",
      "type": "error"
    },
    {
      "anonymous": false,
      "inputs": [
        {
          "indexed": true,
          "internalType": "address",
          "name": "user",
          "type": "address"
        },
        {
          "indexed": true,
          "internalType": "contract Authority",
          "name": "newAuthority",
          "type": "address"
        }
      ],
      "name": "AuthorityUpdated",
      "type": "event"
    },
    {
      "anonymous": false,
      "inputs": [
        {
          "indexed": true,
          "internalType": "address",
          "name": "user",
          "type": "address"
        },
        {
          "indexed": true,
          "internalType": "address",
          "name": "newOwner",
          "type": "address"
        }
      ],
      "name": "OwnershipTransferred",
      "type": "event"
    },
    {
      "anonymous": false,
      "inputs": [
        {
          "indexed": true,
          "internalType": "address",
          "name": "payeer",
          "type": "address"
        },
        {
          "indexed": false,
          "internalType": "uint256",
          "name": "amount",
          "type": "uint256"
        }
      ],
      "name": "Paied",
      "type": "event"
    },
    {
      "anonymous": false,
      "inputs": [
        {
          "indexed": true,
          "internalType": "address",
          "name": "token",
          "type": "address"
        },
        {
          "indexed": true,
          "internalType": "address",
          "name": "to",
          "type": "address"
        },
        {
          "indexed": false,
          "internalType": "uint256",
          "name": "amount",
          "type": "uint256"
        }
      ],
      "name": "Rescue",
      "type": "event"
    },
    {
      "inputs": [],
      "name": "ACCOUNT_LIMIT",
      "outputs": [
        {
          "internalType": "uint192",
          "name": "",
          "type": "uint192"
        }
      ],
      "stateMutability": "view",
      "type": "function"
    },
    {
      "inputs": [],
      "name": "COST",
      "outputs": [
        {
          "internalType": "uint208",
          "name": "",
          "type": "uint208"
        }
      ],
      "stateMutability": "view",
      "type": "function"
    },
    {
      "inputs": [],
      "name": "FINISH",
      "outputs": [
        {
          "internalType": "uint64",
          "name": "",
          "type": "uint64"
        }
      ],
      "stateMutability": "view",
      "type": "function"
    },
    {
      "inputs": [],
      "name": "ITEM",
      "outputs": [
        {
          "internalType": "uint256",
          "name": "",
          "type": "uint256"
        }
      ],
      "stateMutability": "view",
      "type": "function"
    },
    {
      "inputs": [],
      "name": "LAB",
      "outputs": [
        {
          "internalType": "contract GBCLab",
          "name": "",
          "type": "address"
        }
      ],
      "stateMutability": "view",
      "type": "function"
    },
    {
      "inputs": [],
      "name": "RECEIVER",
      "outputs": [
        {
          "internalType": "address payable",
          "name": "",
          "type": "address"
        }
      ],
      "stateMutability": "view",
      "type": "function"
    },
    {
      "inputs": [],
      "name": "START",
      "outputs": [
        {
          "internalType": "uint64",
          "name": "",
          "type": "uint64"
        }
      ],
      "stateMutability": "view",
      "type": "function"
    },
    {
      "inputs": [],
      "name": "SUPPLY",
      "outputs": [
        {
          "internalType": "uint120",
          "name": "",
          "type": "uint120"
        }
      ],
      "stateMutability": "view",
      "type": "function"
    },
    {
      "inputs": [],
      "name": "TOKEN",
      "outputs": [
        {
          "internalType": "contract ERC20",
          "name": "",
          "type": "address"
        }
      ],
      "stateMutability": "view",
      "type": "function"
    },
    {
      "inputs": [
        {
          "internalType": "address",
          "name": "",
          "type": "address"
        }
      ],
      "name": "accountMintCountOf",
      "outputs": [
        {
          "internalType": "uint256",
          "name": "",
          "type": "uint256"
        }
      ],
      "stateMutability": "view",
      "type": "function"
    },
    {
      "inputs": [],
      "name": "authority",
      "outputs": [
        {
          "internalType": "contract Authority",
          "name": "",
          "type": "address"
        }
      ],
      "stateMutability": "view",
      "type": "function"
    },
    {
      "inputs": [],
      "name": "cancel",
      "outputs": [],
      "stateMutability": "nonpayable",
      "type": "function"
    },
    {
      "inputs": [],
      "name": "canceled",
      "outputs": [
        {
          "internalType": "bool",
          "name": "",
          "type": "bool"
        }
      ],
      "stateMutability": "view",
      "type": "function"
    },
    {
      "inputs": [
        {
          "internalType": "uint120",
          "name": "mintAmount",
          "type": "uint120"
        }
      ],
      "name": "mint",
      "outputs": [],
      "stateMutability": "payable",
      "type": "function"
    },
    {
      "inputs": [
        {
          "internalType": "address",
          "name": "to",
          "type": "address"
        },
        {
          "internalType": "uint120",
          "name": "mintAmount",
          "type": "uint120"
        }
      ],
      "name": "mintFor",
      "outputs": [],
      "stateMutability": "payable",
      "type": "function"
    },
    {
      "inputs": [],
      "name": "owner",
      "outputs": [
        {
          "internalType": "address",
          "name": "",
          "type": "address"
        }
      ],
      "stateMutability": "view",
      "type": "function"
    },
    {
      "inputs": [
        {
          "internalType": "address payable",
          "name": "to",
          "type": "address"
        },
        {
          "internalType": "uint256",
          "name": "amount",
          "type": "uint256"
        }
      ],
      "name": "rescueTokens",
      "outputs": [],
      "stateMutability": "nonpayable",
      "type": "function"
    },
    {
      "inputs": [
        {
          "internalType": "contract ERC20",
          "name": "token",
          "type": "address"
        },
        {
          "internalType": "address",
          "name": "to",
          "type": "address"
        },
        {
          "internalType": "uint256",
          "name": "amount",
          "type": "uint256"
        }
      ],
      "name": "rescueTokens",
      "outputs": [],
      "stateMutability": "nonpayable",
      "type": "function"
    },
    {
      "inputs": [
        {
          "internalType": "contract Authority",
          "name": "newAuthority",
          "type": "address"
        }
      ],
      "name": "setAuthority",
      "outputs": [],
      "stateMutability": "nonpayable",
      "type": "function"
    },
    {
      "inputs": [],
      "name": "totalMinted",
      "outputs": [
        {
          "internalType": "uint208",
          "name": "",
          "type": "uint208"
        }
      ],
      "stateMutability": "view",
      "type": "function"
    },
    {
      "inputs": [
        {
          "internalType": "address",
          "name": "newOwner",
          "type": "address"
        }
      ],
      "name": "transferOwnership",
      "outputs": [],
      "stateMutability": "nonpayable",
      "type": "function"
    }
  ],
  "bytecode": {
    "object": "0x6101a06040526003805460ff60d01b191690553480156200001f57600080fd5b50604051620013863803806200138683398101604081905262000042916200022c565b806000015181602001518260400151836060015184608001518a878a8e8b8e806000816000806101000a8154816001600160a01b0302191690836001600160a01b0316021790555080600160006101000a8154816001600160a01b0302191690836001600160a01b03160217905550816001600160a01b0316336001600160a01b03167f8be0079c531659141344cd1fd0a4f28419497f9722a3daafe3b4186f6b6457e060405160405180910390a36040516001600160a01b0382169033907fa3396fd7f6e0a21b50e5089d2da70d5ac0a3bbbd1f617a93f134b7638998019890600090a35050506080919091526001600160a01b0390811660a05290811660c0521660e0526001600160781b0395909516610120526001600160d01b03938416610100526001600160c01b0392909216610140526001600160401b03908116610160521661018052600380546001600160d01b03191691909216179055506200036095505050505050565b80516001600160d01b0381168114620001c657600080fd5b919050565b6001600160a01b0381168114620001e157600080fd5b50565b80516001600160781b0381168114620001c657600080fd5b80516001600160c01b0381168114620001c657600080fd5b80516001600160401b0381168114620001c657600080fd5b60008060008060008060008789036101608112156200024a57600080fd5b885197506200025c60208a01620001ae565b965060408901516200026e81620001cb565b60608a01519096506200028181620001cb565b60808a01519095506200029481620001cb565b60a08a0151909450620002a781620001cb565b925060a060bf1982011215620002bc57600080fd5b5060405160a081016001600160401b0381118282101715620002ee57634e487b7160e01b600052604160045260246000fd5b604052620002ff60c08a01620001e4565b81526200030f60e08a01620001ae565b6020820152620003236101008a01620001fc565b6040820152620003376101208a0162000214565b60608201526200034b6101408a0162000214565b60808201528091505092959891949750929550565b60805160a05160c05160e0516101005161012051610140516101605161018051610f7662000410600039600081816101ee01526109470152600081816103f301526108fd01526000818161037301526108b301526000818161047b01526109dc0152600081816104470152610a7f01526000818161025b0152610c2d0152600081816103bf0152610c500152600081816103070152610b1301526000818161018c0152610ad00152610f766000f3fe60806040526004361061012a5760003560e01c80639f2b03b6116100ab578063bf7e214f1161006f578063bf7e214f14610415578063bf8fbbd214610435578063c50497ae14610469578063cea9d26f146104b5578063ea8a1af0146104d5578063f2fde38b146104ea57600080fd5b80639f2b03b6146102f5578063a2309ff814610329578063a582a53414610361578063ad7430cc146103ad578063ba9a061a146103e157600080fd5b80637a9e5e4b116100f25780637a9e5e4b1461022957806382bfefc8146102495780638b4051ff146102955780638da5cb5b146102c25780639886791d146102e257600080fd5b80633ceff29a1461012f5780633f9942ff146101445780634f7efc451461017a57806357376198146101bc57806372d193e2146101dc575b600080fd5b61014261013d366004610d68565b61050a565b005b34801561015057600080fd5b5060035461016590600160d01b900460ff1681565b60405190151581526020015b60405180910390f35b34801561018657600080fd5b506101ae7f000000000000000000000000000000000000000000000000000000000000000081565b604051908152602001610171565b3480156101c857600080fd5b506101426101d7366004610d9d565b610518565b3480156101e857600080fd5b506102107f000000000000000000000000000000000000000000000000000000000000000081565b60405167ffffffffffffffff9091168152602001610171565b34801561023557600080fd5b50610142610244366004610dc9565b6105cf565b34801561025557600080fd5b5061027d7f000000000000000000000000000000000000000000000000000000000000000081565b6040516001600160a01b039091168152602001610171565b3480156102a157600080fd5b506101ae6102b0366004610dc9565b60026020526000908152604090205481565b3480156102ce57600080fd5b5060005461027d906001600160a01b031681565b6101426102f0366004610ded565b6106b9565b34801561030157600080fd5b5061027d7f000000000000000000000000000000000000000000000000000000000000000081565b34801561033557600080fd5b50600354610349906001600160d01b031681565b6040516001600160d01b039091168152602001610171565b34801561036d57600080fd5b506103957f000000000000000000000000000000000000000000000000000000000000000081565b6040516001600160c01b039091168152602001610171565b3480156103b957600080fd5b5061027d7f000000000000000000000000000000000000000000000000000000000000000081565b3480156103ed57600080fd5b506102107f000000000000000000000000000000000000000000000000000000000000000081565b34801561042157600080fd5b5060015461027d906001600160a01b031681565b34801561044157600080fd5b506103497f000000000000000000000000000000000000000000000000000000000000000081565b34801561047557600080fd5b5061049d7f000000000000000000000000000000000000000000000000000000000000000081565b6040516001600160781b039091168152602001610171565b3480156104c157600080fd5b506101426104d0366004610e08565b6106c6565b3480156104e157600080fd5b506101426107be565b3480156104f657600080fd5b50610142610505366004610dc9565b610805565b6105148282610882565b5050565b61052e336000356001600160e01b031916610b74565b6105535760405162461bcd60e51b815260040161054a90610e49565b60405180910390fd5b6040516001600160a01b0383169082156108fc029083906000818181858888f19350505050158015610589573d6000803e3d6000fd5b506040518181526001600160a01b038316906000907fe01920728668d89f092ef9cb92036bad90964bb622eec508d2c3ffe1d582efb29060200160405180910390a35050565b6000546001600160a01b0316331480610664575060015460405163b700961360e01b81526001600160a01b039091169063b70096139061062390339030906001600160e01b03196000351690600401610e6f565b602060405180830381865afa158015610640573d6000803e3d6000fd5b505050506040513d601f19601f820116820180604052508101906106649190610e9c565b61066d57600080fd5b600180546001600160a01b0319166001600160a01b03831690811790915560405133907fa3396fd7f6e0a21b50e5089d2da70d5ac0a3bbbd1f617a93f134b7638998019890600090a350565b6106c33382610882565b50565b6106dc336000356001600160e01b031916610b74565b6106f85760405162461bcd60e51b815260040161054a90610e49565b60405163a9059cbb60e01b81526001600160a01b0383811660048301526024820183905284169063a9059cbb906044016020604051808303816000875af1158015610747573d6000803e3d6000fd5b505050506040513d601f19601f8201168201806040525081019061076b9190610e9c565b50816001600160a01b0316836001600160a01b03167fe01920728668d89f092ef9cb92036bad90964bb622eec508d2c3ffe1d582efb2836040516107b191815260200190565b60405180910390a3505050565b6107d4336000356001600160e01b031916610b74565b6107f05760405162461bcd60e51b815260040161054a90610e49565b6003805460ff60d01b1916600160d01b179055565b61081b336000356001600160e01b031916610b74565b6108375760405162461bcd60e51b815260040161054a90610e49565b600080546001600160a01b0319166001600160a01b0383169081178255604051909133917f8be0079c531659141344cd1fd0a4f28419497f9722a3daafe3b4186f6b6457e09190a350565b6001600160a01b0382166000908152600260205260408120546108af906001600160781b03841690610ed4565b90507f00000000000000000000000000000000000000000000000000000000000000006001600160c01b03168111156108fb57604051633ce8c2bd60e11b815260040160405180910390fd5b7f000000000000000000000000000000000000000000000000000000000000000067ffffffffffffffff16421161094557604051630314872760e11b815260040160405180910390fd5b7f000000000000000000000000000000000000000000000000000000000000000067ffffffffffffffff164211156109905760405163124212e560e21b815260040160405180910390fd5b600380546001600160781b03841691906000906109b79084906001600160d01b0316610ee7565b82546101009290920a6001600160d01b038181021990931691831602179091556003547f00000000000000000000000000000000000000000000000000000000000000006001600160781b0316911611159050610a275760405163d05cb60960e01b815260040160405180910390fd5b600354600160d01b900460ff1615610a5257604051630943552b60e01b815260040160405180910390fd5b6001600160a01b0383166000908152600260205260409020819055610ab1610aa36001600160781b0384167f0000000000000000000000000000000000000000000000000000000000000000610f0e565b6001600160d01b0316610c20565b60405163731133e960e01b81526001600160a01b0384811660048301527f000000000000000000000000000000000000000000000000000000000000000060248301526001600160781b038416604483015260806064830152600060848301527f0000000000000000000000000000000000000000000000000000000000000000169063731133e99060a401600060405180830381600087803b158015610b5757600080fd5b505af1158015610b6b573d6000803e3d6000fd5b50505050505050565b6001546000906001600160a01b03168015801590610bfe575060405163b700961360e01b81526001600160a01b0382169063b700961390610bbd90879030908890600401610e6f565b602060405180830381865afa158015610bda573d6000803e3d6000fd5b505050506040513d601f19601f82011682018060405250810190610bfe9190610e9c565b80610c1657506000546001600160a01b038581169116145b9150505b92915050565b610c756001600160a01b037f000000000000000000000000000000000000000000000000000000000000000016337f000000000000000000000000000000000000000000000000000000000000000084610cad565b60405181815233907f6ba9df9d92498f70e3ce503a61655f967479ba67129d4333e347a87c5c29b8949060200160405180910390a250565b60006040516323b872dd60e01b81528460048201528360248201528260448201526020600060648360008a5af13d15601f3d1160016000511416171691505080610d305760405162461bcd60e51b81526020600482015260146024820152731514905394d1915497d19493d357d1905253115160621b604482015260640161054a565b5050505050565b6001600160a01b03811681146106c357600080fd5b80356001600160781b0381168114610d6357600080fd5b919050565b60008060408385031215610d7b57600080fd5b8235610d8681610d37565b9150610d9460208401610d4c565b90509250929050565b60008060408385031215610db057600080fd5b8235610dbb81610d37565b946020939093013593505050565b600060208284031215610ddb57600080fd5b8135610de681610d37565b9392505050565b600060208284031215610dff57600080fd5b610de682610d4c565b600080600060608486031215610e1d57600080fd5b8335610e2881610d37565b92506020840135610e3881610d37565b929592945050506040919091013590565b6020808252600c908201526b15539055551213d49256915160a21b604082015260600190565b6001600160a01b0393841681529190921660208201526001600160e01b0319909116604082015260600190565b600060208284031215610eae57600080fd5b81518015158114610de657600080fd5b634e487b7160e01b600052601160045260246000fd5b80820180821115610c1a57610c1a610ebe565b6001600160d01b03818116838216019080821115610f0757610f07610ebe565b5092915050565b6001600160d01b03828116828216818102831692918115828504821417610f3757610f37610ebe565b5050509291505056fea264697066735822122041597a73ac1b8c2fcca252a91821db0d1cfdc03c736eff297b9c161536661fff64736f6c63430008110033",
    "linkReferences": {}
  },
  "methodIdentifiers": {
    "ACCOUNT_LIMIT()": "a582a534",
    "COST()": "bf8fbbd2",
    "FINISH()": "72d193e2",
    "ITEM()": "4f7efc45",
    "LAB()": "9f2b03b6",
    "RECEIVER()": "ad7430cc",
    "START()": "ba9a061a",
    "SUPPLY()": "c50497ae",
    "TOKEN()": "82bfefc8",
    "accountMintCountOf(address)": "8b4051ff",
    "authority()": "bf7e214f",
    "cancel()": "ea8a1af0",
    "canceled()": "3f9942ff",
    "mint(uint120)": "9886791d",
    "mintFor(address,uint120)": "3ceff29a",
    "owner()": "8da5cb5b",
    "rescueTokens(address,address,uint256)": "cea9d26f",
    "rescueTokens(address,uint256)": "57376198",
    "setAuthority(address)": "7a9e5e4b",
    "totalMinted()": "a2309ff8",
    "transferOwnership(address)": "f2fde38b"
  },
  "id": 16
}