{
  "abi": [
    {
      "inputs": [
        {
          "internalType": "contract IERC721",
          "name": "_gbc",
          "type": "address"
        },
        {
          "internalType": "contract GBCLab",
          "name": "_lab",
          "type": "address"
        }
      ],
      "stateMutability": "nonpayable",
      "type": "constructor"
    },
    {
      "inputs": [],
      "name": "AlreadyDeposited",
      "type": "error"
    },
    {
      "inputs": [],
      "name": "MaxOwnableReached",
      "type": "error"
    },
    {
      "inputs": [],
      "name": "NotDeposited",
      "type": "error"
    },
    {
      "inputs": [],
      "name": "NotOwner",
      "type": "error"
    },
    {
      "inputs": [],
      "name": "PluginNotApproved",
      "type": "error"
    },
    {
      "anonymous": false,
      "inputs": [
        {
          "indexed": true,
          "internalType": "uint256",
          "name": "token",
          "type": "uint256"
        },
        {
          "indexed": false,
          "internalType": "uint256[]",
          "name": "deposits",
          "type": "uint256[]"
        },
        {
          "indexed": false,
          "internalType": "uint256[]",
          "name": "whithdraws",
          "type": "uint256[]"
        }
      ],
      "name": "Set",
      "type": "event"
    },
    {
      "inputs": [],
      "name": "GBC",
      "outputs": [
        {
          "internalType": "contract IERC721",
          "name": "",
          "type": "address"
        }
      ],
      "stateMutability": "view",
      "type": "function"
    },
    {
      "inputs": [],
      "name": "LAB",
      "outputs": [
        {
          "internalType": "contract GBCLab",
          "name": "",
          "type": "address"
        }
      ],
      "stateMutability": "view",
      "type": "function"
    },
    {
      "inputs": [
        {
          "internalType": "address",
          "name": "plugin",
          "type": "address"
        },
        {
          "internalType": "bool",
          "name": "approved",
          "type": "bool"
        }
      ],
      "name": "approve",
      "outputs": [],
      "stateMutability": "nonpayable",
      "type": "function"
    },
    {
      "inputs": [
        {
          "internalType": "uint256",
          "name": "token",
          "type": "uint256"
        },
        {
          "internalType": "uint256",
          "name": "start",
          "type": "uint256"
        },
        {
          "internalType": "uint256",
          "name": "size",
          "type": "uint256"
        }
      ],
      "name": "get",
      "outputs": [
        {
          "internalType": "uint256[]",
          "name": "",
          "type": "uint256[]"
        }
      ],
      "stateMutability": "view",
      "type": "function"
    },
    {
      "inputs": [
        {
          "internalType": "uint256",
          "name": "token",
          "type": "uint256"
        },
        {
          "internalType": "uint256",
          "name": "item",
          "type": "uint256"
        }
      ],
      "name": "isWearing",
      "outputs": [
        {
          "internalType": "bool",
          "name": "",
          "type": "bool"
        }
      ],
      "stateMutability": "view",
      "type": "function"
    },
    {
      "inputs": [
        {
          "internalType": "uint256",
          "name": "token",
          "type": "uint256"
        },
        {
          "internalType": "uint256[]",
          "name": "items",
          "type": "uint256[]"
        }
      ],
      "name": "isWearing",
      "outputs": [
        {
          "internalType": "bool[]",
          "name": "",
          "type": "bool[]"
        }
      ],
      "stateMutability": "view",
      "type": "function"
    },
    {
      "inputs": [
        {
          "internalType": "uint256",
          "name": "",
          "type": "uint256"
        },
        {
          "internalType": "uint256",
          "name": "",
          "type": "uint256"
        }
      ],
      "name": "itemsIndex",
      "outputs": [
        {
          "internalType": "uint256",
          "name": "",
          "type": "uint256"
        }
      ],
      "stateMutability": "view",
      "type": "function"
    },
    {
      "inputs": [
        {
          "internalType": "uint256",
          "name": "",
          "type": "uint256"
        },
        {
          "internalType": "uint256",
          "name": "",
          "type": "uint256"
        }
      ],
      "name": "itemsOwned",
      "outputs": [
        {
          "internalType": "uint256",
          "name": "",
          "type": "uint256"
        }
      ],
      "stateMutability": "view",
      "type": "function"
    },
    {
      "inputs": [
        {
          "internalType": "address",
          "name": "",
          "type": "address"
        },
        {
          "internalType": "address",
          "name": "",
          "type": "address"
        },
        {
          "internalType": "uint256[]",
          "name": "",
          "type": "uint256[]"
        },
        {
          "internalType": "uint256[]",
          "name": "",
          "type": "uint256[]"
        },
        {
          "internalType": "bytes",
          "name": "",
          "type": "bytes"
        }
      ],
      "name": "onERC1155BatchReceived",
      "outputs": [
        {
          "internalType": "bytes4",
          "name": "",
          "type": "bytes4"
        }
      ],
      "stateMutability": "nonpayable",
      "type": "function"
    },
    {
      "inputs": [
        {
          "internalType": "address",
          "name": "",
          "type": "address"
        },
        {
          "internalType": "address",
          "name": "",
          "type": "address"
        },
        {
          "internalType": "uint256",
          "name": "",
          "type": "uint256"
        },
        {
          "internalType": "uint256",
          "name": "",
          "type": "uint256"
        },
        {
          "internalType": "bytes",
          "name": "",
          "type": "bytes"
        }
      ],
      "name": "onERC1155Received",
      "outputs": [
        {
          "internalType": "bytes4",
          "name": "",
          "type": "bytes4"
        }
      ],
      "stateMutability": "nonpayable",
      "type": "function"
    },
    {
      "inputs": [
        {
          "internalType": "uint256",
          "name": "",
          "type": "uint256"
        }
      ],
      "name": "ownedLength",
      "outputs": [
        {
          "internalType": "uint256",
          "name": "",
          "type": "uint256"
        }
      ],
      "stateMutability": "view",
      "type": "function"
    },
    {
      "inputs": [
        {
          "internalType": "address",
          "name": "",
          "type": "address"
        },
        {
          "internalType": "address",
          "name": "",
          "type": "address"
        }
      ],
      "name": "pluginApproval",
      "outputs": [
        {
          "internalType": "bool",
          "name": "",
          "type": "bool"
        }
      ],
      "stateMutability": "view",
      "type": "function"
    },
    {
      "inputs": [
        {
          "internalType": "uint256",
          "name": "token",
          "type": "uint256"
        },
        {
          "internalType": "uint256[]",
          "name": "deposits",
          "type": "uint256[]"
        },
        {
          "internalType": "uint256[]",
          "name": "withdraws",
          "type": "uint256[]"
        },
        {
          "internalType": "address",
          "name": "receiver",
          "type": "address"
        }
      ],
      "name": "set",
      "outputs": [],
      "stateMutability": "nonpayable",
      "type": "function"
    },
    {
      "inputs": [
        {
          "internalType": "address",
          "name": "account",
          "type": "address"
        },
        {
          "internalType": "uint256",
          "name": "token",
          "type": "uint256"
        },
        {
          "internalType": "uint256[]",
          "name": "deposits",
          "type": "uint256[]"
        },
        {
          "internalType": "uint256[]",
          "name": "withdraws",
          "type": "uint256[]"
        },
        {
          "internalType": "address",
          "name": "receiver",
          "type": "address"
        }
      ],
      "name": "setForAccount",
      "outputs": [],
      "stateMutability": "nonpayable",
      "type": "function"
    }
  ],
  "bytecode": {
    "object": "0x60c060405234801561001057600080fd5b5060405161137838038061137883398101604081905261002f9161005e565b6001600160a01b039182166080521660a052610098565b6001600160a01b038116811461005b57600080fd5b50565b6000806040838503121561007157600080fd5b825161007c81610046565b602084015190925061008d81610046565b809150509250929050565b60805160a05161129f6100d96000396000818161027d0152818161092c0152610b1c0152600081816102f70152818161049001526105f8015261129f6000f3fe608060405234801561001057600080fd5b50600436106100ea5760003560e01c80638f5cecbb1161008c5780639f2b03b6116100665780639f2b03b614610278578063bc197c81146102b7578063e8a43520146102f2578063f23a6e611461031957600080fd5b80638f5cecbb146102325780639160d92e1461024557806399acf9fb1461025857600080fd5b80633d140d21116100c85780633d140d2114610166578063630accb6146101ac57806367b1c3d6146101ea5780636cafa74e1461021257600080fd5b80630541c707146100ef57806315267cca14610118578063224e632e1461012d575b600080fd5b6101026100fd366004610bb8565b610339565b60405161010f9190610c1f565b60405180910390f35b61012b610126366004610c93565b610440565b005b61015861013b366004610d33565b600260209081526000928352604080842090915290825290205481565b60405190815260200161010f565b61012b610174366004610d55565b3360009081526003602090815260408083206001600160a01b0395909516835293905291909120805460ff1916911515919091179055565b6101da6101ba366004610d93565b600360209081526000928352604080842090915290825290205460ff1681565b604051901515815260200161010f565b6101586101f8366004610d33565b600060208181529281526040808220909352908152205481565b610158610220366004610dc1565b60016020526000908152604090205481565b6101da610240366004610d33565b6105a3565b61012b610253366004610dda565b6105d8565b61026b610266366004610e7c565b6106e8565b60405161010f9190610f46565b61029f7f000000000000000000000000000000000000000000000000000000000000000081565b6040516001600160a01b03909116815260200161010f565b6102d96102c5366004610fce565b63bc197c8160e01b98975050505050505050565b6040516001600160e01b0319909116815260200161010f565b61029f7f000000000000000000000000000000000000000000000000000000000000000081565b6102d961032736600461108d565b63f23a6e6160e01b9695505050505050565b600083815260016020526040902054606090808410610368575050604080516000815260208101909152610439565b610372848261111f565b905080831115610380578092505b60008367ffffffffffffffff81111561039b5761039b610e66565b6040519080825280602002602001820160405280156103c4578160200160208202803683370190505b50905060005b84811015610434576000878152602081905260408120906103eb8389611132565b6103f6906001611132565b81526020019081526020016000205482828151811061041757610417611145565b60209081029190910101528061042c8161115b565b9150506103ca565b509150505b9392505050565b6001600160a01b038716600090815260036020908152604080832033845290915290205460ff1661048457604051635466d10160e11b815260040160405180910390fd5b866001600160a01b03167f00000000000000000000000000000000000000000000000000000000000000006001600160a01b0316636352211e886040518263ffffffff1660e01b81526004016104dc91815260200190565b602060405180830381865afa1580156104f9573d6000803e3d6000fd5b505050506040513d601f19601f8201168201806040525081019061051d9190611174565b6001600160a01b031614610544576040516330cd747160e01b815260040160405180910390fd5b610550878787876107cd565b61055c818785856109a4565b857fd38e0444e598b6aa97e72569ad21fcf864167f41fbe1a43ec177c273a1d120c58686868660405161059294939291906111c3565b60405180910390a250505050505050565b600082815260026020908152604080832084845290915281205480158015906105ce57506000198114155b9150505b92915050565b6040516331a9108f60e11b81526004810187905233906001600160a01b037f00000000000000000000000000000000000000000000000000000000000000001690636352211e90602401602060405180830381865afa15801561063f573d6000803e3d6000fd5b505050506040513d601f19601f820116820180604052508101906106639190611174565b6001600160a01b03161461068a576040516330cd747160e01b815260040160405180910390fd5b610696338787876107cd565b6106a2818785856109a4565b857fd38e0444e598b6aa97e72569ad21fcf864167f41fbe1a43ec177c273a1d120c5868686866040516106d894939291906111c3565b60405180910390a2505050505050565b805160609060008167ffffffffffffffff81111561070857610708610e66565b604051908082528060200260200182016040528015610731578160200160208202803683370190505b50905060005b828110156107c45760008681526002602052604081208651829088908590811061076357610763611145565b602002602001015181526020019081526020016000205490508060001415801561078f57506000198114155b8383815181106107a1576107a1611145565b9115156020928302919091019091015250806107bc8161115b565b915050610737565b50949350505050565b6000838152600160205260408120549082908167ffffffffffffffff8111156107f8576107f8610e66565b604051908082528060200260200182016040528015610821578160200160208202803683370190505b50905060005b828110156108e157600086868381811061084357610843611145565b905060200201359050610879600260008a8152602001908152602001600020600083815260200190815260200160002054610b59565b846108838161115b565b60008a81526020818152604080832084845282528083208690558c83526002825280832086845290915290208190558451909650600191508490849081106108cd576108cd611145565b602090810291909101015250600101610827565b506000198303610904576040516346b5535d60e11b815260040160405180910390fd5b6000868152600160205260409081902084905551631759616b60e11b81526001600160a01b037f00000000000000000000000000000000000000000000000000000000000000001690632eb2c2d690610969908a9030908a908a9088906004016111f5565b600060405180830381600087803b15801561098357600080fd5b505af1158015610997573d6000803e3d6000fd5b5050505050505050505050565b6000838152600160205260408120549082908167ffffffffffffffff8111156109cf576109cf610e66565b6040519080825280602002602001820160405280156109f8578160200160208202803683370190505b50905060005b82811015610af3576000868683818110610a1a57610a1a611145565b60008b815260026020908152604080832093820295909501358083529290529290922054919250610a4c905081610b8b565b858114610a8a576000898152602081815260408083208984528252808320548484528184208190558c84526002835281842090845290915290208190555b60008981526002602090815260408083208584528252808320600019908190558c84528383528184208a85529092529091205585610ac781611252565b9650506001848481518110610ade57610ade611145565b602090810291909101015250506001016109fe565b506000868152600160205260409081902084905551631759616b60e11b81526001600160a01b037f00000000000000000000000000000000000000000000000000000000000000001690632eb2c2d6906109699030908b908a908a9088906004016111f5565b8015801590610b6a57506000198114155b15610b885760405163d5a8211560e01b815260040160405180910390fd5b50565b80158015610b9a575060001981145b15610b88576040516392a27daf60e01b815260040160405180910390fd5b600080600060608486031215610bcd57600080fd5b505081359360208301359350604090920135919050565b600081518084526020808501945080840160005b83811015610c1457815187529582019590820190600101610bf8565b509495945050505050565b6020815260006104396020830184610be4565b6001600160a01b0381168114610b8857600080fd5b60008083601f840112610c5957600080fd5b50813567ffffffffffffffff811115610c7157600080fd5b6020830191508360208260051b8501011115610c8c57600080fd5b9250929050565b600080600080600080600060a0888a031215610cae57600080fd5b8735610cb981610c32565b965060208801359550604088013567ffffffffffffffff80821115610cdd57600080fd5b610ce98b838c01610c47565b909750955060608a0135915080821115610d0257600080fd5b50610d0f8a828b01610c47565b9094509250506080880135610d2381610c32565b8091505092959891949750929550565b60008060408385031215610d4657600080fd5b50508035926020909101359150565b60008060408385031215610d6857600080fd5b8235610d7381610c32565b915060208301358015158114610d8857600080fd5b809150509250929050565b60008060408385031215610da657600080fd5b8235610db181610c32565b91506020830135610d8881610c32565b600060208284031215610dd357600080fd5b5035919050565b60008060008060008060808789031215610df357600080fd5b86359550602087013567ffffffffffffffff80821115610e1257600080fd5b610e1e8a838b01610c47565b90975095506040890135915080821115610e3757600080fd5b50610e4489828a01610c47565b9094509250506060870135610e5881610c32565b809150509295509295509295565b634e487b7160e01b600052604160045260246000fd5b60008060408385031215610e8f57600080fd5b8235915060208084013567ffffffffffffffff80821115610eaf57600080fd5b818601915086601f830112610ec357600080fd5b813581811115610ed557610ed5610e66565b8060051b604051601f19603f83011681018181108582111715610efa57610efa610e66565b604052918252848201925083810185019189831115610f1857600080fd5b938501935b82851015610f3657843584529385019392850192610f1d565b8096505050505050509250929050565b6020808252825182820181905260009190848201906040850190845b81811015610f80578351151583529284019291840191600101610f62565b50909695505050505050565b60008083601f840112610f9e57600080fd5b50813567ffffffffffffffff811115610fb657600080fd5b602083019150836020828501011115610c8c57600080fd5b60008060008060008060008060a0898b031215610fea57600080fd5b8835610ff581610c32565b9750602089013561100581610c32565b9650604089013567ffffffffffffffff8082111561102257600080fd5b61102e8c838d01610c47565b909850965060608b013591508082111561104757600080fd5b6110538c838d01610c47565b909650945060808b013591508082111561106c57600080fd5b506110798b828c01610f8c565b999c989b5096995094979396929594505050565b60008060008060008060a087890312156110a657600080fd5b86356110b181610c32565b955060208701356110c181610c32565b94506040870135935060608701359250608087013567ffffffffffffffff8111156110eb57600080fd5b6110f789828a01610f8c565b979a9699509497509295939492505050565b634e487b7160e01b600052601160045260246000fd5b818103818111156105d2576105d2611109565b808201808211156105d2576105d2611109565b634e487b7160e01b600052603260045260246000fd5b60006001820161116d5761116d611109565b5060010190565b60006020828403121561118657600080fd5b815161043981610c32565b81835260006001600160fb1b038311156111aa57600080fd5b8260051b80836020870137939093016020019392505050565b6040815260006111d7604083018688611191565b82810360208401526111ea818587611191565b979650505050505050565b6001600160a01b0386811682528516602082015260a0604082018190526000906112229083018587611191565b82810360608401526112348185610be4565b83810360809094019390935250506000815260200195945050505050565b60008161126157611261611109565b50600019019056fea2646970667358221220cc74aaa6099a8d168861961f1910ccd157d28145b320e9b797466ca62637e43a64736f6c63430008110033",
    "linkReferences": {}
  },
  "methodIdentifiers": {
    "GBC()": "e8a43520",
    "LAB()": "9f2b03b6",
    "approve(address,bool)": "3d140d21",
    "get(uint256,uint256,uint256)": "0541c707",
    "isWearing(uint256,uint256)": "8f5cecbb",
    "isWearing(uint256,uint256[])": "99acf9fb",
    "itemsIndex(uint256,uint256)": "224e632e",
    "itemsOwned(uint256,uint256)": "67b1c3d6",
    "onERC1155BatchReceived(address,address,uint256[],uint256[],bytes)": "bc197c81",
    "onERC1155Received(address,address,uint256,uint256,bytes)": "f23a6e61",
    "ownedLength(uint256)": "6cafa74e",
    "pluginApproval(address,address)": "630accb6",
    "set(uint256,uint256[],uint256[],address)": "9160d92e",
    "setForAccount(address,uint256,uint256[],uint256[],address)": "15267cca"
  },
  "id": 5
}