{
  "abi": [
    {
      "inputs": [
        {
          "internalType": "contract Authority",
          "name": "authority",
          "type": "address"
        },
        {
          "internalType": "contract ERC721",
          "name": "token_",
          "type": "address"
        }
      ],
      "stateMutability": "nonpayable",
      "type": "constructor"
    },
    {
      "anonymous": false,
      "inputs": [
        {
          "indexed": true,
          "internalType": "address",
          "name": "user",
          "type": "address"
        },
        {
          "indexed": true,
          "internalType": "contract Authority",
          "name": "newAuthority",
          "type": "address"
        }
      ],
      "name": "AuthorityUpdated",
      "type": "event"
    },
    {
      "anonymous": false,
      "inputs": [
        {
          "indexed": true,
          "internalType": "address",
          "name": "operator",
          "type": "address"
        },
        {
          "indexed": true,
          "internalType": "address",
          "name": "account",
          "type": "address"
        },
        {
          "indexed": true,
          "internalType": "address",
          "name": "receiver",
          "type": "address"
        },
        {
          "indexed": false,
          "internalType": "uint256",
          "name": "amount",
          "type": "uint256"
        }
      ],
      "name": "Claim",
      "type": "event"
    },
    {
      "anonymous": false,
      "inputs": [
        {
          "indexed": true,
          "internalType": "address",
          "name": "depositor",
          "type": "address"
        },
        {
          "indexed": false,
          "internalType": "uint256",
          "name": "amount",
          "type": "uint256"
        }
      ],
      "name": "Deposit",
      "type": "event"
    },
    {
      "anonymous": false,
      "inputs": [
        {
          "indexed": true,
          "internalType": "address",
          "name": "user",
          "type": "address"
        },
        {
          "indexed": true,
          "internalType": "address",
          "name": "newOwner",
          "type": "address"
        }
      ],
      "name": "OwnershipTransferred",
      "type": "event"
    },
    {
      "inputs": [],
      "name": "authority",
      "outputs": [
        {
          "internalType": "contract Authority",
          "name": "",
          "type": "address"
        }
      ],
      "stateMutability": "view",
      "type": "function"
    },
    {
      "inputs": [
        {
          "internalType": "address",
          "name": "account",
          "type": "address"
        },
        {
          "internalType": "uint256[]",
          "name": "tokens",
          "type": "uint256[]"
        }
      ],
      "name": "claim",
      "outputs": [
        {
          "internalType": "uint256",
          "name": "",
          "type": "uint256"
        }
      ],
      "stateMutability": "nonpayable",
      "type": "function"
    },
    {
      "inputs": [],
      "name": "deposit",
      "outputs": [],
      "stateMutability": "payable",
      "type": "function"
    },
    {
      "inputs": [],
      "name": "epoch",
      "outputs": [
        {
          "internalType": "uint256",
          "name": "id",
          "type": "uint256"
        },
        {
          "internalType": "uint256",
          "name": "rewardPerToken",
          "type": "uint256"
        },
        {
          "internalType": "uint256",
          "name": "rest",
          "type": "uint256"
        }
      ],
      "stateMutability": "view",
      "type": "function"
    },
    {
      "inputs": [
        {
          "internalType": "uint256",
          "name": "",
          "type": "uint256"
        },
        {
          "internalType": "uint256",
          "name": "",
          "type": "uint256"
        }
      ],
      "name": "isTokenUsed",
      "outputs": [
        {
          "internalType": "bool",
          "name": "",
          "type": "bool"
        }
      ],
      "stateMutability": "view",
      "type": "function"
    },
    {
      "inputs": [],
      "name": "owner",
      "outputs": [
        {
          "internalType": "address",
          "name": "",
          "type": "address"
        }
      ],
      "stateMutability": "view",
      "type": "function"
    },
    {
      "inputs": [
        {
          "internalType": "contract Authority",
          "name": "newAuthority",
          "type": "address"
        }
      ],
      "name": "setAuthority",
      "outputs": [],
      "stateMutability": "nonpayable",
      "type": "function"
    },
    {
      "inputs": [],
      "name": "token",
      "outputs": [
        {
          "internalType": "contract ERC721",
          "name": "",
          "type": "address"
        }
      ],
      "stateMutability": "view",
      "type": "function"
    },
    {
      "inputs": [
        {
          "internalType": "address",
          "name": "newOwner",
          "type": "address"
        }
      ],
      "name": "transferOwnership",
      "outputs": [],
      "stateMutability": "nonpayable",
      "type": "function"
    }
  ],
  "bytecode": {
    "object": "0x60a060405234801561001057600080fd5b50604051610b3d380380610b3d83398101604081905261002f916100e5565b600080546001600160a01b03199081168255600180549091166001600160a01b0385161790556040518390829033907f8be0079c531659141344cd1fd0a4f28419497f9722a3daafe3b4186f6b6457e0908390a36040516001600160a01b0382169033907fa3396fd7f6e0a21b50e5089d2da70d5ac0a3bbbd1f617a93f134b7638998019890600090a350506001600160a01b03166080525061011f565b6001600160a01b03811681146100e257600080fd5b50565b600080604083850312156100f857600080fd5b8251610103816100cd565b6020840151909250610114816100cd565b809150509250929050565b6080516109fc610141600039600081816101f7015261051401526109fc6000f3fe6080604052600436106100865760003560e01c8063bf7e214f11610059578063bf7e214f14610152578063d0e30db014610172578063e7810a291461017a578063f2fde38b146101c5578063fc0c546a146101e557600080fd5b8063457182781461008b5780637a9e5e4b146100be5780638da5cb5b146100e0578063900cf0cf14610118575b600080fd5b34801561009757600080fd5b506100ab6100a63660046107a1565b610219565b6040519081526020015b60405180910390f35b3480156100ca57600080fd5b506100de6100d9366004610874565b61026a565b005b3480156100ec57600080fd5b50600054610100906001600160a01b031681565b6040516001600160a01b0390911681526020016100b5565b34801561012457600080fd5b5060035460045460055461013792919083565b604080519384526020840192909252908201526060016100b5565b34801561015e57600080fd5b50600154610100906001600160a01b031681565b6100de610354565b34801561018657600080fd5b506101b5610195366004610898565b600260209081526000928352604080842090915290825290205460ff1681565b60405190151581526020016100b5565b3480156101d157600080fd5b506100de6101e0366004610874565b610391565b3480156101f157600080fd5b506101007f000000000000000000000000000000000000000000000000000000000000000081565b6000610231336000356001600160e01b03191661040e565b6102565760405162461bcd60e51b815260040161024d906108ba565b60405180910390fd5b6102618333846104b8565b90505b92915050565b6000546001600160a01b03163314806102ff575060015460405163b700961360e01b81526001600160a01b039091169063b7009613906102be90339030906001600160e01b031960003516906004016108e0565b602060405180830381865afa1580156102db573d6000803e3d6000fd5b505050506040513d601f19601f820116820180604052508101906102ff919061090d565b61030857600080fd5b600180546001600160a01b0319166001600160a01b03831690811790915560405133907fa3396fd7f6e0a21b50e5089d2da70d5ac0a3bbbd1f617a93f134b7638998019890600090a350565b61036a336000356001600160e01b03191661040e565b6103865760405162461bcd60e51b815260040161024d906108ba565b61038f346106c9565b565b6103a7336000356001600160e01b03191661040e565b6103c35760405162461bcd60e51b815260040161024d906108ba565b600080546001600160a01b0319166001600160a01b0383169081178255604051909133917f8be0079c531659141344cd1fd0a4f28419497f9722a3daafe3b4186f6b6457e09190a350565b6001546000906001600160a01b03168015801590610498575060405163b700961360e01b81526001600160a01b0382169063b700961390610457908790309088906004016108e0565b602060405180830381865afa158015610474573d6000803e3d6000fd5b505050506040513d601f19601f82011682018060405250810190610498919061090d565b806104b057506000546001600160a01b038581169116145b949350505050565b604080516060810182526003548082526004546020830181905260055493830193909352600092835b85518110156106145760008682815181106104fe576104fe61092f565b60200260200101519050886001600160a01b03167f00000000000000000000000000000000000000000000000000000000000000006001600160a01b0316636352211e836040518263ffffffff1660e01b815260040161056091815260200190565b602060405180830381865afa15801561057d573d6000803e3d6000fd5b505050506040513d601f19601f820116820180604052508101906105a19190610945565b6001600160a01b0316146105b457600080fd5b600084815260026020908152604080832084845290915290205460ff16156105db57600080fd5b60008481526002602090815260408083208484529091529020805460ff191660011790556106098387610978565b9550506001016104e1565b50604080840180518690039081905284516003556020850151600455600555516001600160a01b0387169085156108fc029086906000818181858888f19350505050158015610667573d6000803e3d6000fd5b50856001600160a01b0316876001600160a01b0316336001600160a01b03167fc1405953cccdad6b442e266c84d66ad671e2534c6584f8e6ef92802f7ad294d5876040516106b791815260200190565b60405180910390a45050509392505050565b6040805160608101825260035481526004546020820152600554918101829052906000906106f79084610978565b8251909150826107068261098b565b9052506040820181905261071c612710826109a4565b6020830181905282516003556004556040808301516005555133907fe1fffcc4923d04b559f4d29a8bfc6cda04eb5b0d3c460751c2402c5c5cc9109c906107669086815260200190565b60405180910390a2505050565b6001600160a01b038116811461078857600080fd5b50565b634e487b7160e01b600052604160045260246000fd5b600080604083850312156107b457600080fd5b82356107bf81610773565b915060208381013567ffffffffffffffff808211156107dd57600080fd5b818601915086601f8301126107f157600080fd5b8135818111156108035761080361078b565b8060051b604051601f19603f830116810181811085821117156108285761082861078b565b60405291825284820192508381018501918983111561084657600080fd5b938501935b828510156108645784358452938501939285019261084b565b8096505050505050509250929050565b60006020828403121561088657600080fd5b813561089181610773565b9392505050565b600080604083850312156108ab57600080fd5b50508035926020909101359150565b6020808252600c908201526b15539055551213d49256915160a21b604082015260600190565b6001600160a01b0393841681529190921660208201526001600160e01b0319909116604082015260600190565b60006020828403121561091f57600080fd5b8151801515811461089157600080fd5b634e487b7160e01b600052603260045260246000fd5b60006020828403121561095757600080fd5b815161089181610773565b634e487b7160e01b600052601160045260246000fd5b8082018082111561026457610264610962565b60006001820161099d5761099d610962565b5060010190565b6000826109c157634e487b7160e01b600052601260045260246000fd5b50049056fea2646970667358221220ef0fc318104c3b8fd3e6fd52f76780e87e20a6fd85bc9c364f79410b59d92a3064736f6c63430008110033",
    "linkReferences": {}
  },
  "methodIdentifiers": {
    "authority()": "bf7e214f",
    "claim(address,uint256[])": "45718278",
    "deposit()": "d0e30db0",
    "epoch()": "900cf0cf",
    "isTokenUsed(uint256,uint256)": "e7810a29",
    "owner()": "8da5cb5b",
    "setAuthority(address)": "7a9e5e4b",
    "token()": "fc0c546a",
    "transferOwnership(address)": "f2fde38b"
  },
  "id": 8
}