{
  "abi": [
    {
      "inputs": [
        {
          "internalType": "address",
          "name": "_owner",
          "type": "address"
        },
        {
          "internalType": "contract Authority",
          "name": "_authority",
          "type": "address"
        }
      ],
      "stateMutability": "nonpayable",
      "type": "constructor"
    },
    {
      "anonymous": false,
      "inputs": [
        {
          "indexed": true,
          "internalType": "address",
          "name": "owner",
          "type": "address"
        },
        {
          "indexed": true,
          "internalType": "address",
          "name": "operator",
          "type": "address"
        },
        {
          "indexed": false,
          "internalType": "bool",
          "name": "approved",
          "type": "bool"
        }
      ],
      "name": "ApprovalForAll",
      "type": "event"
    },
    {
      "anonymous": false,
      "inputs": [
        {
          "indexed": true,
          "internalType": "address",
          "name": "user",
          "type": "address"
        },
        {
          "indexed": true,
          "internalType": "contract Authority",
          "name": "newAuthority",
          "type": "address"
        }
      ],
      "name": "AuthorityUpdated",
      "type": "event"
    },
    {
      "anonymous": false,
      "inputs": [
        {
          "indexed": true,
          "internalType": "address",
          "name": "user",
          "type": "address"
        },
        {
          "indexed": true,
          "internalType": "address",
          "name": "newOwner",
          "type": "address"
        }
      ],
      "name": "OwnershipTransferred",
      "type": "event"
    },
    {
      "anonymous": false,
      "inputs": [
        {
          "indexed": true,
          "internalType": "address",
          "name": "operator",
          "type": "address"
        },
        {
          "indexed": true,
          "internalType": "address",
          "name": "from",
          "type": "address"
        },
        {
          "indexed": true,
          "internalType": "address",
          "name": "to",
          "type": "address"
        },
        {
          "indexed": false,
          "internalType": "uint256[]",
          "name": "ids",
          "type": "uint256[]"
        },
        {
          "indexed": false,
          "internalType": "uint256[]",
          "name": "amounts",
          "type": "uint256[]"
        }
      ],
      "name": "TransferBatch",
      "type": "event"
    },
    {
      "anonymous": false,
      "inputs": [
        {
          "indexed": true,
          "internalType": "address",
          "name": "operator",
          "type": "address"
        },
        {
          "indexed": true,
          "internalType": "address",
          "name": "from",
          "type": "address"
        },
        {
          "indexed": true,
          "internalType": "address",
          "name": "to",
          "type": "address"
        },
        {
          "indexed": false,
          "internalType": "uint256",
          "name": "id",
          "type": "uint256"
        },
        {
          "indexed": false,
          "internalType": "uint256",
          "name": "amount",
          "type": "uint256"
        }
      ],
      "name": "TransferSingle",
      "type": "event"
    },
    {
      "anonymous": false,
      "inputs": [
        {
          "indexed": false,
          "internalType": "string",
          "name": "value",
          "type": "string"
        },
        {
          "indexed": true,
          "internalType": "uint256",
          "name": "id",
          "type": "uint256"
        }
      ],
      "name": "URI",
      "type": "event"
    },
    {
      "inputs": [],
      "name": "authority",
      "outputs": [
        {
          "internalType": "contract Authority",
          "name": "",
          "type": "address"
        }
      ],
      "stateMutability": "view",
      "type": "function"
    },
    {
      "inputs": [
        {
          "internalType": "address",
          "name": "",
          "type": "address"
        },
        {
          "internalType": "uint256",
          "name": "",
          "type": "uint256"
        }
      ],
      "name": "balanceOf",
      "outputs": [
        {
          "internalType": "uint256",
          "name": "",
          "type": "uint256"
        }
      ],
      "stateMutability": "view",
      "type": "function"
    },
    {
      "inputs": [
        {
          "internalType": "address[]",
          "name": "owners",
          "type": "address[]"
        },
        {
          "internalType": "uint256[]",
          "name": "ids",
          "type": "uint256[]"
        }
      ],
      "name": "balanceOfBatch",
      "outputs": [
        {
          "internalType": "uint256[]",
          "name": "balances",
          "type": "uint256[]"
        }
      ],
      "stateMutability": "view",
      "type": "function"
    },
    {
      "inputs": [
        {
          "internalType": "address",
          "name": "to",
          "type": "address"
        },
        {
          "internalType": "uint256[]",
          "name": "ids",
          "type": "uint256[]"
        },
        {
          "internalType": "uint256[]",
          "name": "amounts",
          "type": "uint256[]"
        }
      ],
      "name": "batchBurn",
      "outputs": [],
      "stateMutability": "nonpayable",
      "type": "function"
    },
    {
      "inputs": [
        {
          "internalType": "address",
          "name": "to",
          "type": "address"
        },
        {
          "internalType": "uint256[]",
          "name": "ids",
          "type": "uint256[]"
        },
        {
          "internalType": "uint256[]",
          "name": "amounts",
          "type": "uint256[]"
        },
        {
          "internalType": "bytes",
          "name": "data",
          "type": "bytes"
        }
      ],
      "name": "batchMint",
      "outputs": [],
      "stateMutability": "nonpayable",
      "type": "function"
    },
    {
      "inputs": [
        {
          "internalType": "address",
          "name": "to",
          "type": "address"
        },
        {
          "internalType": "uint256",
          "name": "id",
          "type": "uint256"
        },
        {
          "internalType": "uint256",
          "name": "amount",
          "type": "uint256"
        }
      ],
      "name": "burn",
      "outputs": [],
      "stateMutability": "nonpayable",
      "type": "function"
    },
    {
      "inputs": [
        {
          "internalType": "address",
          "name": "",
          "type": "address"
        },
        {
          "internalType": "address",
          "name": "",
          "type": "address"
        }
      ],
      "name": "isApprovedForAll",
      "outputs": [
        {
          "internalType": "bool",
          "name": "",
          "type": "bool"
        }
      ],
      "stateMutability": "view",
      "type": "function"
    },
    {
      "inputs": [
        {
          "internalType": "address",
          "name": "to",
          "type": "address"
        },
        {
          "internalType": "uint256",
          "name": "id",
          "type": "uint256"
        },
        {
          "internalType": "uint256",
          "name": "amount",
          "type": "uint256"
        },
        {
          "internalType": "bytes",
          "name": "data",
          "type": "bytes"
        }
      ],
      "name": "mint",
      "outputs": [],
      "stateMutability": "nonpayable",
      "type": "function"
    },
    {
      "inputs": [],
      "name": "owner",
      "outputs": [
        {
          "internalType": "address",
          "name": "",
          "type": "address"
        }
      ],
      "stateMutability": "view",
      "type": "function"
    },
    {
      "inputs": [
        {
          "internalType": "uint256",
          "name": "_tokenId",
          "type": "uint256"
        },
        {
          "internalType": "uint256",
          "name": "_salePrice",
          "type": "uint256"
        }
      ],
      "name": "royaltyInfo",
      "outputs": [
        {
          "internalType": "address",
          "name": "",
          "type": "address"
        },
        {
          "internalType": "uint256",
          "name": "",
          "type": "uint256"
        }
      ],
      "stateMutability": "view",
      "type": "function"
    },
    {
      "inputs": [
        {
          "internalType": "address",
          "name": "from",
          "type": "address"
        },
        {
          "internalType": "address",
          "name": "to",
          "type": "address"
        },
        {
          "internalType": "uint256[]",
          "name": "ids",
          "type": "uint256[]"
        },
        {
          "internalType": "uint256[]",
          "name": "amounts",
          "type": "uint256[]"
        },
        {
          "internalType": "bytes",
          "name": "data",
          "type": "bytes"
        }
      ],
      "name": "safeBatchTransferFrom",
      "outputs": [],
      "stateMutability": "nonpayable",
      "type": "function"
    },
    {
      "inputs": [
        {
          "internalType": "address",
          "name": "from",
          "type": "address"
        },
        {
          "internalType": "address",
          "name": "to",
          "type": "address"
        },
        {
          "internalType": "uint256",
          "name": "id",
          "type": "uint256"
        },
        {
          "internalType": "uint256",
          "name": "amount",
          "type": "uint256"
        },
        {
          "internalType": "bytes",
          "name": "data",
          "type": "bytes"
        }
      ],
      "name": "safeTransferFrom",
      "outputs": [],
      "stateMutability": "nonpayable",
      "type": "function"
    },
    {
      "inputs": [
        {
          "internalType": "address",
          "name": "operator",
          "type": "address"
        },
        {
          "internalType": "bool",
          "name": "approved",
          "type": "bool"
        }
      ],
      "name": "setApprovalForAll",
      "outputs": [],
      "stateMutability": "nonpayable",
      "type": "function"
    },
    {
      "inputs": [
        {
          "internalType": "contract Authority",
          "name": "newAuthority",
          "type": "address"
        }
      ],
      "name": "setAuthority",
      "outputs": [],
      "stateMutability": "nonpayable",
      "type": "function"
    },
    {
      "inputs": [
        {
          "internalType": "uint256",
          "name": "id",
          "type": "uint256"
        },
        {
          "internalType": "address",
          "name": "receiver",
          "type": "address"
        },
        {
          "internalType": "uint96",
          "name": "feeNumerator",
          "type": "uint96"
        }
      ],
      "name": "setRoyalty",
      "outputs": [],
      "stateMutability": "nonpayable",
      "type": "function"
    },
    {
      "inputs": [
        {
          "internalType": "address",
          "name": "receiver",
          "type": "address"
        },
        {
          "internalType": "uint96",
          "name": "feeNumerator",
          "type": "uint96"
        }
      ],
      "name": "setRoyalty",
      "outputs": [],
      "stateMutability": "nonpayable",
      "type": "function"
    },
    {
      "inputs": [
        {
          "internalType": "uint256",
          "name": "id",
          "type": "uint256"
        },
        {
          "internalType": "string",
          "name": "uri_",
          "type": "string"
        }
      ],
      "name": "setUri",
      "outputs": [],
      "stateMutability": "nonpayable",
      "type": "function"
    },
    {
      "inputs": [
        {
          "internalType": "string",
          "name": "uri_",
          "type": "string"
        }
      ],
      "name": "setUri",
      "outputs": [],
      "stateMutability": "nonpayable",
      "type": "function"
    },
    {
      "inputs": [
        {
          "internalType": "bytes4",
          "name": "interfaceId",
          "type": "bytes4"
        }
      ],
      "name": "supportsInterface",
      "outputs": [
        {
          "internalType": "bool",
          "name": "",
          "type": "bool"
        }
      ],
      "stateMutability": "pure",
      "type": "function"
    },
    {
      "inputs": [
        {
          "internalType": "address",
          "name": "newOwner",
          "type": "address"
        }
      ],
      "name": "transferOwnership",
      "outputs": [],
      "stateMutability": "nonpayable",
      "type": "function"
    },
    {
      "inputs": [
        {
          "internalType": "uint256",
          "name": "id",
          "type": "uint256"
        }
      ],
      "name": "uri",
      "outputs": [
        {
          "internalType": "string",
          "name": "",
          "type": "string"
        }
      ],
      "stateMutability": "view",
      "type": "function"
    }
  ],
  "bytecode": {
    "object": "0x60806040523480156200001157600080fd5b506040516200258c3803806200258c8339810160408190526200003491620000ea565b600280546001600160a01b038085166001600160a01b0319928316811790935560038054918516919092161790556040518391839133907f8be0079c531659141344cd1fd0a4f28419497f9722a3daafe3b4186f6b6457e090600090a36040516001600160a01b0382169033907fa3396fd7f6e0a21b50e5089d2da70d5ac0a3bbbd1f617a93f134b7638998019890600090a35050505062000129565b6001600160a01b0381168114620000e757600080fd5b50565b60008060408385031215620000fe57600080fd5b82516200010b81620000d1565b60208401519092506200011e81620000d1565b809150509250929050565b61245380620001396000396000f3fe608060405234801561001057600080fd5b50600436106101365760003560e01c80638da5cb5b116100b8578063bf7e214f1161007c578063bf7e214f146102e3578063e985e9c5146102f6578063f242432a14610324578063f2fde38b14610337578063f5298aca1461034a578063f6eb127a1461035d57600080fd5b80638da5cb5b1461026c5780638f2fc60b146102975780639b642de1146102aa578063a22cb465146102bd578063b48ab8b6146102d057600080fd5b80634e1273f4116100ff5780634e1273f414610200578063731133e914610220578063782f08ae146102335780637a9e5e4b1461024657806380c8d6901461025957600080fd5b8062fdd58e1461013b57806301ffc9a7146101765780630e89341c146101995780632a55205a146101b95780632eb2c2d6146101eb575b600080fd5b6101636101493660046116dd565b600060208181529281526040808220909352908152205481565b6040519081526020015b60405180910390f35b61018961018436600461171f565b610370565b604051901515815260200161016d565b6101ac6101a7366004611743565b6103dd565b60405161016d91906117a2565b6101cc6101c73660046117b5565b61051e565b604080516001600160a01b03909316835260208301919091520161016d565b6101fe6101f936600461185c565b6105cc565b005b61021361020e36600461191a565b610856565b60405161016d91906119c0565b6101fe61022e366004611a88565b610968565b6101fe610241366004611aea565b6109ac565b6101fe610254366004611b30565b610a71565b6101fe610267366004611b69565b610b5b565b60025461027f906001600160a01b031681565b6040516001600160a01b03909116815260200161016d565b6101fe6102a5366004611ba7565b610bbe565b6101fe6102b8366004611bdc565b610c12565b6101fe6102cb366004611c1e565b610c50565b6101fe6102de366004611cd6565b610cbc565b60035461027f906001600160a01b031681565b610189610304366004611d64565b600160209081526000928352604080842090915290825290205460ff1681565b6101fe610332366004611d92565b610cfa565b6101fe610345366004611b30565b610ef4565b6101fe610358366004611e0d565b610f72565b6101fe61036b366004611e42565b610faf565b600063152a902d60e11b6001600160e01b0319831614806103a157506301ffc9a760e01b6001600160e01b03198316145b806103bc5750636cdb3d1360e11b6001600160e01b03198316145b806103d757506303a24d0760e21b6001600160e01b03198316145b92915050565b6000818152600760205260408120805460609291906103fb90611eb7565b80601f016020809104026020016040519081016040528092919081815260200182805461042790611eb7565b80156104745780601f1061044957610100808354040283529160200191610474565b820191906000526020600020905b81548152906001019060200180831161045757829003601f168201915b5050505050905060008151111561048b5792915050565b6006805461049890611eb7565b80601f01602080910402602001604051908101604052809291908181526020018280546104c490611eb7565b80156105115780601f106104e657610100808354040283529160200191610511565b820191906000526020600020905b8154815290600101906020018083116104f457829003601f168201915b5050505050915050919050565b60008281526005602090815260408083208151808301909252546001600160a01b038116808352600160a01b9091046001600160601b03169282019290925282916105935750604080518082019091526004546001600160a01b0381168252600160a01b90046001600160601b031660208201525b6020810151600090612710906105b2906001600160601b031687611f07565b6105bc9190611f1e565b91519350909150505b9250929050565b8483146105f45760405162461bcd60e51b81526004016105eb90611f40565b60405180910390fd5b336001600160a01b038916148061062e57506001600160a01b038816600090815260016020908152604080832033845290915290205460ff165b61066b5760405162461bcd60e51b815260206004820152600e60248201526d1393d517d055551213d49256915160921b60448201526064016105eb565b60008060005b878110156107265788888281811061068b5761068b611f69565b9050602002013592508686828181106106a6576106a6611f69565b6001600160a01b038e16600090815260208181526040808320898452825282208054939091029490940135955085939250906106e3908490611f7f565b90915550506001600160a01b038a1660009081526020818152604080832086845290915281208054849290610719908490611f92565b9091555050600101610671565b50886001600160a01b03168a6001600160a01b0316336001600160a01b03167f4a39dc06d4c0dbc64b70af90fd698a233a518aa5d07e595d983b8c0526c8f7fb8b8b8b8b60405161077a9493929190611fd7565b60405180910390a46001600160a01b0389163b156108215760405163bc197c8160e01b808252906001600160a01b038b169063bc197c81906107ce9033908f908e908e908e908e908e908e90600401612027565b6020604051808303816000875af11580156107ed573d6000803e3d6000fd5b505050506040513d601f19601f82011682018060405250810190610811919061208b565b6001600160e01b0319161461082e565b6001600160a01b03891615155b61084a5760405162461bcd60e51b81526004016105eb906120a8565b50505050505050505050565b60608382146108775760405162461bcd60e51b81526004016105eb90611f40565b836001600160401b0381111561088f5761088f6119d3565b6040519080825280602002602001820160405280156108b8578160200160208202803683370190505b50905060005b8481101561095f576000808787848181106108db576108db611f69565b90506020020160208101906108f09190611b30565b6001600160a01b03166001600160a01b03168152602001908152602001600020600085858481811061092457610924611f69565b9050602002013581526020019081526020016000205482828151811061094c5761094c611f69565b60209081029190910101526001016108be565b50949350505050565b61097e336000356001600160e01b031916610fec565b61099a5760405162461bcd60e51b81526004016105eb906120d2565b6109a684848484611096565b50505050565b6109c2336000356001600160e01b031916610fec565b6109de5760405162461bcd60e51b81526004016105eb906120d2565b60008281526007602052604090206109f6828261213e565b508051600003610a3d57817f6bb7ff708619ba0610cba295a58592e0451dee2622938c8755667688daf3529b6006604051610a3191906121fd565b60405180910390a25050565b817f6bb7ff708619ba0610cba295a58592e0451dee2622938c8755667688daf3529b82604051610a3191906117a2565b5050565b6002546001600160a01b0316331480610b06575060035460405163b700961360e01b81526001600160a01b039091169063b700961390610ac590339030906001600160e01b03196000351690600401612288565b602060405180830381865afa158015610ae2573d6000803e3d6000fd5b505050506040513d601f19601f82011682018060405250810190610b0691906122b5565b610b0f57600080fd5b600380546001600160a01b0319166001600160a01b03831690811790915560405133907fa3396fd7f6e0a21b50e5089d2da70d5ac0a3bbbd1f617a93f134b7638998019890600090a350565b610b71336000356001600160e01b031916610fec565b610b8d5760405162461bcd60e51b81526004016105eb906120d2565b6001600160a01b038216610bae575050600090815260056020526040812055565b610bb98383836111d8565b505050565b610bd4336000356001600160e01b031916610fec565b610bf05760405162461bcd60e51b81526004016105eb906120d2565b6001600160a01b038216610c0857610a6d6000600455565b610a6d82826112a3565b610c28336000356001600160e01b031916610fec565b610c445760405162461bcd60e51b81526004016105eb906120d2565b6006610a6d828261213e565b3360008181526001602090815260408083206001600160a01b03871680855290835292819020805460ff191686151590811790915590519081529192917f17307eab39ab6107e8899845ad3d59bd9653f200f220920489ca2b5937696c31910160405180910390a35050565b610cd2336000356001600160e01b031916610fec565b610cee5760405162461bcd60e51b81526004016105eb906120d2565b6109a68484848461135d565b336001600160a01b0387161480610d3457506001600160a01b038616600090815260016020908152604080832033845290915290205460ff165b610d715760405162461bcd60e51b815260206004820152600e60248201526d1393d517d055551213d49256915160921b60448201526064016105eb565b6001600160a01b03861660009081526020818152604080832087845290915281208054859290610da2908490611f7f565b90915550506001600160a01b03851660009081526020818152604080832087845290915281208054859290610dd8908490611f92565b909155505060408051858152602081018590526001600160a01b03808816929089169133917fc3d58168c5ae7397731d063d5bbf3d657854427343f4c083240f7aacaa2d0f62910160405180910390a46001600160a01b0385163b15610ec35760405163f23a6e6160e01b808252906001600160a01b0387169063f23a6e6190610e709033908b908a908a908a908a906004016122d2565b6020604051808303816000875af1158015610e8f573d6000803e3d6000fd5b505050506040513d601f19601f82011682018060405250810190610eb3919061208b565b6001600160e01b03191614610ed0565b6001600160a01b03851615155b610eec5760405162461bcd60e51b81526004016105eb906120a8565b505050505050565b610f0a336000356001600160e01b031916610fec565b610f265760405162461bcd60e51b81526004016105eb906120d2565b600280546001600160a01b0319166001600160a01b03831690811790915560405133907f8be0079c531659141344cd1fd0a4f28419497f9722a3daafe3b4186f6b6457e090600090a350565b610f88336000356001600160e01b031916610fec565b610fa45760405162461bcd60e51b81526004016105eb906120d2565b610bb9838383611531565b610fc5336000356001600160e01b031916610fec565b610fe15760405162461bcd60e51b81526004016105eb906120d2565b610bb98383836115b5565b6003546000906001600160a01b03168015801590611076575060405163b700961360e01b81526001600160a01b0382169063b70096139061103590879030908890600401612288565b602060405180830381865afa158015611052573d6000803e3d6000fd5b505050506040513d601f19601f8201168201806040525081019061107691906122b5565b8061108e57506002546001600160a01b038581169116145b949350505050565b6001600160a01b038416600090815260208181526040808320868452909152812080548492906110c7908490611f92565b909155505060408051848152602081018490526001600160a01b0386169160009133917fc3d58168c5ae7397731d063d5bbf3d657854427343f4c083240f7aacaa2d0f62910160405180910390a46001600160a01b0384163b156111af5760405163f23a6e6160e01b808252906001600160a01b0386169063f23a6e619061115c903390600090899089908990600401612319565b6020604051808303816000875af115801561117b573d6000803e3d6000fd5b505050506040513d601f19601f8201168201806040525081019061119f919061208b565b6001600160e01b031916146111bc565b6001600160a01b03841615155b6109a65760405162461bcd60e51b81526004016105eb906120a8565b6127106001600160601b03821611156112035760405162461bcd60e51b81526004016105eb90612353565b6001600160a01b0382166112595760405162461bcd60e51b815260206004820152601b60248201527f455243323938313a20496e76616c696420706172616d6574657273000000000060448201526064016105eb565b6040805180820182526001600160a01b0393841681526001600160601b0392831660208083019182526000968752600590529190942093519051909116600160a01b029116179055565b6127106001600160601b03821611156112ce5760405162461bcd60e51b81526004016105eb90612353565b6001600160a01b0382166113245760405162461bcd60e51b815260206004820152601960248201527f455243323938313a20696e76616c69642072656365697665720000000000000060448201526064016105eb565b604080518082019091526001600160a01b039092168083526001600160601b039091166020909201829052600160a01b90910217600455565b82518251811461137f5760405162461bcd60e51b81526004016105eb90611f40565b60005b8181101561140e5783818151811061139c5761139c611f69565b6020026020010151600080886001600160a01b03166001600160a01b0316815260200190815260200160002060008784815181106113dc576113dc611f69565b6020026020010151815260200190815260200160002060008282546114019190611f92565b9091555050600101611382565b50846001600160a01b031660006001600160a01b0316336001600160a01b03167f4a39dc06d4c0dbc64b70af90fd698a233a518aa5d07e595d983b8c0526c8f7fb878760405161145f92919061239d565b60405180910390a46001600160a01b0385163b156115015760405163bc197c8160e01b808252906001600160a01b0387169063bc197c81906114ae9033906000908a908a908a906004016123cb565b6020604051808303816000875af11580156114cd573d6000803e3d6000fd5b505050506040513d601f19601f820116820180604052508101906114f1919061208b565b6001600160e01b0319161461150e565b6001600160a01b03851615155b61152a5760405162461bcd60e51b81526004016105eb906120a8565b5050505050565b6001600160a01b03831660009081526020818152604080832085845290915281208054839290611562908490611f7f565b909155505060408051838152602081018390526000916001600160a01b0386169133917fc3d58168c5ae7397731d063d5bbf3d657854427343f4c083240f7aacaa2d0f62910160405180910390a4505050565b8151815181146115d75760405162461bcd60e51b81526004016105eb90611f40565b60005b81811015611666578281815181106115f4576115f4611f69565b6020026020010151600080876001600160a01b03166001600160a01b03168152602001908152602001600020600086848151811061163457611634611f69565b6020026020010151815260200190815260200160002060008282546116599190611f7f565b90915550506001016115da565b5060006001600160a01b0316846001600160a01b0316336001600160a01b03167f4a39dc06d4c0dbc64b70af90fd698a233a518aa5d07e595d983b8c0526c8f7fb86866040516116b792919061239d565b60405180910390a450505050565b6001600160a01b03811681146116da57600080fd5b50565b600080604083850312156116f057600080fd5b82356116fb816116c5565b946020939093013593505050565b6001600160e01b0319811681146116da57600080fd5b60006020828403121561173157600080fd5b813561173c81611709565b9392505050565b60006020828403121561175557600080fd5b5035919050565b6000815180845260005b8181101561178257602081850181015186830182015201611766565b506000602082860101526020601f19601f83011685010191505092915050565b60208152600061173c602083018461175c565b600080604083850312156117c857600080fd5b50508035926020909101359150565b60008083601f8401126117e957600080fd5b5081356001600160401b0381111561180057600080fd5b6020830191508360208260051b85010111156105c557600080fd5b60008083601f84011261182d57600080fd5b5081356001600160401b0381111561184457600080fd5b6020830191508360208285010111156105c557600080fd5b60008060008060008060008060a0898b03121561187857600080fd5b8835611883816116c5565b97506020890135611893816116c5565b965060408901356001600160401b03808211156118af57600080fd5b6118bb8c838d016117d7565b909850965060608b01359150808211156118d457600080fd5b6118e08c838d016117d7565b909650945060808b01359150808211156118f957600080fd5b506119068b828c0161181b565b999c989b5096995094979396929594505050565b6000806000806040858703121561193057600080fd5b84356001600160401b038082111561194757600080fd5b611953888389016117d7565b9096509450602087013591508082111561196c57600080fd5b50611979878288016117d7565b95989497509550505050565b600081518084526020808501945080840160005b838110156119b557815187529582019590820190600101611999565b509495945050505050565b60208152600061173c6020830184611985565b634e487b7160e01b600052604160045260246000fd5b604051601f8201601f191681016001600160401b0381118282101715611a1157611a116119d3565b604052919050565b600082601f830112611a2a57600080fd5b81356001600160401b03811115611a4357611a436119d3565b611a56601f8201601f19166020016119e9565b818152846020838601011115611a6b57600080fd5b816020850160208301376000918101602001919091529392505050565b60008060008060808587031215611a9e57600080fd5b8435611aa9816116c5565b9350602085013592506040850135915060608501356001600160401b03811115611ad257600080fd5b611ade87828801611a19565b91505092959194509250565b60008060408385031215611afd57600080fd5b8235915060208301356001600160401b03811115611b1a57600080fd5b611b2685828601611a19565b9150509250929050565b600060208284031215611b4257600080fd5b813561173c816116c5565b80356001600160601b0381168114611b6457600080fd5b919050565b600080600060608486031215611b7e57600080fd5b833592506020840135611b90816116c5565b9150611b9e60408501611b4d565b90509250925092565b60008060408385031215611bba57600080fd5b8235611bc5816116c5565b9150611bd360208401611b4d565b90509250929050565b600060208284031215611bee57600080fd5b81356001600160401b03811115611c0457600080fd5b61108e84828501611a19565b80151581146116da57600080fd5b60008060408385031215611c3157600080fd5b8235611c3c816116c5565b91506020830135611c4c81611c10565b809150509250929050565b600082601f830112611c6857600080fd5b813560206001600160401b03821115611c8357611c836119d3565b8160051b611c928282016119e9565b9283528481018201928281019087851115611cac57600080fd5b83870192505b84831015611ccb57823582529183019190830190611cb2565b979650505050505050565b60008060008060808587031215611cec57600080fd5b8435611cf7816116c5565b935060208501356001600160401b0380821115611d1357600080fd5b611d1f88838901611c57565b94506040870135915080821115611d3557600080fd5b611d4188838901611c57565b93506060870135915080821115611d5757600080fd5b50611ade87828801611a19565b60008060408385031215611d7757600080fd5b8235611d82816116c5565b91506020830135611c4c816116c5565b60008060008060008060a08789031215611dab57600080fd5b8635611db6816116c5565b95506020870135611dc6816116c5565b9450604087013593506060870135925060808701356001600160401b03811115611def57600080fd5b611dfb89828a0161181b565b979a9699509497509295939492505050565b600080600060608486031215611e2257600080fd5b8335611e2d816116c5565b95602085013595506040909401359392505050565b600080600060608486031215611e5757600080fd5b8335611e62816116c5565b925060208401356001600160401b0380821115611e7e57600080fd5b611e8a87838801611c57565b93506040860135915080821115611ea057600080fd5b50611ead86828701611c57565b9150509250925092565b600181811c90821680611ecb57607f821691505b602082108103611eeb57634e487b7160e01b600052602260045260246000fd5b50919050565b634e487b7160e01b600052601160045260246000fd5b80820281158282048414176103d7576103d7611ef1565b600082611f3b57634e487b7160e01b600052601260045260246000fd5b500490565b6020808252600f908201526e0988a9c8ea890be9a92a69a82a8869608b1b604082015260600190565b634e487b7160e01b600052603260045260246000fd5b818103818111156103d7576103d7611ef1565b808201808211156103d7576103d7611ef1565b81835260006001600160fb1b03831115611fbe57600080fd5b8260051b80836020870137939093016020019392505050565b604081526000611feb604083018688611fa5565b8281036020840152611ccb818587611fa5565b81835281816020850137506000828201602090810191909152601f909101601f19169091010190565b6001600160a01b0389811682528816602082015260a060408201819052600090612054908301888a611fa5565b8281036060840152612067818789611fa5565b9050828103608084015261207c818587611ffe565b9b9a5050505050505050505050565b60006020828403121561209d57600080fd5b815161173c81611709565b60208082526010908201526f155394d0519157d49150d2541251539560821b604082015260600190565b6020808252600c908201526b15539055551213d49256915160a21b604082015260600190565b601f821115610bb957600081815260208120601f850160051c8101602086101561211f5750805b601f850160051c820191505b81811015610eec5782815560010161212b565b81516001600160401b03811115612157576121576119d3565b61216b816121658454611eb7565b846120f8565b602080601f8311600181146121a057600084156121885750858301515b600019600386901b1c1916600185901b178555610eec565b600085815260208120601f198616915b828110156121cf578886015182559484019460019091019084016121b0565b50858210156121ed5787850151600019600388901b60f8161c191681555b5050505050600190811b01905550565b600060208083526000845461221181611eb7565b80848701526040600180841660008114612232576001811461224c5761227a565b60ff1985168984015283151560051b89018301955061227a565b896000528660002060005b858110156122725781548b8201860152908301908801612257565b8a0184019650505b509398975050505050505050565b6001600160a01b0393841681529190921660208201526001600160e01b0319909116604082015260600190565b6000602082840312156122c757600080fd5b815161173c81611c10565b6001600160a01b03878116825286166020820152604081018590526060810184905260a06080820181905260009061230d9083018486611ffe565b98975050505050505050565b6001600160a01b03868116825285166020820152604081018490526060810183905260a060808201819052600090611ccb9083018461175c565b6020808252602a908201527f455243323938313a20726f79616c7479206665652077696c6c206578636565646040820152692073616c65507269636560b01b606082015260800190565b6040815260006123b06040830185611985565b82810360208401526123c28185611985565b95945050505050565b6001600160a01b0386811682528516602082015260a0604082018190526000906123f790830186611985565b82810360608401526124098186611985565b9050828103608084015261230d818561175c56fea264697066735822122076ec91bf83f520248ec0404c3a651196e2fce10115be443a941527b7dbd2a31764736f6c63430008110033",
    "linkReferences": {}
  },
  "methodIdentifiers": {
    "authority()": "bf7e214f",
    "balanceOf(address,uint256)": "00fdd58e",
    "balanceOfBatch(address[],uint256[])": "4e1273f4",
    "batchBurn(address,uint256[],uint256[])": "f6eb127a",
    "batchMint(address,uint256[],uint256[],bytes)": "b48ab8b6",
    "burn(address,uint256,uint256)": "f5298aca",
    "isApprovedForAll(address,address)": "e985e9c5",
    "mint(address,uint256,uint256,bytes)": "731133e9",
    "owner()": "8da5cb5b",
    "royaltyInfo(uint256,uint256)": "2a55205a",
    "safeBatchTransferFrom(address,address,uint256[],uint256[],bytes)": "2eb2c2d6",
    "safeTransferFrom(address,address,uint256,uint256,bytes)": "f242432a",
    "setApprovalForAll(address,bool)": "a22cb465",
    "setAuthority(address)": "7a9e5e4b",
    "setRoyalty(address,uint96)": "8f2fc60b",
    "setRoyalty(uint256,address,uint96)": "80c8d690",
    "setUri(string)": "9b642de1",
    "setUri(uint256,string)": "782f08ae",
    "supportsInterface(bytes4)": "01ffc9a7",
    "transferOwnership(address)": "f2fde38b",
    "uri(uint256)": "0e89341c"
  },
  "id": 6
}