{
  "abi": [
    {
      "inputs": [
        {
          "internalType": "uint256",
          "name": "_id",
          "type": "uint256"
        }
      ],
      "name": "request",
      "outputs": [
        {
          "internalType": "uint256",
          "name": "",
          "type": "uint256"
        }
      ],
      "stateMutability": "nonpayable",
      "type": "function"
    }
  ],
  "bytecode": {
    "object": "0x608060405234801561001057600080fd5b5060fe8061001f6000396000f3fe6080604052348015600f57600080fd5b506004361060285760003560e01c8063d845a4b314602d575b600080fd5b603c603836600460b0565b604e565b60405190815260200160405180910390f35b60405163ebe93caf60e01b815260048101829052602481018290526000908290339063ebe93caf90604401600060405180830381600087803b158015609257600080fd5b505af115801560a5573d6000803e3d6000fd5b509495945050505050565b60006020828403121560c157600080fd5b503591905056fea26469706673582212208b61e6214e25c12bae5b5e199452e4a9e6e087552e6937390a71309737092a3a64736f6c63430008110033",
    "linkReferences": {}
  },
  "methodIdentifiers": {
    "request(uint256)": "d845a4b3"
  },
  "id": 33
}