{
  "abi": [
    {
      "inputs": [],
      "name": "GBC",
      "outputs": [
        {
          "internalType": "address",
          "name": "",
          "type": "address"
        }
      ],
      "stateMutability": "view",
      "type": "function"
    }
  ],
  "bytecode": {
    "object": "0x6080604052348015600f57600080fd5b5060998061001e6000396000f3fe6080604052348015600f57600080fd5b506004361060285760003560e01c8063e8a4352014602d575b600080fd5b60477317f4baa9d35ee54ffbcb2608e20786473c7aa49f81565b6040516001600160a01b03909116815260200160405180910390f3fea2646970667358221220928d5adcf45f415a9aba17176927df5a15217d43f2e78c52a5afc0f24832429364736f6c63430008110033",
    "linkReferences": {}
  },
  "methodIdentifiers": {
    "GBC()": "e8a43520"
  },
  "id": 32
}