{
  "abi": [
    {
      "inputs": [
        {
          "internalType": "uint256",
          "name": "item_",
          "type": "uint256"
        },
        {
          "internalType": "uint208",
          "name": "totalMinted",
          "type": "uint208"
        },
        {
          "internalType": "address",
          "name": "_owner",
          "type": "address"
        },
        {
          "internalType": "contract GBCLab",
          "name": "lab_",
          "type": "address"
        },
        {
          "components": [
            {
              "internalType": "uint120",
              "name": "supply",
              "type": "uint120"
            },
            {
              "internalType": "uint208",
              "name": "cost",
              "type": "uint208"
            },
            {
              "internalType": "uint192",
              "name": "accountLimit",
              "type": "uint192"
            },
            {
              "internalType": "uint64",
              "name": "start",
              "type": "uint64"
            },
            {
              "internalType": "uint64",
              "name": "finish",
              "type": "uint64"
            }
          ],
          "internalType": "struct MintRule",
          "name": "_rule",
          "type": "tuple"
        }
      ],
      "stateMutability": "nonpayable",
      "type": "constructor"
    },
    {
      "inputs": [],
      "name": "InvalidPaidAmount",
      "type": "error"
    },
    {
      "inputs": [],
      "name": "MaxSupplyReached",
      "type": "error"
    },
    {
      "inputs": [],
      "name": "MaxWalletReached",
      "type": "error"
    },
    {
      "inputs": [],
      "name": "MintEnded",
      "type": "error"
    },
    {
      "inputs": [],
      "name": "MintNotStarted",
      "type": "error"
    },
    {
      "inputs": [],
      "name": "SaleCanceled",
      "type": "error"
    },
    {
      "anonymous": false,
      "inputs": [
        {
          "indexed": true,
          "internalType": "address",
          "name": "user",
          "type": "address"
        },
        {
          "indexed": true,
          "internalType": "contract Authority",
          "name": "newAuthority",
          "type": "address"
        }
      ],
      "name": "AuthorityUpdated",
      "type": "event"
    },
    {
      "anonymous": false,
      "inputs": [
        {
          "indexed": true,
          "internalType": "address",
          "name": "user",
          "type": "address"
        },
        {
          "indexed": true,
          "internalType": "address",
          "name": "newOwner",
          "type": "address"
        }
      ],
      "name": "OwnershipTransferred",
      "type": "event"
    },
    {
      "anonymous": false,
      "inputs": [
        {
          "indexed": true,
          "internalType": "address",
          "name": "payeer",
          "type": "address"
        },
        {
          "indexed": false,
          "internalType": "uint256",
          "name": "amount",
          "type": "uint256"
        }
      ],
      "name": "Paied",
      "type": "event"
    },
    {
      "anonymous": false,
      "inputs": [
        {
          "indexed": true,
          "internalType": "address",
          "name": "token",
          "type": "address"
        },
        {
          "indexed": true,
          "internalType": "address",
          "name": "to",
          "type": "address"
        },
        {
          "indexed": false,
          "internalType": "uint256",
          "name": "amount",
          "type": "uint256"
        }
      ],
      "name": "Rescue",
      "type": "event"
    },
    {
      "inputs": [],
      "name": "ACCOUNT_LIMIT",
      "outputs": [
        {
          "internalType": "uint192",
          "name": "",
          "type": "uint192"
        }
      ],
      "stateMutability": "view",
      "type": "function"
    },
    {
      "inputs": [],
      "name": "COST",
      "outputs": [
        {
          "internalType": "uint208",
          "name": "",
          "type": "uint208"
        }
      ],
      "stateMutability": "view",
      "type": "function"
    },
    {
      "inputs": [],
      "name": "FINISH",
      "outputs": [
        {
          "internalType": "uint64",
          "name": "",
          "type": "uint64"
        }
      ],
      "stateMutability": "view",
      "type": "function"
    },
    {
      "inputs": [],
      "name": "ITEM",
      "outputs": [
        {
          "internalType": "uint256",
          "name": "",
          "type": "uint256"
        }
      ],
      "stateMutability": "view",
      "type": "function"
    },
    {
      "inputs": [],
      "name": "LAB",
      "outputs": [
        {
          "internalType": "contract GBCLab",
          "name": "",
          "type": "address"
        }
      ],
      "stateMutability": "view",
      "type": "function"
    },
    {
      "inputs": [],
      "name": "RECEIVER",
      "outputs": [
        {
          "internalType": "address payable",
          "name": "",
          "type": "address"
        }
      ],
      "stateMutability": "view",
      "type": "function"
    },
    {
      "inputs": [],
      "name": "START",
      "outputs": [
        {
          "internalType": "uint64",
          "name": "",
          "type": "uint64"
        }
      ],
      "stateMutability": "view",
      "type": "function"
    },
    {
      "inputs": [],
      "name": "SUPPLY",
      "outputs": [
        {
          "internalType": "uint120",
          "name": "",
          "type": "uint120"
        }
      ],
      "stateMutability": "view",
      "type": "function"
    },
    {
      "inputs": [
        {
          "internalType": "address",
          "name": "",
          "type": "address"
        }
      ],
      "name": "accountMintCountOf",
      "outputs": [
        {
          "internalType": "uint256",
          "name": "",
          "type": "uint256"
        }
      ],
      "stateMutability": "view",
      "type": "function"
    },
    {
      "inputs": [],
      "name": "authority",
      "outputs": [
        {
          "internalType": "contract Authority",
          "name": "",
          "type": "address"
        }
      ],
      "stateMutability": "view",
      "type": "function"
    },
    {
      "inputs": [],
      "name": "cancel",
      "outputs": [],
      "stateMutability": "nonpayable",
      "type": "function"
    },
    {
      "inputs": [],
      "name": "canceled",
      "outputs": [
        {
          "internalType": "bool",
          "name": "",
          "type": "bool"
        }
      ],
      "stateMutability": "view",
      "type": "function"
    },
    {
      "inputs": [
        {
          "internalType": "uint120",
          "name": "amount",
          "type": "uint120"
        }
      ],
      "name": "mint",
      "outputs": [],
      "stateMutability": "payable",
      "type": "function"
    },
    {
      "inputs": [
        {
          "internalType": "address",
          "name": "to",
          "type": "address"
        },
        {
          "internalType": "uint120",
          "name": "amount",
          "type": "uint120"
        }
      ],
      "name": "mintFor",
      "outputs": [],
      "stateMutability": "payable",
      "type": "function"
    },
    {
      "inputs": [],
      "name": "owner",
      "outputs": [
        {
          "internalType": "address",
          "name": "",
          "type": "address"
        }
      ],
      "stateMutability": "view",
      "type": "function"
    },
    {
      "inputs": [
        {
          "internalType": "address payable",
          "name": "to",
          "type": "address"
        },
        {
          "internalType": "uint256",
          "name": "amount",
          "type": "uint256"
        }
      ],
      "name": "rescueTokens",
      "outputs": [],
      "stateMutability": "nonpayable",
      "type": "function"
    },
    {
      "inputs": [
        {
          "internalType": "contract ERC20",
          "name": "token",
          "type": "address"
        },
        {
          "internalType": "address",
          "name": "to",
          "type": "address"
        },
        {
          "internalType": "uint256",
          "name": "amount",
          "type": "uint256"
        }
      ],
      "name": "rescueTokens",
      "outputs": [],
      "stateMutability": "nonpayable",
      "type": "function"
    },
    {
      "inputs": [
        {
          "internalType": "contract Authority",
          "name": "newAuthority",
          "type": "address"
        }
      ],
      "name": "setAuthority",
      "outputs": [],
      "stateMutability": "nonpayable",
      "type": "function"
    },
    {
      "inputs": [],
      "name": "totalMinted",
      "outputs": [
        {
          "internalType": "uint208",
          "name": "",
          "type": "uint208"
        }
      ],
      "stateMutability": "view",
      "type": "function"
    },
    {
      "inputs": [
        {
          "internalType": "address",
          "name": "newOwner",
          "type": "address"
        }
      ],
      "name": "transferOwnership",
      "outputs": [],
      "stateMutability": "nonpayable",
      "type": "function"
    }
  ],
  "bytecode": {
    "object": "0x6101806040526003805460ff60d01b191690553480156200001f57600080fd5b506040516200129c3803806200129c8339810160408190526200004291620001f0565b8051602082015160408084015160608501516080860151600080546001600160a01b038b166001600160a01b0319918216811783556001805490921690915594519394929391928b928b928e928c9285928392909133907f8be0079c531659141344cd1fd0a4f28419497f9722a3daafe3b4186f6b6457e0908490a36040516001600160a01b0382169033907fa3396fd7f6e0a21b50e5089d2da70d5ac0a3bbbd1f617a93f134b7638998019890600090a35050506080919091526001600160a01b0390811660a0521660c0526001600160781b0395909516610100526001600160d01b0393841660e0526001600160c01b0392909216610120526001600160401b03908116610140521661016052600380546001600160d01b0319169190921617905550620002f79350505050565b80516001600160d01b03811681146200018a57600080fd5b919050565b6001600160a01b0381168114620001a557600080fd5b50565b80516001600160781b03811681146200018a57600080fd5b80516001600160c01b03811681146200018a57600080fd5b80516001600160401b03811681146200018a57600080fd5b60008060008060008587036101208112156200020b57600080fd5b865195506200021d6020880162000172565b945060408701516200022f816200018f565b606088015190945062000242816200018f565b925060a0607f19820112156200025757600080fd5b5060405160a081016001600160401b03811182821017156200028957634e487b7160e01b600052604160045260246000fd5b6040526200029a60808801620001a8565b8152620002aa60a0880162000172565b6020820152620002bd60c08801620001c0565b6040820152620002d060e08801620001d8565b6060820152620002e46101008801620001d8565b6080820152809150509295509295909350565b60805160a05160c05160e05161010051610120516101405161016051610f0762000395600039600081816101e301526109e60152600081816103b4015261099c015260008181610334015261095201526000818161043c0152610a7b0152600081816104080152610b1e0152600081816103800152610c460152600081816102c80152610bb20152600081816101810152610b6f0152610f076000f3fe60806040526004361061011f5760003560e01c8063a2309ff8116100a0578063bf8fbbd211610064578063bf8fbbd2146103f6578063c50497ae1461042a578063cea9d26f14610476578063ea8a1af014610496578063f2fde38b146104ab57600080fd5b8063a2309ff8146102ea578063a582a53414610322578063ad7430cc1461036e578063ba9a061a146103a2578063bf7e214f146103d657600080fd5b80637a9e5e4b116100e75780637a9e5e4b1461021e5780638b4051ff1461023e5780638da5cb5b1461026b5780639886791d146102a35780639f2b03b6146102b657600080fd5b80633ceff29a146101245780633f9942ff146101395780634f7efc451461016f57806357376198146101b157806372d193e2146101d1575b600080fd5b610137610132366004610cf9565b6104cb565b005b34801561014557600080fd5b5060035461015a90600160d01b900460ff1681565b60405190151581526020015b60405180910390f35b34801561017b57600080fd5b506101a37f000000000000000000000000000000000000000000000000000000000000000081565b604051908152602001610166565b3480156101bd57600080fd5b506101376101cc366004610d2e565b610514565b3480156101dd57600080fd5b506102057f000000000000000000000000000000000000000000000000000000000000000081565b60405167ffffffffffffffff9091168152602001610166565b34801561022a57600080fd5b50610137610239366004610d5a565b6105c2565b34801561024a57600080fd5b506101a3610259366004610d5a565b60026020526000908152604090205481565b34801561027757600080fd5b5060005461028b906001600160a01b031681565b6040516001600160a01b039091168152602001610166565b6101376102b1366004610d7e565b6106ac565b3480156102c257600080fd5b5061028b7f000000000000000000000000000000000000000000000000000000000000000081565b3480156102f657600080fd5b5060035461030a906001600160d01b031681565b6040516001600160d01b039091168152602001610166565b34801561032e57600080fd5b506103567f000000000000000000000000000000000000000000000000000000000000000081565b6040516001600160c01b039091168152602001610166565b34801561037a57600080fd5b5061028b7f000000000000000000000000000000000000000000000000000000000000000081565b3480156103ae57600080fd5b506102057f000000000000000000000000000000000000000000000000000000000000000081565b3480156103e257600080fd5b5060015461028b906001600160a01b031681565b34801561040257600080fd5b5061030a7f000000000000000000000000000000000000000000000000000000000000000081565b34801561043657600080fd5b5061045e7f000000000000000000000000000000000000000000000000000000000000000081565b6040516001600160781b039091168152602001610166565b34801561048257600080fd5b50610137610491366004610d99565b6106b9565b3480156104a257600080fd5b506101376107b1565b3480156104b757600080fd5b506101376104c6366004610d5a565b6107f8565b6104e1336000356001600160e01b031916610875565b6105065760405162461bcd60e51b81526004016104fd90610dda565b60405180910390fd5b6105108282610921565b5050565b61052a336000356001600160e01b031916610875565b6105465760405162461bcd60e51b81526004016104fd90610dda565b6040516001600160a01b0383169082156108fc029083906000818181858888f1935050505015801561057c573d6000803e3d6000fd5b506040518181526001600160a01b038316906000907fe01920728668d89f092ef9cb92036bad90964bb622eec508d2c3ffe1d582efb29060200160405180910390a35050565b6000546001600160a01b0316331480610657575060015460405163b700961360e01b81526001600160a01b039091169063b70096139061061690339030906001600160e01b03196000351690600401610e00565b602060405180830381865afa158015610633573d6000803e3d6000fd5b505050506040513d601f19601f820116820180604052508101906106579190610e2d565b61066057600080fd5b600180546001600160a01b0319166001600160a01b03831690811790915560405133907fa3396fd7f6e0a21b50e5089d2da70d5ac0a3bbbd1f617a93f134b7638998019890600090a350565b6106b63382610921565b50565b6106cf336000356001600160e01b031916610875565b6106eb5760405162461bcd60e51b81526004016104fd90610dda565b60405163a9059cbb60e01b81526001600160a01b0383811660048301526024820183905284169063a9059cbb906044016020604051808303816000875af115801561073a573d6000803e3d6000fd5b505050506040513d601f19601f8201168201806040525081019061075e9190610e2d565b50816001600160a01b0316836001600160a01b03167fe01920728668d89f092ef9cb92036bad90964bb622eec508d2c3ffe1d582efb2836040516107a491815260200190565b60405180910390a3505050565b6107c7336000356001600160e01b031916610875565b6107e35760405162461bcd60e51b81526004016104fd90610dda565b6003805460ff60d01b1916600160d01b179055565b61080e336000356001600160e01b031916610875565b61082a5760405162461bcd60e51b81526004016104fd90610dda565b600080546001600160a01b0319166001600160a01b0383169081178255604051909133917f8be0079c531659141344cd1fd0a4f28419497f9722a3daafe3b4186f6b6457e09190a350565b6001546000906001600160a01b031680158015906108ff575060405163b700961360e01b81526001600160a01b0382169063b7009613906108be90879030908890600401610e00565b602060405180830381865afa1580156108db573d6000803e3d6000fd5b505050506040513d601f19601f820116820180604052508101906108ff9190610e2d565b8061091757506000546001600160a01b038581169116145b9150505b92915050565b6001600160a01b03821660009081526002602052604081205461094e906001600160781b03841690610e65565b90507f00000000000000000000000000000000000000000000000000000000000000006001600160c01b031681111561099a57604051633ce8c2bd60e11b815260040160405180910390fd5b7f000000000000000000000000000000000000000000000000000000000000000067ffffffffffffffff1642116109e457604051630314872760e11b815260040160405180910390fd5b7f000000000000000000000000000000000000000000000000000000000000000067ffffffffffffffff16421115610a2f5760405163124212e560e21b815260040160405180910390fd5b600380546001600160781b0384169190600090610a569084906001600160d01b0316610e78565b82546101009290920a6001600160d01b038181021990931691831602179091556003547f00000000000000000000000000000000000000000000000000000000000000006001600160781b0316911611159050610ac65760405163d05cb60960e01b815260040160405180910390fd5b600354600160d01b900460ff1615610af157604051630943552b60e01b815260040160405180910390fd5b6001600160a01b0383166000908152600260205260409020819055610b50610b426001600160781b0384167f0000000000000000000000000000000000000000000000000000000000000000610e9f565b6001600160d01b0316610c13565b60405163731133e960e01b81526001600160a01b0384811660048301527f000000000000000000000000000000000000000000000000000000000000000060248301526001600160781b038416604483015260806064830152600060848301527f0000000000000000000000000000000000000000000000000000000000000000169063731133e99060a401600060405180830381600087803b158015610bf657600080fd5b505af1158015610c0a573d6000803e3d6000fd5b50505050505050565b348114610c3357604051633bc8b56760e21b815260040160405180910390fd5b80156106b6576040516001600160a01b037f0000000000000000000000000000000000000000000000000000000000000000169082156108fc029083906000818181858888f19350505050158015610c8f573d6000803e3d6000fd5b5060405181815233907f6ba9df9d92498f70e3ce503a61655f967479ba67129d4333e347a87c5c29b8949060200160405180910390a250565b6001600160a01b03811681146106b657600080fd5b80356001600160781b0381168114610cf457600080fd5b919050565b60008060408385031215610d0c57600080fd5b8235610d1781610cc8565b9150610d2560208401610cdd565b90509250929050565b60008060408385031215610d4157600080fd5b8235610d4c81610cc8565b946020939093013593505050565b600060208284031215610d6c57600080fd5b8135610d7781610cc8565b9392505050565b600060208284031215610d9057600080fd5b610d7782610cdd565b600080600060608486031215610dae57600080fd5b8335610db981610cc8565b92506020840135610dc981610cc8565b929592945050506040919091013590565b6020808252600c908201526b15539055551213d49256915160a21b604082015260600190565b6001600160a01b0393841681529190921660208201526001600160e01b0319909116604082015260600190565b600060208284031215610e3f57600080fd5b81518015158114610d7757600080fd5b634e487b7160e01b600052601160045260246000fd5b8082018082111561091b5761091b610e4f565b6001600160d01b03818116838216019080821115610e9857610e98610e4f565b5092915050565b6001600160d01b03828116828216818102831692918115828504821417610ec857610ec8610e4f565b5050509291505056fea264697066735822122047a3ee92748869cd7253573591688eb7a68c8d0c20caa5df613a9289871ca83e64736f6c63430008110033",
    "linkReferences": {}
  },
  "methodIdentifiers": {
    "ACCOUNT_LIMIT()": "a582a534",
    "COST()": "bf8fbbd2",
    "FINISH()": "72d193e2",
    "ITEM()": "4f7efc45",
    "LAB()": "9f2b03b6",
    "RECEIVER()": "ad7430cc",
    "START()": "ba9a061a",
    "SUPPLY()": "c50497ae",
    "accountMintCountOf(address)": "8b4051ff",
    "authority()": "bf7e214f",
    "cancel()": "ea8a1af0",
    "canceled()": "3f9942ff",
    "mint(uint120)": "9886791d",
    "mintFor(address,uint120)": "3ceff29a",
    "owner()": "8da5cb5b",
    "rescueTokens(address,address,uint256)": "cea9d26f",
    "rescueTokens(address,uint256)": "57376198",
    "setAuthority(address)": "7a9e5e4b",
    "totalMinted()": "a2309ff8",
    "transferOwnership(address)": "f2fde38b"
  },
  "id": 15
}