{
  "abi": [
    {
      "inputs": [
        {
          "internalType": "address",
          "name": "_for",
          "type": "address"
        }
      ],
      "name": "clientDeposit",
      "outputs": [],
      "stateMutability": "payable",
      "type": "function"
    },
    {
      "inputs": [
        {
          "internalType": "address",
          "name": "_to",
          "type": "address"
        },
        {
          "internalType": "uint256",
          "name": "_amount",
          "type": "uint256"
        }
      ],
      "name": "clientWithdrawTo",
      "outputs": [],
      "stateMutability": "nonpayable",
      "type": "function"
    },
    {
      "inputs": [
        {
          "internalType": "uint256",
          "name": "callbackGasLimit",
          "type": "uint256"
        },
        {
          "internalType": "uint256",
          "name": "confirmations",
          "type": "uint256"
        }
      ],
      "name": "request",
      "outputs": [
        {
          "internalType": "uint256",
          "name": "",
          "type": "uint256"
        }
      ],
      "stateMutability": "pure",
      "type": "function"
    },
    {
      "inputs": [
        {
          "internalType": "uint256",
          "name": "callbackGasLimit",
          "type": "uint256"
        }
      ],
      "name": "request",
      "outputs": [
        {
          "internalType": "uint256",
          "name": "",
          "type": "uint256"
        }
      ],
      "stateMutability": "pure",
      "type": "function"
    }
  ],
  "bytecode": {
    "object": "0x608060405234801561001057600080fd5b506101a7806100206000396000f3fe60806040526004361061003f5760003560e01c80632465f8f5146100445780634ffd2e43146100655780638bc802fb14610076578063d845a4b3146100ac575b600080fd5b34801561005057600080fd5b5061006361005f3660046100ea565b5050565b005b610063610073366004610114565b50565b34801561008257600080fd5b5061009a610091366004610136565b6101ad92915050565b60405190815260200160405180910390f35b3480156100b857600080fd5b5061009a6100c7366004610158565b506101ad90565b80356001600160a01b03811681146100e557600080fd5b919050565b600080604083850312156100fd57600080fd5b610106836100ce565b946020939093013593505050565b60006020828403121561012657600080fd5b61012f826100ce565b9392505050565b6000806040838503121561014957600080fd5b50508035926020909101359150565b60006020828403121561016a57600080fd5b503591905056fea2646970667358221220d75f790ebc194f4c9767e77ffcd90265879ee8f7ebfa91ccd988a4a1750b22c164736f6c63430008110033",
    "linkReferences": {}
  },
  "methodIdentifiers": {
    "clientDeposit(address)": "4ffd2e43",
    "clientWithdrawTo(address,uint256)": "2465f8f5",
    "request(uint256)": "d845a4b3",
    "request(uint256,uint256)": "8bc802fb"
  },
  "id": 21
}