{
  "abi": [
    {
      "inputs": [
        {
          "internalType": "contract RolesAuthority",
          "name": "_authority",
          "type": "address"
        },
        {
          "internalType": "address",
          "name": "_randomizerAddress",
          "type": "address"
        }
      ],
      "stateMutability": "nonpayable",
      "type": "constructor"
    },
    {
      "inputs": [],
      "name": "AlreadyParticipated",
      "type": "error"
    },
    {
      "inputs": [],
      "name": "AlreadyWithdrawn",
      "type": "error"
    },
    {
      "inputs": [],
      "name": "CallerNotRandomizer",
      "type": "error"
    },
    {
      "inputs": [],
      "name": "EndTimeMustBeInFuture",
      "type": "error"
    },
    {
      "inputs": [],
      "name": "EventAlreadyExists",
      "type": "error"
    },
    {
      "inputs": [],
      "name": "EventNotActive",
      "type": "error"
    },
    {
      "inputs": [],
      "name": "EventNotClosed",
      "type": "error"
    },
    {
      "inputs": [],
      "name": "EventNotDecided",
      "type": "error"
    },
    {
      "inputs": [],
      "name": "EventNotDecidedOrFailed",
      "type": "error"
    },
    {
      "inputs": [],
      "name": "EventNotFailed",
      "type": "error"
    },
    {
      "inputs": [],
      "name": "IncorrectDepositAmount",
      "type": "error"
    },
    {
      "inputs": [],
      "name": "InvalidRandomizerId",
      "type": "error"
    },
    {
      "inputs": [],
      "name": "MarkedTokenAlreadyUsed",
      "type": "error"
    },
    {
      "inputs": [],
      "name": "NotMarkOwner",
      "type": "error"
    },
    {
      "inputs": [],
      "name": "ParticipantNotInEvent",
      "type": "error"
    },
    {
      "inputs": [],
      "name": "RandomNumberAlreadyRequested",
      "type": "error"
    },
    {
      "inputs": [],
      "name": "RandomizerCallbackAlreadyCalled",
      "type": "error"
    },
    {
      "inputs": [],
      "name": "SupplyMustBeGreaterThanZero",
      "type": "error"
    },
    {
      "anonymous": false,
      "inputs": [
        {
          "indexed": true,
          "internalType": "address",
          "name": "user",
          "type": "address"
        },
        {
          "indexed": true,
          "internalType": "contract Authority",
          "name": "newAuthority",
          "type": "address"
        }
      ],
      "name": "AuthorityUpdated",
      "type": "event"
    },
    {
      "anonymous": false,
      "inputs": [
        {
          "indexed": true,
          "internalType": "bytes32",
          "name": "eventId",
          "type": "bytes32"
        },
        {
          "indexed": false,
          "internalType": "address",
          "name": "markToken",
          "type": "address"
        },
        {
          "indexed": false,
          "internalType": "address",
          "name": "rewardToken",
          "type": "address"
        },
        {
          "indexed": false,
          "internalType": "uint256",
          "name": "rewardTokenId",
          "type": "uint256"
        },
        {
          "indexed": false,
          "internalType": "uint256",
          "name": "supply",
          "type": "uint256"
        },
        {
          "indexed": false,
          "internalType": "uint256",
          "name": "price",
          "type": "uint256"
        },
        {
          "indexed": false,
          "internalType": "uint256",
          "name": "endTime",
          "type": "uint256"
        }
      ],
      "name": "EventCreation",
      "type": "event"
    },
    {
      "anonymous": false,
      "inputs": [
        {
          "indexed": true,
          "internalType": "address",
          "name": "user",
          "type": "address"
        },
        {
          "indexed": true,
          "internalType": "address",
          "name": "newOwner",
          "type": "address"
        }
      ],
      "name": "OwnershipTransferred",
      "type": "event"
    },
    {
      "anonymous": false,
      "inputs": [
        {
          "indexed": true,
          "internalType": "bytes32",
          "name": "eventId",
          "type": "bytes32"
        },
        {
          "indexed": true,
          "internalType": "address",
          "name": "participant",
          "type": "address"
        },
        {
          "indexed": false,
          "internalType": "uint256",
          "name": "markTokenId",
          "type": "uint256"
        }
      ],
      "name": "Participation",
      "type": "event"
    },
    {
      "anonymous": false,
      "inputs": [
        {
          "indexed": false,
          "internalType": "uint256",
          "name": "amount",
          "type": "uint256"
        }
      ],
      "name": "Received",
      "type": "event"
    },
    {
      "anonymous": false,
      "inputs": [
        {
          "indexed": true,
          "internalType": "uint256",
          "name": "_randomizerId",
          "type": "uint256"
        },
        {
          "indexed": true,
          "internalType": "bytes32",
          "name": "_currentEventId",
          "type": "bytes32"
        },
        {
          "indexed": false,
          "internalType": "address[]",
          "name": "_winners",
          "type": "address[]"
        }
      ],
      "name": "WinnersPicked",
      "type": "event"
    },
    {
      "anonymous": false,
      "inputs": [
        {
          "indexed": true,
          "internalType": "bytes32",
          "name": "eventId",
          "type": "bytes32"
        },
        {
          "indexed": true,
          "internalType": "address",
          "name": "participant",
          "type": "address"
        }
      ],
      "name": "Withdrawal",
      "type": "event"
    },
    {
      "inputs": [],
      "name": "authority",
      "outputs": [
        {
          "internalType": "contract Authority",
          "name": "",
          "type": "address"
        }
      ],
      "stateMutability": "view",
      "type": "function"
    },
    {
      "inputs": [
        {
          "internalType": "address",
          "name": "_markToken",
          "type": "address"
        },
        {
          "internalType": "address",
          "name": "_rewardToken",
          "type": "address"
        },
        {
          "internalType": "uint256",
          "name": "_rewardTokenId",
          "type": "uint256"
        },
        {
          "internalType": "uint256",
          "name": "_supply",
          "type": "uint256"
        },
        {
          "internalType": "uint256",
          "name": "_price",
          "type": "uint256"
        },
        {
          "internalType": "uint256",
          "name": "_endTime",
          "type": "uint256"
        }
      ],
      "name": "createEvent",
      "outputs": [
        {
          "internalType": "bytes32",
          "name": "_eventId",
          "type": "bytes32"
        }
      ],
      "stateMutability": "nonpayable",
      "type": "function"
    },
    {
      "inputs": [
        {
          "internalType": "bytes32",
          "name": "_eventId",
          "type": "bytes32"
        }
      ],
      "name": "executeAirdropForWinners",
      "outputs": [],
      "stateMutability": "nonpayable",
      "type": "function"
    },
    {
      "inputs": [
        {
          "internalType": "bytes32",
          "name": "_eventId",
          "type": "bytes32"
        }
      ],
      "name": "executeAirdropForWinnersAndRefundForLosers",
      "outputs": [],
      "stateMutability": "nonpayable",
      "type": "function"
    },
    {
      "inputs": [
        {
          "internalType": "bytes32",
          "name": "_eventId",
          "type": "bytes32"
        }
      ],
      "name": "executeRefundAllOnFailedEvent",
      "outputs": [],
      "stateMutability": "nonpayable",
      "type": "function"
    },
    {
      "inputs": [
        {
          "internalType": "bytes32",
          "name": "_eventId",
          "type": "bytes32"
        }
      ],
      "name": "executeRefundForLosers",
      "outputs": [],
      "stateMutability": "nonpayable",
      "type": "function"
    },
    {
      "inputs": [],
      "name": "fundRandomizer",
      "outputs": [],
      "stateMutability": "payable",
      "type": "function"
    },
    {
      "inputs": [
        {
          "internalType": "bytes32",
          "name": "eventId",
          "type": "bytes32"
        }
      ],
      "name": "getEventSettings",
      "outputs": [
        {
          "components": [
            {
              "internalType": "address",
              "name": "markToken",
              "type": "address"
            },
            {
              "internalType": "address",
              "name": "rewardToken",
              "type": "address"
            },
            {
              "internalType": "uint256",
              "name": "rewardTokenId",
              "type": "uint256"
            },
            {
              "internalType": "uint256",
              "name": "supply",
              "type": "uint256"
            },
            {
              "internalType": "uint256",
              "name": "price",
              "type": "uint256"
            },
            {
              "internalType": "uint256",
              "name": "endTime",
              "type": "uint256"
            }
          ],
          "internalType": "struct EventSettings",
          "name": "",
          "type": "tuple"
        }
      ],
      "stateMutability": "view",
      "type": "function"
    },
    {
      "inputs": [
        {
          "internalType": "bytes32",
          "name": "eventId",
          "type": "bytes32"
        }
      ],
      "name": "getParticipants",
      "outputs": [
        {
          "internalType": "address[]",
          "name": "",
          "type": "address[]"
        }
      ],
      "stateMutability": "view",
      "type": "function"
    },
    {
      "inputs": [
        {
          "internalType": "bytes32",
          "name": "_eventId",
          "type": "bytes32"
        }
      ],
      "name": "getRandomNumber",
      "outputs": [],
      "stateMutability": "nonpayable",
      "type": "function"
    },
    {
      "inputs": [
        {
          "internalType": "bytes32",
          "name": "eventId",
          "type": "bytes32"
        }
      ],
      "name": "getState",
      "outputs": [
        {
          "internalType": "enum State",
          "name": "",
          "type": "uint8"
        }
      ],
      "stateMutability": "view",
      "type": "function"
    },
    {
      "inputs": [
        {
          "internalType": "bytes32",
          "name": "eventId",
          "type": "bytes32"
        }
      ],
      "name": "getWinners",
      "outputs": [
        {
          "internalType": "address[]",
          "name": "",
          "type": "address[]"
        }
      ],
      "stateMutability": "view",
      "type": "function"
    },
    {
      "inputs": [
        {
          "internalType": "bytes32",
          "name": "eventId",
          "type": "bytes32"
        },
        {
          "internalType": "uint256",
          "name": "markTokenId",
          "type": "uint256"
        }
      ],
      "name": "isMarked",
      "outputs": [
        {
          "internalType": "bool",
          "name": "",
          "type": "bool"
        }
      ],
      "stateMutability": "view",
      "type": "function"
    },
    {
      "inputs": [
        {
          "internalType": "bytes32",
          "name": "eventId",
          "type": "bytes32"
        },
        {
          "internalType": "address",
          "name": "participant",
          "type": "address"
        }
      ],
      "name": "isParticipant",
      "outputs": [
        {
          "internalType": "bool",
          "name": "",
          "type": "bool"
        }
      ],
      "stateMutability": "view",
      "type": "function"
    },
    {
      "inputs": [],
      "name": "owner",
      "outputs": [
        {
          "internalType": "address",
          "name": "",
          "type": "address"
        }
      ],
      "stateMutability": "view",
      "type": "function"
    },
    {
      "inputs": [
        {
          "internalType": "bytes32",
          "name": "_eventId",
          "type": "bytes32"
        },
        {
          "internalType": "uint256",
          "name": "_markTokenId",
          "type": "uint256"
        }
      ],
      "name": "participate",
      "outputs": [],
      "stateMutability": "payable",
      "type": "function"
    },
    {
      "inputs": [],
      "name": "randomizer",
      "outputs": [
        {
          "internalType": "contract IRandomizer",
          "name": "",
          "type": "address"
        }
      ],
      "stateMutability": "view",
      "type": "function"
    },
    {
      "inputs": [
        {
          "internalType": "uint256",
          "name": "_id",
          "type": "uint256"
        },
        {
          "internalType": "bytes32",
          "name": "_value",
          "type": "bytes32"
        }
      ],
      "name": "randomizerCallback",
      "outputs": [],
      "stateMutability": "nonpayable",
      "type": "function"
    },
    {
      "inputs": [],
      "name": "randomizerCallbackGas",
      "outputs": [
        {
          "internalType": "uint256",
          "name": "",
          "type": "uint256"
        }
      ],
      "stateMutability": "view",
      "type": "function"
    },
    {
      "inputs": [
        {
          "internalType": "contract Authority",
          "name": "newAuthority",
          "type": "address"
        }
      ],
      "name": "setAuthority",
      "outputs": [],
      "stateMutability": "nonpayable",
      "type": "function"
    },
    {
      "inputs": [
        {
          "internalType": "address",
          "name": "newOwner",
          "type": "address"
        }
      ],
      "name": "transferOwnership",
      "outputs": [],
      "stateMutability": "nonpayable",
      "type": "function"
    },
    {
      "inputs": [
        {
          "internalType": "address",
          "name": "_randomizer",
          "type": "address"
        }
      ],
      "name": "updateRandomizer",
      "outputs": [],
      "stateMutability": "nonpayable",
      "type": "function"
    },
    {
      "inputs": [
        {
          "internalType": "uint256",
          "name": "_limit",
          "type": "uint256"
        }
      ],
      "name": "updateRandomizerCallbackGas",
      "outputs": [],
      "stateMutability": "nonpayable",
      "type": "function"
    },
    {
      "inputs": [
        {
          "internalType": "bytes32",
          "name": "_eventId",
          "type": "bytes32"
        },
        {
          "internalType": "address",
          "name": "_participant",
          "type": "address"
        }
      ],
      "name": "withdraw",
      "outputs": [],
      "stateMutability": "nonpayable",
      "type": "function"
    },
    {
      "inputs": [
        {
          "internalType": "bytes32",
          "name": "_eventId",
          "type": "bytes32"
        },
        {
          "internalType": "address[]",
          "name": "_participants",
          "type": "address[]"
        }
      ],
      "name": "withdrawMulti",
      "outputs": [],
      "stateMutability": "nonpayable",
      "type": "function"
    },
    {
      "inputs": [
        {
          "internalType": "uint256",
          "name": "_amount",
          "type": "uint256"
        }
      ],
      "name": "withdrawRandomizer",
      "outputs": [],
      "stateMutability": "nonpayable",
      "type": "function"
    },
    {
      "stateMutability": "payable",
      "type": "receive"
    }
  ],
  "bytecode": {
    "object": "0x60806040526001600255621e84806004553480156200001d57600080fd5b506040516200243d3803806200243d833981016040819052620000409162000176565b816001600160a01b0316638da5cb5b6040518163ffffffff1660e01b8152600401602060405180830381865afa1580156200007f573d6000803e3d6000fd5b505050506040513d601f19601f82011682018060405250810190620000a59190620001b5565b600080546001600160a01b03199081166001600160a01b0384811691821784556001805490931690871617909155604051859233917f8be0079c531659141344cd1fd0a4f28419497f9722a3daafe3b4186f6b6457e09190a36040516001600160a01b0382169033907fa3396fd7f6e0a21b50e5089d2da70d5ac0a3bbbd1f617a93f134b7638998019890600090a35050600380546001600160a01b0319166001600160a01b039290921691909117905550620001dc565b6001600160a01b03811681146200017357600080fd5b50565b600080604083850312156200018a57600080fd5b825162000197816200015d565b6020840151909250620001aa816200015d565b809150509250929050565b600060208284031215620001c857600080fd5b8151620001d5816200015d565b9392505050565b61225180620001ec6000396000f3fe6080604052600436106101855760003560e01c8063827fd07e116100d1578063cb923ccd1161008a578063ebe93caf11610064578063ebe93caf14610505578063f109ec4c14610525578063f10fb58414610564578063f2fde38b1461058457600080fd5b8063cb923ccd146104b2578063db7aff40146104d2578063dcfc4726146104f257600080fd5b8063827fd07e146103ca5780638da5cb5b146103ea578063bb73591514610422578063bf7e214f14610442578063c03634ff14610462578063c44a89231461048257600080fd5b8063359933a21161013e578063567fda0111610118578063567fda011461034a578063649ba0371461036a5780637170406a1461038a5780637a9e5e4b146103aa57600080fd5b8063359933a214610291578063374dd7e4146103065780634a61fc1e1461032a57600080fd5b8063019a2af7146101c457806309648a9d146101e65780630b0235be1461021c5780630b8d85bd146102495780631b258d501461026957806326feb1741461028957600080fd5b366101bf576040513481527fa8142743f8f70a4c26f3691cf4ed59718381fb2f18070ec52be1f1022d8555579060200160405180910390a1005b600080fd5b3480156101d057600080fd5b506101e46101df366004611dc1565b6105a4565b005b3480156101f257600080fd5b50610206610201366004611dc1565b6105e4565b6040516102139190611df0565b60405180910390f35b34801561022857600080fd5b5061023c610237366004611dc1565b610659565b6040516102139190611e18565b34801561025557600080fd5b506101e4610264366004611e7a565b6106c8565b34801561027557600080fd5b506101e4610284366004611e9e565b61071c565b6101e4610755565b34801561029d57600080fd5b506102b16102ac366004611dc1565b6107d0565b604051610213919081516001600160a01b0390811682526020808401519091169082015260408083015190820152606080830151908201526080808301519082015260a0918201519181019190915260c00190565b34801561031257600080fd5b5061031c60045481565b604051908152602001610213565b34801561033657600080fd5b5061023c610345366004611dc1565b610880565b34801561035657600080fd5b506101e4610365366004611dc1565b6108ed565b34801561037657600080fd5b506101e4610385366004611dc1565b610a10565b34801561039657600080fd5b506101e46103a5366004611ece565b610a25565b3480156103b657600080fd5b506101e46103c5366004611e7a565b610aa3565b3480156103d657600080fd5b506101e46103e5366004611dc1565b610b8d565b3480156103f657600080fd5b5060005461040a906001600160a01b031681565b6040516001600160a01b039091168152602001610213565b34801561042e57600080fd5b5061031c61043d366004611f4d565b610bbc565b34801561044e57600080fd5b5060015461040a906001600160a01b031681565b34801561046e57600080fd5b506101e461047d366004611dc1565b610dae565b34801561048e57600080fd5b506104a261049d366004611e9e565b610e81565b6040519015158152602001610213565b3480156104be57600080fd5b506101e46104cd366004611dc1565b610eb1565b3480156104de57600080fd5b506101e46104ed366004611dc1565b610fc1565b6101e4610500366004611fa6565b610ff0565b34801561051157600080fd5b506101e4610520366004611fa6565b611215565b34801561053157600080fd5b506104a2610540366004611fa6565b60009182526006602090815260408084209284526008909201905290205460ff1690565b34801561057057600080fd5b5060035461040a906001600160a01b031681565b34801561059057600080fd5b506101e461059f366004611e7a565b61153a565b6105ba336000356001600160e01b0319166115b7565b6105df5760405162461bcd60e51b81526004016105d690611fc8565b60405180910390fd5b600455565b6000818152600660205260408120600581015482036106065750600092915050565b600581015442101561061b5750600192915050565b600a8101541561062e5750600392915050565b60058101546106409062278d00612004565b4211156106505750600492915050565b50600292915050565b6000818152600660208181526040928390209091018054835181840281018401909452808452606093928301828280156106bc57602002820191906000526020600020905b81546001600160a01b0316815260019091019060200180831161069e575b50505050509050919050565b6106de336000356001600160e01b0319166115b7565b6106fa5760405162461bcd60e51b81526004016105d690611fc8565b600380546001600160a01b0319166001600160a01b0392909216919091179055565b60025460011461073e5760405162461bcd60e51b81526004016105d690612017565b6002805561074c8282611661565b50506001600255565b6002546001146107775760405162461bcd60e51b81526004016105d690612017565b600280556040513060248201526107c89060440160408051601f198184030181529190526020810180516001600160e01b0316634ffd2e4360e01b1790526003546001600160a01b03169034611813565b506001600255565b61081b6040518060c0016040528060006001600160a01b0316815260200160006001600160a01b03168152602001600081526020016000815260200160008152602001600081525090565b50600090815260066020908152604091829020825160c08101845281546001600160a01b03908116825260018301541692810192909252600281015492820192909252600382015460608201526004820154608082015260059091015460a082015290565b600081815260066020908152604091829020600a018054835181840281018401909452808452606093928301828280156106bc576020028201919060005260206000209081546001600160a01b0316815260019091019060200180831161069e5750505050509050919050565b60025460011461090f5760405162461bcd60e51b81526004016105d690612017565b60028055600461091e826105e4565b600481111561092f5761092f611dda565b1461094d576040516309ebdef960e11b815260040160405180910390fd5b6000818152600660205260408120905b6006820154811015610a065760008260060160000182815481106109835761098361203b565b60009182526020808320909101546001600160a01b0316808352600b860190915260409091205490915060ff16156109bb57506109f4565b6001600160a01b0381166000908152600b840160205260409020805460ff1916600117905560048301546109f29085908390611839565b505b806109fe81612051565b91505061095d565b5050600160025550565b610a1981611888565b610a2281611985565b50565b600254600114610a475760405162461bcd60e51b81526004016105d690612017565b6002805560005b81811015610a9857610a8684848484818110610a6c57610a6c61203b565b9050602002016020810190610a819190611e7a565b611661565b80610a9081612051565b915050610a4e565b505060016002555050565b6000546001600160a01b0316331480610b38575060015460405163b700961360e01b81526001600160a01b039091169063b700961390610af790339030906001600160e01b0319600035169060040161206a565b602060405180830381865afa158015610b14573d6000803e3d6000fd5b505050506040513d601f19601f82011682018060405250810190610b389190612097565b610b4157600080fd5b600180546001600160a01b0319166001600160a01b03831690811790915560405133907fa3396fd7f6e0a21b50e5089d2da70d5ac0a3bbbd1f617a93f134b7638998019890600090a350565b600254600114610baf5760405162461bcd60e51b81526004016105d690612017565b600280556107c881611888565b6000610bd4336000356001600160e01b0319166115b7565b610bf05760405162461bcd60e51b81526004016105d690611fc8565b600254600114610c125760405162461bcd60e51b81526004016105d690612017565b6002805583610c34576040516347fc732760e11b815260040160405180910390fd5b428211610c545760405163159ca18560e11b815260040160405180910390fd5b6040516bffffffffffffffffffffffff19606089811b8216602084015288901b16603482015260488101869052606881018590526088810184905260a8810183905260c80160408051601f19818403018152919052805160209091012090506000610cbe826105e4565b6004811115610ccf57610ccf611dda565b14610ced5760405163232cdbe760e11b815260040160405180910390fd5b60008181526006602090815260409182902080546001600160a01b03199081166001600160a01b038c81169182178455600184018054909316908c16908117909255600283018a9055600383018990556004830188905560058301879055845190815292830152918101879052606081018690526080810185905260a0810184905282907f182940573d43557dd777d1784483a1729658ddc4c93f939785641114704710529060c00160405180910390a25060016002559695505050505050565b610dc4336000356001600160e01b0319166115b7565b610de05760405162461bcd60e51b81526004016105d690611fc8565b600254600114610e025760405162461bcd60e51b81526004016105d690612017565b60028055600354604051632465f8f560e01b8152306004820152602481018390526001600160a01b0390911690632465f8f590604401600060405180830381600087803b158015610e5257600080fd5b505af1158015610e66573d6000803e3d6000fd5b50506000546107c892506001600160a01b0316905082611a7c565b60008281526006602090815260408083206001600160a01b038516845260070190915290205460ff165b92915050565b600254600114610ed35760405162461bcd60e51b81526004016105d690612017565b6002808055600082815260066020526040902060090190610ef3836105e4565b6004811115610f0457610f04611dda565b14610f2257604051636684501760e11b815260040160405180910390fd5b805415610f425760405163cf5bd85560e01b815260040160405180910390fd5b60058290556003546004805460405163d845a4b360e01b8152918201526001600160a01b039091169063d845a4b3906024016020604051808303816000875af1158015610f93573d6000803e3d6000fd5b505050506040513d601f19601f82011682018060405250810190610fb791906120b9565b9055506001600255565b600254600114610fe35760405162461bcd60e51b81526004016105d690612017565b600280556107c881611985565b6002546001146110125760405162461bcd60e51b81526004016105d690612017565b600280556000828152600660205260409020600161102f846105e4565b600481111561104057611040611dda565b1461105e576040516301e1837960e31b815260040160405180910390fd5b6004810154341461108257604051639ad7e28760e01b815260040160405180910390fd5b80546040516331a9108f60e11b81526004810184905233916001600160a01b031690636352211e90602401602060405180830381865afa1580156110ca573d6000803e3d6000fd5b505050506040513d601f19601f820116820180604052508101906110ee91906120d2565b6001600160a01b0316146111155760405163084eff3360e11b815260040160405180910390fd5b33600090815260078201602052604090205460ff1615611148576040516322ce1a0760e01b815260040160405180910390fd5b600082815260088201602052604090205460ff161561117a576040516327bd69af60e01b815260040160405180910390fd5b600681018054600180820183556000928352602080842090920180546001600160a01b031916339081179091558084526007850183526040808520805460ff1990811685179091558786526008870185529481902080549095169092179093555184815285917f610be20f88ad2726dbaabfa843e556e8d9f6f1b6a98a2894dc8d7ac215355a64910160405180910390a35050600160025550565b6003546001600160a01b031633146112405760405163d1d84b5760e01b815260040160405180910390fd5b60055460008181526007602052604090205460ff16151560010361127757604051630db0889160e31b815260040160405180910390fd5b6000818152600760209081526040808320805460ff1916600117905560069182905290912090810154600382015410611332576006810154600382015560005b600382015481101561132c57600682018054600a84019190839081106112df576112df61203b565b60009182526020808320909101548354600181018555938352912090910180546001600160a01b0319166001600160a01b039092169190911790558061132481612051565b9150506112b7565b506114ca565b60005b60038201548110156114c857600682015460009082906113569082906120ef565b60408051602081018990529081018590526060016040516020818303038152906040528051906020012060001c61138d9190612102565b6113979190612004565b905060008360060160000182815481106113b3576113b361203b565b6000918252602080832090910154600a8701805460018101825590845291832090910180546001600160a01b0319166001600160a01b039092169182179055600686018054919350908590811061140c5761140c61203b565b6000918252602090912001546006860180546001600160a01b03909216925083918690811061143d5761143d61203b565b9060005260206000200160006101000a8154816001600160a01b0302191690836001600160a01b03160217905550808560060160000184815481106114845761148461203b565b9060005260206000200160006101000a8154816001600160a01b0302191690836001600160a01b0316021790555050505080806114c090612051565b915050611335565b505b600381015460048201546114f3916114e191612124565b6000546001600160a01b031690611a7c565b600554847f05bf07f0099f6d0d04d30977278cd0894d976cd2f3f23004922d9b3c9e63a03e8360090160010160405161152c919061213b565b60405180910390a350505050565b611550336000356001600160e01b0319166115b7565b61156c5760405162461bcd60e51b81526004016105d690611fc8565b600080546001600160a01b0319166001600160a01b0383169081178255604051909133917f8be0079c531659141344cd1fd0a4f28419497f9722a3daafe3b4186f6b6457e09190a350565b6001546000906001600160a01b03168015801590611641575060405163b700961360e01b81526001600160a01b0382169063b7009613906116009087903090889060040161206a565b602060405180830381865afa15801561161d573d6000803e3d6000fd5b505050506040513d601f19601f820116820180604052508101906116419190612097565b8061165957506000546001600160a01b038581169116145b949350505050565b60008281526006602090815260408083206001600160a01b0385168452600781019092529091205460ff166116a957604051638794287b60e01b815260040160405180910390fd5b6001600160a01b0382166000908152600b8201602052604090205460ff16156116e557604051636507689f60e01b815260040160405180910390fd5b6001600160a01b0382166000908152600b820160205260409020805460ff191660011790556003611715846105e4565b600481111561172657611726611dda565b036117c75760005b60038201548110156117af57826001600160a01b031682600901600101828154811061175c5761175c61203b565b6000918252602090912001546001600160a01b03160361179d576001820154600283015461179791869186916001600160a01b031690611b95565b50505050565b806117a781612051565b91505061172e565b506117c283838360000160040154611839565b505050565b60046117d2846105e4565b60048111156117e3576117e3611dda565b036117fa576117c283838360000160040154611839565b604051639edcf9d960e01b815260040160405180910390fd5b60606116598484846040518060600160405280602981526020016121f360299139611c48565b80156117c2576040516001600160a01b0383169084907f6653a45d3871e4110fa55dac0269f9f93a6d9078d402f7153594e50573d7f0cd90600090a36117c26001600160a01b03831682611a7c565b6003611893826105e4565b60048111156118a4576118a4611dda565b146118c257604051633d8b50af60e11b815260040160405180910390fd5b6000818152600660205260408120905b60038201548110156117c25760008260090160010182815481106118f8576118f861203b565b60009182526020808320909101546001600160a01b0316808352600b860190915260409091205490915060ff16156119305750611973565b6001600160a01b038082166000908152600b850160205260409020805460ff1916600190811790915584015460028501546119719287928592911690611b95565b505b8061197d81612051565b9150506118d2565b6003611990826105e4565b60048111156119a1576119a1611dda565b146119bf57604051633d8b50af60e11b815260040160405180910390fd5b600081815260066020526040902060038101545b60068201548110156117c25760008260060160000182815481106119f9576119f961203b565b60009182526020808320909101546001600160a01b0316808352600b860190915260409091205490915060ff1615611a315750611a6a565b6001600160a01b0381166000908152600b840160205260409020805460ff191660011790556004830154611a689085908390611839565b505b80611a7481612051565b9150506119d3565b80471015611acc5760405162461bcd60e51b815260206004820152601d60248201527f416464726573733a20696e73756666696369656e742062616c616e636500000060448201526064016105d6565b6000826001600160a01b03168260405160006040518083038185875af1925050503d8060008114611b19576040519150601f19603f3d011682016040523d82523d6000602084013e611b1e565b606091505b50509050806117c25760405162461bcd60e51b815260206004820152603a60248201527f416464726573733a20756e61626c6520746f2073656e642076616c75652c207260448201527f6563697069656e74206d6179206861766520726576657274656400000000000060648201526084016105d6565b6040516001600160a01b0384169085907f6653a45d3871e4110fa55dac0269f9f93a6d9078d402f7153594e50573d7f0cd90600090a360405163731133e960e01b81526001600160a01b0384811660048301526024820183905260016044830152608060648301526000608483015283169063731133e99060a401600060405180830381600087803b158015611c2a57600080fd5b505af1158015611c3e573d6000803e3d6000fd5b5050505050505050565b606082471015611ca95760405162461bcd60e51b815260206004820152602660248201527f416464726573733a20696e73756666696369656e742062616c616e636520666f6044820152651c8818d85b1b60d21b60648201526084016105d6565b600080866001600160a01b03168587604051611cc591906121a3565b60006040518083038185875af1925050503d8060008114611d02576040519150601f19603f3d011682016040523d82523d6000602084013e611d07565b606091505b5091509150611d1887838387611d23565b979650505050505050565b60608315611d92578251600003611d8b576001600160a01b0385163b611d8b5760405162461bcd60e51b815260206004820152601d60248201527f416464726573733a2063616c6c20746f206e6f6e2d636f6e747261637400000060448201526064016105d6565b5081611659565b6116598383815115611da75781518083602001fd5b8060405162461bcd60e51b81526004016105d691906121bf565b600060208284031215611dd357600080fd5b5035919050565b634e487b7160e01b600052602160045260246000fd5b6020810160058310611e1257634e487b7160e01b600052602160045260246000fd5b91905290565b6020808252825182820181905260009190848201906040850190845b81811015611e595783516001600160a01b031683529284019291840191600101611e34565b50909695505050505050565b6001600160a01b0381168114610a2257600080fd5b600060208284031215611e8c57600080fd5b8135611e9781611e65565b9392505050565b60008060408385031215611eb157600080fd5b823591506020830135611ec381611e65565b809150509250929050565b600080600060408486031215611ee357600080fd5b83359250602084013567ffffffffffffffff80821115611f0257600080fd5b818601915086601f830112611f1657600080fd5b813581811115611f2557600080fd5b8760208260051b8501011115611f3a57600080fd5b6020830194508093505050509250925092565b60008060008060008060c08789031215611f6657600080fd5b8635611f7181611e65565b95506020870135611f8181611e65565b95989597505050506040840135936060810135936080820135935060a0909101359150565b60008060408385031215611fb957600080fd5b50508035926020909101359150565b6020808252600c908201526b15539055551213d49256915160a21b604082015260600190565b634e487b7160e01b600052601160045260246000fd5b80820180821115610eab57610eab611fee565b6020808252600a90820152695245454e5452414e435960b01b604082015260600190565b634e487b7160e01b600052603260045260246000fd5b60006001820161206357612063611fee565b5060010190565b6001600160a01b0393841681529190921660208201526001600160e01b0319909116604082015260600190565b6000602082840312156120a957600080fd5b81518015158114611e9757600080fd5b6000602082840312156120cb57600080fd5b5051919050565b6000602082840312156120e457600080fd5b8151611e9781611e65565b81810381811115610eab57610eab611fee565b60008261211f57634e487b7160e01b600052601260045260246000fd5b500690565b8082028115828204841417610eab57610eab611fee565b6020808252825482820181905260008481528281209092916040850190845b81811015611e595783546001600160a01b03168352600193840193928501920161215a565b60005b8381101561219a578181015183820152602001612182565b50506000910152565b600082516121b581846020870161217f565b9190910192915050565b60208152600082518060208401526121de81604085016020870161217f565b601f01601f1916919091016040019291505056fe416464726573733a206c6f772d6c6576656c2063616c6c20776974682076616c7565206661696c6564a264697066735822122086a440b310c0366141dbbe369cdd44928faa767db0615790726ee08c9291415164736f6c63430008110033",
    "linkReferences": {}
  },
  "methodIdentifiers": {
    "authority()": "bf7e214f",
    "createEvent(address,address,uint256,uint256,uint256,uint256)": "bb735915",
    "executeAirdropForWinners(bytes32)": "827fd07e",
    "executeAirdropForWinnersAndRefundForLosers(bytes32)": "649ba037",
    "executeRefundAllOnFailedEvent(bytes32)": "567fda01",
    "executeRefundForLosers(bytes32)": "db7aff40",
    "fundRandomizer()": "26feb174",
    "getEventSettings(bytes32)": "359933a2",
    "getParticipants(bytes32)": "0b0235be",
    "getRandomNumber(bytes32)": "cb923ccd",
    "getState(bytes32)": "09648a9d",
    "getWinners(bytes32)": "4a61fc1e",
    "isMarked(bytes32,uint256)": "f109ec4c",
    "isParticipant(bytes32,address)": "c44a8923",
    "owner()": "8da5cb5b",
    "participate(bytes32,uint256)": "dcfc4726",
    "randomizer()": "f10fb584",
    "randomizerCallback(uint256,bytes32)": "ebe93caf",
    "randomizerCallbackGas()": "374dd7e4",
    "setAuthority(address)": "7a9e5e4b",
    "transferOwnership(address)": "f2fde38b",
    "updateRandomizer(address)": "0b8d85bd",
    "updateRandomizerCallbackGas(uint256)": "019a2af7",
    "withdraw(bytes32,address)": "1b258d50",
    "withdrawMulti(bytes32,address[])": "7170406a",
    "withdrawRandomizer(uint256)": "c03634ff"
  },
  "id": 1
}