{
  "abi": [
    {
      "inputs": [
        {
          "internalType": "string",
          "name": "name",
          "type": "string"
        },
        {
          "internalType": "string",
          "name": "symbol",
          "type": "string"
        },
        {
          "internalType": "string",
          "name": "baseTokenURI",
          "type": "string"
        }
      ],
      "stateMutability": "nonpayable",
      "type": "constructor"
    },
    {
      "anonymous": false,
      "inputs": [
        {
          "indexed": true,
          "internalType": "address",
          "name": "owner",
          "type": "address"
        },
        {
          "indexed": true,
          "internalType": "address",
          "name": "approved",
          "type": "address"
        },
        {
          "indexed": true,
          "internalType": "uint256",
          "name": "tokenId",
          "type": "uint256"
        }
      ],
      "name": "Approval",
      "type": "event"
    },
    {
      "anonymous": false,
      "inputs": [
        {
          "indexed": true,
          "internalType": "address",
          "name": "owner",
          "type": "address"
        },
        {
          "indexed": true,
          "internalType": "address",
          "name": "operator",
          "type": "address"
        },
        {
          "indexed": false,
          "internalType": "bool",
          "name": "approved",
          "type": "bool"
        }
      ],
      "name": "ApprovalForAll",
      "type": "event"
    },
    {
      "anonymous": false,
      "inputs": [
        {
          "indexed": true,
          "internalType": "address",
          "name": "previousOwner",
          "type": "address"
        },
        {
          "indexed": true,
          "internalType": "address",
          "name": "newOwner",
          "type": "address"
        }
      ],
      "name": "OwnershipTransferred",
      "type": "event"
    },
    {
      "anonymous": false,
      "inputs": [
        {
          "indexed": true,
          "internalType": "address",
          "name": "from",
          "type": "address"
        },
        {
          "indexed": true,
          "internalType": "address",
          "name": "to",
          "type": "address"
        },
        {
          "indexed": true,
          "internalType": "uint256",
          "name": "tokenId",
          "type": "uint256"
        }
      ],
      "name": "Transfer",
      "type": "event"
    },
    {
      "inputs": [],
      "name": "_baseTokenURI",
      "outputs": [
        {
          "internalType": "string",
          "name": "",
          "type": "string"
        }
      ],
      "stateMutability": "view",
      "type": "function"
    },
    {
      "inputs": [
        {
          "internalType": "uint256",
          "name": "_mintAmount",
          "type": "uint256"
        },
        {
          "internalType": "address",
          "name": "_to",
          "type": "address"
        }
      ],
      "name": "adminMint",
      "outputs": [],
      "stateMutability": "nonpayable",
      "type": "function"
    },
    {
      "inputs": [
        {
          "internalType": "address",
          "name": "to",
          "type": "address"
        },
        {
          "internalType": "uint256",
          "name": "tokenId",
          "type": "uint256"
        }
      ],
      "name": "approve",
      "outputs": [],
      "stateMutability": "nonpayable",
      "type": "function"
    },
    {
      "inputs": [
        {
          "internalType": "address",
          "name": "owner",
          "type": "address"
        }
      ],
      "name": "balanceOf",
      "outputs": [
        {
          "internalType": "uint256",
          "name": "",
          "type": "uint256"
        }
      ],
      "stateMutability": "view",
      "type": "function"
    },
    {
      "inputs": [
        {
          "internalType": "bytes",
          "name": "sig",
          "type": "bytes"
        }
      ],
      "name": "claim",
      "outputs": [],
      "stateMutability": "nonpayable",
      "type": "function"
    },
    {
      "inputs": [],
      "name": "cost",
      "outputs": [
        {
          "internalType": "uint256",
          "name": "",
          "type": "uint256"
        }
      ],
      "stateMutability": "view",
      "type": "function"
    },
    {
      "inputs": [],
      "name": "freezeBaseURI",
      "outputs": [],
      "stateMutability": "nonpayable",
      "type": "function"
    },
    {
      "inputs": [
        {
          "internalType": "uint256",
          "name": "tokenId",
          "type": "uint256"
        }
      ],
      "name": "getApproved",
      "outputs": [
        {
          "internalType": "address",
          "name": "",
          "type": "address"
        }
      ],
      "stateMutability": "view",
      "type": "function"
    },
    {
      "inputs": [
        {
          "internalType": "address",
          "name": "owner",
          "type": "address"
        },
        {
          "internalType": "address",
          "name": "operator",
          "type": "address"
        }
      ],
      "name": "isApprovedForAll",
      "outputs": [
        {
          "internalType": "bool",
          "name": "",
          "type": "bool"
        }
      ],
      "stateMutability": "view",
      "type": "function"
    },
    {
      "inputs": [
        {
          "internalType": "address",
          "name": "_address",
          "type": "address"
        }
      ],
      "name": "isBlacklisted",
      "outputs": [
        {
          "internalType": "bool",
          "name": "",
          "type": "bool"
        }
      ],
      "stateMutability": "view",
      "type": "function"
    },
    {
      "inputs": [],
      "name": "max",
      "outputs": [
        {
          "internalType": "uint256",
          "name": "",
          "type": "uint256"
        }
      ],
      "stateMutability": "view",
      "type": "function"
    },
    {
      "inputs": [],
      "name": "maxMintPerTx",
      "outputs": [
        {
          "internalType": "uint256",
          "name": "",
          "type": "uint256"
        }
      ],
      "stateMutability": "view",
      "type": "function"
    },
    {
      "inputs": [
        {
          "internalType": "uint256",
          "name": "_mintAmount",
          "type": "uint256"
        }
      ],
      "name": "mint",
      "outputs": [],
      "stateMutability": "payable",
      "type": "function"
    },
    {
      "inputs": [],
      "name": "name",
      "outputs": [
        {
          "internalType": "string",
          "name": "",
          "type": "string"
        }
      ],
      "stateMutability": "view",
      "type": "function"
    },
    {
      "inputs": [],
      "name": "owner",
      "outputs": [
        {
          "internalType": "address",
          "name": "",
          "type": "address"
        }
      ],
      "stateMutability": "view",
      "type": "function"
    },
    {
      "inputs": [
        {
          "internalType": "uint256",
          "name": "tokenId",
          "type": "uint256"
        }
      ],
      "name": "ownerOf",
      "outputs": [
        {
          "internalType": "address",
          "name": "",
          "type": "address"
        }
      ],
      "stateMutability": "view",
      "type": "function"
    },
    {
      "inputs": [],
      "name": "publicSaleStarted",
      "outputs": [
        {
          "internalType": "bool",
          "name": "",
          "type": "bool"
        }
      ],
      "stateMutability": "view",
      "type": "function"
    },
    {
      "inputs": [],
      "name": "renounceOwnership",
      "outputs": [],
      "stateMutability": "nonpayable",
      "type": "function"
    },
    {
      "inputs": [
        {
          "internalType": "address",
          "name": "from",
          "type": "address"
        },
        {
          "internalType": "address",
          "name": "to",
          "type": "address"
        },
        {
          "internalType": "uint256",
          "name": "tokenId",
          "type": "uint256"
        }
      ],
      "name": "safeTransferFrom",
      "outputs": [],
      "stateMutability": "nonpayable",
      "type": "function"
    },
    {
      "inputs": [
        {
          "internalType": "address",
          "name": "from",
          "type": "address"
        },
        {
          "internalType": "address",
          "name": "to",
          "type": "address"
        },
        {
          "internalType": "uint256",
          "name": "tokenId",
          "type": "uint256"
        },
        {
          "internalType": "bytes",
          "name": "data",
          "type": "bytes"
        }
      ],
      "name": "safeTransferFrom",
      "outputs": [],
      "stateMutability": "nonpayable",
      "type": "function"
    },
    {
      "inputs": [
        {
          "internalType": "address",
          "name": "operator",
          "type": "address"
        },
        {
          "internalType": "bool",
          "name": "approved",
          "type": "bool"
        }
      ],
      "name": "setApprovalForAll",
      "outputs": [],
      "stateMutability": "nonpayable",
      "type": "function"
    },
    {
      "inputs": [
        {
          "internalType": "string",
          "name": "uri",
          "type": "string"
        }
      ],
      "name": "setBaseTokenURI",
      "outputs": [],
      "stateMutability": "nonpayable",
      "type": "function"
    },
    {
      "inputs": [
        {
          "internalType": "uint256",
          "name": "price",
          "type": "uint256"
        }
      ],
      "name": "setCost",
      "outputs": [],
      "stateMutability": "nonpayable",
      "type": "function"
    },
    {
      "inputs": [
        {
          "internalType": "address",
          "name": "signer",
          "type": "address"
        }
      ],
      "name": "setWLSigner",
      "outputs": [],
      "stateMutability": "nonpayable",
      "type": "function"
    },
    {
      "inputs": [],
      "name": "startPublicSale",
      "outputs": [],
      "stateMutability": "nonpayable",
      "type": "function"
    },
    {
      "inputs": [],
      "name": "startWLMint",
      "outputs": [],
      "stateMutability": "nonpayable",
      "type": "function"
    },
    {
      "inputs": [
        {
          "internalType": "bytes4",
          "name": "interfaceId",
          "type": "bytes4"
        }
      ],
      "name": "supportsInterface",
      "outputs": [
        {
          "internalType": "bool",
          "name": "",
          "type": "bool"
        }
      ],
      "stateMutability": "view",
      "type": "function"
    },
    {
      "inputs": [],
      "name": "symbol",
      "outputs": [
        {
          "internalType": "string",
          "name": "",
          "type": "string"
        }
      ],
      "stateMutability": "view",
      "type": "function"
    },
    {
      "inputs": [
        {
          "internalType": "uint256",
          "name": "index",
          "type": "uint256"
        }
      ],
      "name": "tokenByIndex",
      "outputs": [
        {
          "internalType": "uint256",
          "name": "",
          "type": "uint256"
        }
      ],
      "stateMutability": "view",
      "type": "function"
    },
    {
      "inputs": [
        {
          "internalType": "address",
          "name": "owner",
          "type": "address"
        },
        {
          "internalType": "uint256",
          "name": "index",
          "type": "uint256"
        }
      ],
      "name": "tokenOfOwnerByIndex",
      "outputs": [
        {
          "internalType": "uint256",
          "name": "",
          "type": "uint256"
        }
      ],
      "stateMutability": "view",
      "type": "function"
    },
    {
      "inputs": [
        {
          "internalType": "uint256",
          "name": "tokenId",
          "type": "uint256"
        }
      ],
      "name": "tokenURI",
      "outputs": [
        {
          "internalType": "string",
          "name": "",
          "type": "string"
        }
      ],
      "stateMutability": "view",
      "type": "function"
    },
    {
      "inputs": [],
      "name": "tokenURIFrozen",
      "outputs": [
        {
          "internalType": "bool",
          "name": "",
          "type": "bool"
        }
      ],
      "stateMutability": "view",
      "type": "function"
    },
    {
      "inputs": [],
      "name": "totalSupply",
      "outputs": [
        {
          "internalType": "uint256",
          "name": "",
          "type": "uint256"
        }
      ],
      "stateMutability": "view",
      "type": "function"
    },
    {
      "inputs": [
        {
          "internalType": "address",
          "name": "from",
          "type": "address"
        },
        {
          "internalType": "address",
          "name": "to",
          "type": "address"
        },
        {
          "internalType": "uint256",
          "name": "tokenId",
          "type": "uint256"
        }
      ],
      "name": "transferFrom",
      "outputs": [],
      "stateMutability": "nonpayable",
      "type": "function"
    },
    {
      "inputs": [
        {
          "internalType": "address",
          "name": "newOwner",
          "type": "address"
        }
      ],
      "name": "transferOwnership",
      "outputs": [],
      "stateMutability": "nonpayable",
      "type": "function"
    },
    {
      "inputs": [
        {
          "internalType": "address",
          "name": "_owner",
          "type": "address"
        }
      ],
      "name": "walletOfOwner",
      "outputs": [
        {
          "internalType": "uint256[]",
          "name": "",
          "type": "uint256[]"
        }
      ],
      "stateMutability": "view",
      "type": "function"
    },
    {
      "inputs": [
        {
          "internalType": "uint256",
          "name": "_mintAmount",
          "type": "uint256"
        },
        {
          "internalType": "bytes",
          "name": "sig",
          "type": "bytes"
        }
      ],
      "name": "whitelistMint",
      "outputs": [],
      "stateMutability": "payable",
      "type": "function"
    },
    {
      "inputs": [
        {
          "internalType": "address",
          "name": "token",
          "type": "address"
        },
        {
          "internalType": "uint256",
          "name": "amount",
          "type": "uint256"
        }
      ],
      "name": "withdraw",
      "outputs": [],
      "stateMutability": "nonpayable",
      "type": "function"
    },
    {
      "inputs": [],
      "name": "wlMintStarted",
      "outputs": [
        {
          "internalType": "bool",
          "name": "",
          "type": "bool"
        }
      ],
      "stateMutability": "view",
      "type": "function"
    },
    {
      "inputs": [],
      "name": "wlSigner",
      "outputs": [
        {
          "internalType": "address",
          "name": "",
          "type": "address"
        }
      ],
      "stateMutability": "view",
      "type": "function"
    }
  ],
  "bytecode": {
    "object": "0x6080604052612710600d556014600e55600f805462ffffff19169055666a94d74f4300006010553480156200003357600080fd5b5060405162002f1338038062002f138339810160408190526200005691620001e4565b82826200006333620000c6565b600162000071838262000304565b50600262000080828262000304565b50600c9150620000939050828262000304565b50620000ab600b6200011660201b6200156d1760201c565b5050601180546001600160a01b0319163017905550620003d0565b600080546001600160a01b038381166001600160a01b0319831681178455604051919092169283917f8be0079c531659141344cd1fd0a4f28419497f9722a3daafe3b4186f6b6457e09190a35050565b80546001019055565b634e487b7160e01b600052604160045260246000fd5b600082601f8301126200014757600080fd5b81516001600160401b03808211156200016457620001646200011f565b604051601f8301601f19908116603f011681019082821181831017156200018f576200018f6200011f565b81604052838152602092508683858801011115620001ac57600080fd5b600091505b83821015620001d05785820183015181830184015290820190620001b1565b600093810190920192909252949350505050565b600080600060608486031215620001fa57600080fd5b83516001600160401b03808211156200021257600080fd5b620002208783880162000135565b945060208601519150808211156200023757600080fd5b620002458783880162000135565b935060408601519150808211156200025c57600080fd5b506200026b8682870162000135565b9150509250925092565b600181811c908216806200028a57607f821691505b602082108103620002ab57634e487b7160e01b600052602260045260246000fd5b50919050565b601f821115620002ff57600081815260208120601f850160051c81016020861015620002da5750805b601f850160051c820191505b81811015620002fb57828155600101620002e6565b5050505b505050565b81516001600160401b038111156200032057620003206200011f565b620003388162000331845462000275565b84620002b1565b602080601f831160018114620003705760008415620003575750858301515b600019600386901b1c1916600185901b178555620002fb565b600085815260208120601f198616915b82811015620003a15788860151825594840194600190910190840162000380565b5085821015620003c05787850151600019600388901b60f8161c191681555b5050505050600190811b01905550565b612b3380620003e06000396000f3fe60806040526004361061023b5760003560e01c80637e5f3e141161012e578063c63ff8dd116100ab578063e7bc82081161006f578063e7bc820814610669578063e985e9c51461067e578063f2fde38b146106c7578063f3fef3a3146106e7578063fe575a871461070757600080fd5b8063c63ff8dd146105de578063c87b56dd146105fe578063cfc86f7b1461061e578063dce042fd14610633578063de7fcb1d1461065357600080fd5b8063a0712d68116100f2578063a0712d6814610551578063a22cb46514610564578063a2e9147714610584578063b88d4fde1461059e578063c29de630146105be57600080fd5b80637e5f3e14146104d75780638da5cb5b146104ec578063927a5d211461050a57806395d89b41146105295780639e852f751461053e57600080fd5b80632f745c59116101bc5780634f6ccce7116101805780634f6ccce71461044c5780636352211e1461046c5780636ac5db191461048c57806370a08231146104a2578063715018a6146104c257600080fd5b80632f745c591461039f57806330176e13146103bf57806342842e0e146103df578063438b6300146103ff57806344a0d68a1461042c57600080fd5b80630c1c972a116102035780630c1c972a146103115780630dc28efe1461032657806313faede61461034657806318160ddd1461036a57806323b872dd1461037f57600080fd5b806301ffc9a7146102405780630399e3bc1461027557806306fdde0314610297578063081812fc146102b9578063095ea7b3146102f1575b600080fd5b34801561024c57600080fd5b5061026061025b3660046122f0565b610740565b60405190151581526020015b60405180910390f35b34801561028157600080fd5b50610295610290366004612329565b610751565b005b3480156102a357600080fd5b506102ac6107e5565b60405161026c9190612394565b3480156102c557600080fd5b506102d96102d43660046123a7565b610877565b6040516001600160a01b03909116815260200161026c565b3480156102fd57600080fd5b5061029561030c3660046123c0565b61089e565b34801561031d57600080fd5b506102956109b3565b34801561033257600080fd5b506102956103413660046123ea565b6109ca565b34801561035257600080fd5b5061035c60105481565b60405190815260200161026c565b34801561037657600080fd5b5060095461035c565b34801561038b57600080fd5b5061029561039a366004612416565b610a32565b3480156103ab57600080fd5b5061035c6103ba3660046123c0565b610a63565b3480156103cb57600080fd5b506102956103da3660046124de565b610af9565b3480156103eb57600080fd5b506102956103fa366004612416565b610b62565b34801561040b57600080fd5b5061041f61041a366004612329565b610b7d565b60405161026c9190612527565b34801561043857600080fd5b506102956104473660046123a7565b610c1f565b34801561045857600080fd5b5061035c6104673660046123a7565b610c2c565b34801561047857600080fd5b506102d96104873660046123a7565b610cbf565b34801561049857600080fd5b5061035c600d5481565b3480156104ae57600080fd5b5061035c6104bd366004612329565b610d1f565b3480156104ce57600080fd5b50610295610da5565b3480156104e357600080fd5b50610295610db9565b3480156104f857600080fd5b506000546001600160a01b03166102d9565b34801561051657600080fd5b50600f5461026090610100900460ff1681565b34801561053557600080fd5b506102ac610dd2565b61029561054c36600461258b565b610de1565b61029561055f3660046123a7565b611054565b34801561057057600080fd5b5061029561057f3660046125e0565b61117d565b34801561059057600080fd5b50600f546102609060ff1681565b3480156105aa57600080fd5b506102956105b9366004612617565b611188565b3480156105ca57600080fd5b50600f546102609062010000900460ff1681565b3480156105ea57600080fd5b506102956105f936600461267f565b6111c0565b34801561060a57600080fd5b506102ac6106193660046123a7565b611320565b34801561062a57600080fd5b506102ac611387565b34801561063f57600080fd5b506011546102d9906001600160a01b031681565b34801561065f57600080fd5b5061035c600e5481565b34801561067557600080fd5b50610295611415565b34801561068a57600080fd5b506102606106993660046126b4565b6001600160a01b03918216600090815260066020908152604080832093909416825291909152205460ff1690565b3480156106d357600080fd5b506102956106e2366004612329565b611430565b3480156106f357600080fd5b506102956107023660046123c0565b6114a9565b34801561071357600080fd5b50610260610722366004612329565b6001600160a01b031660009081526012602052604090205460ff1690565b600061074b82611576565b92915050565b61075961159b565b6001600160a01b0381166000036107c35760405162461bcd60e51b815260206004820152602360248201527f43616e27742073657420574c207369676e65722061732030783030206164647260448201526265737360e81b60648201526084015b60405180910390fd5b601180546001600160a01b0319166001600160a01b0392909216919091179055565b6060600180546107f4906126de565b80601f0160208091040260200160405190810160405280929190818152602001828054610820906126de565b801561086d5780601f106108425761010080835404028352916020019161086d565b820191906000526020600020905b81548152906001019060200180831161085057829003601f168201915b5050505050905090565b6000610882826115f5565b506000908152600560205260409020546001600160a01b031690565b60006108a982610cbf565b9050806001600160a01b0316836001600160a01b0316036109165760405162461bcd60e51b815260206004820152602160248201527f4552433732313a20617070726f76616c20746f2063757272656e74206f776e656044820152603960f91b60648201526084016107ba565b336001600160a01b038216148061093257506109328133610699565b6109a45760405162461bcd60e51b815260206004820152603d60248201527f4552433732313a20617070726f76652063616c6c6572206973206e6f7420746f60448201527f6b656e206f776e6572206f7220617070726f76656420666f7220616c6c00000060648201526084016107ba565b6109ae8383611654565b505050565b6109bb61159b565b600f805460ff19166001179055565b6109d261159b565b60015b8281116109ae57600d54600b541115610a005760405162461bcd60e51b81526004016107ba90612718565b610a1282610a0d600b5490565b6116c2565b610a20600b80546001019055565b80610a2a81612771565b9150506109d5565b610a3c338261185b565b610a585760405162461bcd60e51b81526004016107ba9061278a565b6109ae8383836118da565b6000610a6e83610d1f565b8210610ad05760405162461bcd60e51b815260206004820152602b60248201527f455243373231456e756d657261626c653a206f776e657220696e646578206f7560448201526a74206f6620626f756e647360a81b60648201526084016107ba565b506001600160a01b03919091166000908152600760209081526040808320938352929052205490565b610b0161159b565b600f5462010000900460ff1615610b525760405162461bcd60e51b81526020600482015260156024820152742a37b5b2b7102aa924b99030b93290333937bd32b760591b60448201526064016107ba565b600c610b5e8282612825565b5050565b6109ae83838360405180602001604052806000815250611188565b60606000610b8a83610d1f565b905060008167ffffffffffffffff811115610ba757610ba7612452565b604051908082528060200260200182016040528015610bd0578160200160208202803683370190505b50905060005b82811015610c1757610be88582610a63565b828281518110610bfa57610bfa6128e5565b602090810291909101015280610c0f81612771565b915050610bd6565b509392505050565b610c2761159b565b601055565b6000610c3760095490565b8210610c9a5760405162461bcd60e51b815260206004820152602c60248201527f455243373231456e756d657261626c653a20676c6f62616c20696e646578206f60448201526b7574206f6620626f756e647360a01b60648201526084016107ba565b60098281548110610cad57610cad6128e5565b90600052602060002001549050919050565b6000818152600360205260408120546001600160a01b03168061074b5760405162461bcd60e51b8152602060048201526018602482015277115490cdcc8c4e881a5b9d985b1a59081d1bdad95b88125160421b60448201526064016107ba565b60006001600160a01b038216610d895760405162461bcd60e51b815260206004820152602960248201527f4552433732313a2061646472657373207a65726f206973206e6f7420612076616044820152683634b21037bbb732b960b91b60648201526084016107ba565b506001600160a01b031660009081526004602052604090205490565b610dad61159b565b610db76000611a4b565b565b610dc161159b565b600f805461ff001916610100179055565b6060600280546107f4906126de565b600f5460ff161515600114610e385760405162461bcd60e51b815260206004820152601b60248201527f5075626c69632053616c65206e6f74207374617274656420796574000000000060448201526064016107ba565b600f5460ff610100909104161515600114610e8f5760405162461bcd60e51b815260206004820152601760248201527615d308135a5b9d081b9bdd081cdd185c9d1959081e595d604a1b60448201526064016107ba565b600e54821115610eb15760405162461bcd60e51b81526004016107ba906128fb565b610ebb8133611a9b565b1515600114610f055760405162461bcd60e51b815260206004820152601660248201527514da59db985d1d5c99481a5cc81b9bdd081d985b1a5960521b60448201526064016107ba565b3360009081526012602052604090205460ff1615610f775760405162461bcd60e51b815260206004820152602960248201527f546869732077686974656c697374656420616464726573732077617320616c726044820152681958591e481d5cd95960ba1b60648201526084016107ba565b610f82600183612945565b601054610f8f9190612958565b341015610fda5760405162461bcd60e51b8152602060048201526019602482015278139bdd08195b9bdd59da08195d1a195c881c1c9bdd9a591959603a1b60448201526064016107ba565b60015b82811161103557600d54600b5411156110085760405162461bcd60e51b81526004016107ba90612718565b611015335b600b546116c2565b611023600b80546001019055565b8061102d81612771565b915050610fdd565b5050336000908152601260205260409020805460ff1916600117905550565b600f5460ff1615156001146110ab5760405162461bcd60e51b815260206004820152601b60248201527f5075626c69632053616c65206e6f74207374617274656420796574000000000060448201526064016107ba565b600e548111156110cd5760405162461bcd60e51b81526004016107ba906128fb565b806010546110db9190612958565b3410156111265760405162461bcd60e51b8152602060048201526019602482015278139bdd08195b9bdd59da08195d1a195c881c1c9bdd9a591959603a1b60448201526064016107ba565b60015b818111610b5e57600d54600b5411156111545760405162461bcd60e51b81526004016107ba90612718565b61115d3361100d565b61116b600b80546001019055565b8061117581612771565b915050611129565b610b5e338383611b08565b611192338361185b565b6111ae5760405162461bcd60e51b81526004016107ba9061278a565b6111ba84848484611bd6565b50505050565b600f5460ff6101009091041615156001146112175760405162461bcd60e51b815260206004820152601760248201527615d308135a5b9d081b9bdd081cdd185c9d1959081e595d604a1b60448201526064016107ba565b6112218133611a9b565b15156001146112685760405162461bcd60e51b815260206004820152601360248201527214da59db985d1d5c99481b9bdd081d985b1a59606a1b60448201526064016107ba565b3360009081526012602052604090205460ff16156112c85760405162461bcd60e51b815260206004820152601d60248201527f5468697320616464726573732077617320616c7265616479207573656400000060448201526064016107ba565b600d54600b5411156112ec5760405162461bcd60e51b81526004016107ba90612718565b6112f53361100d565b611303600b80546001019055565b50336000908152601260205260409020805460ff19166001179055565b606061132b826115f5565b6000611335611c09565b905060008151116113555760405180602001604052806000815250611380565b8061135f84611c18565b60405160200161137092919061296f565b6040516020818303038152906040525b9392505050565b600c8054611394906126de565b80601f01602080910402602001604051908101604052809291908181526020018280546113c0906126de565b801561140d5780601f106113e25761010080835404028352916020019161140d565b820191906000526020600020905b8154815290600101906020018083116113f057829003601f168201915b505050505081565b61141d61159b565b600f805462ff0000191662010000179055565b61143861159b565b6001600160a01b03811661149d5760405162461bcd60e51b815260206004820152602660248201527f4f776e61626c653a206e6577206f776e657220697320746865207a65726f206160448201526564647265737360d01b60648201526084016107ba565b6114a681611a4b565b50565b6114b161159b565b6001600160a01b0382166114ec57604051339082156108fc029083906000818181858888f193505050501580156109ae573d6000803e3d6000fd5b6001600160a01b03821663a9059cbb336040516001600160e01b031960e084901b1681526001600160a01b039091166004820152602481018490526044016020604051808303816000875af1158015611549573d6000803e3d6000fd5b505050506040513d601f19601f820116820180604052508101906109ae919061299e565b80546001019055565b60006001600160e01b0319821663780e9d6360e01b148061074b575061074b82611cab565b6000546001600160a01b03163314610db75760405162461bcd60e51b815260206004820181905260248201527f4f776e61626c653a2063616c6c6572206973206e6f7420746865206f776e657260448201526064016107ba565b6000818152600360205260409020546001600160a01b03166114a65760405162461bcd60e51b8152602060048201526018602482015277115490cdcc8c4e881a5b9d985b1a59081d1bdad95b88125160421b60448201526064016107ba565b600081815260056020526040902080546001600160a01b0319166001600160a01b038416908117909155819061168982610cbf565b6001600160a01b03167f8c5be1e5ebec7d5bd14f71427d1e84f3dd0314c0f7b2291e5b200ac8c7c3b92560405160405180910390a45050565b6001600160a01b0382166117185760405162461bcd60e51b815260206004820181905260248201527f4552433732313a206d696e7420746f20746865207a65726f206164647265737360448201526064016107ba565b6000818152600360205260409020546001600160a01b03161561177d5760405162461bcd60e51b815260206004820152601c60248201527f4552433732313a20746f6b656e20616c7265616479206d696e7465640000000060448201526064016107ba565b61178b600083836001611cfb565b6000818152600360205260409020546001600160a01b0316156117f05760405162461bcd60e51b815260206004820152601c60248201527f4552433732313a20746f6b656e20616c7265616479206d696e7465640000000060448201526064016107ba565b6001600160a01b038216600081815260046020908152604080832080546001019055848352600390915280822080546001600160a01b0319168417905551839291907fddf252ad1be2c89b69c2b068fc378daa952ba7f163c4a11628f55a4df523b3ef908290a45050565b60008061186783610cbf565b9050806001600160a01b0316846001600160a01b031614806118ae57506001600160a01b0380821660009081526006602090815260408083209388168352929052205460ff165b806118d25750836001600160a01b03166118c784610877565b6001600160a01b0316145b949350505050565b826001600160a01b03166118ed82610cbf565b6001600160a01b0316146119135760405162461bcd60e51b81526004016107ba906129bb565b6001600160a01b0382166119755760405162461bcd60e51b8152602060048201526024808201527f4552433732313a207472616e7366657220746f20746865207a65726f206164646044820152637265737360e01b60648201526084016107ba565b6119828383836001611cfb565b826001600160a01b031661199582610cbf565b6001600160a01b0316146119bb5760405162461bcd60e51b81526004016107ba906129bb565b600081815260056020908152604080832080546001600160a01b03199081169091556001600160a01b0387811680865260048552838620805460001901905590871680865283862080546001019055868652600390945282852080549092168417909155905184937fddf252ad1be2c89b69c2b068fc378daa952ba7f163c4a11628f55a4df523b3ef91a4505050565b600080546001600160a01b038381166001600160a01b0319831681178455604051919092169283917f8be0079c531659141344cd1fd0a4f28419497f9722a3daafe3b4186f6b6457e09190a35050565b6040516bffffffffffffffffffffffff1930606090811b8216602084015283901b16603482015260009081906048016040516020818303038152906040528051906020012090506000611aee8286611e2f565b6011546001600160a01b0391821691161495945050505050565b816001600160a01b0316836001600160a01b031603611b695760405162461bcd60e51b815260206004820152601960248201527f4552433732313a20617070726f766520746f2063616c6c65720000000000000060448201526064016107ba565b6001600160a01b03838116600081815260066020908152604080832094871680845294825291829020805460ff191686151590811790915591519182527f17307eab39ab6107e8899845ad3d59bd9653f200f220920489ca2b5937696c31910160405180910390a3505050565b611be18484846118da565b611bed84848484611f71565b6111ba5760405162461bcd60e51b81526004016107ba90612a00565b6060600c80546107f4906126de565b60606000611c2583612072565b600101905060008167ffffffffffffffff811115611c4557611c45612452565b6040519080825280601f01601f191660200182016040528015611c6f576020820181803683370190505b5090508181016020015b600019016f181899199a1a9b1b9c1cb0b131b232b360811b600a86061a8153600a8504945084611c7957509392505050565b60006001600160e01b031982166380ac58cd60e01b1480611cdc57506001600160e01b03198216635b5e139f60e01b145b8061074b57506301ffc9a760e01b6001600160e01b031983161461074b565b6001811115611d6a5760405162461bcd60e51b815260206004820152603560248201527f455243373231456e756d657261626c653a20636f6e7365637574697665207472604482015274185b9cd9995c9cc81b9bdd081cdd5c1c1bdc9d1959605a1b60648201526084016107ba565b816001600160a01b038516611dc657611dc181600980546000838152600a60205260408120829055600182018355919091527f6e1540171b6c0c960b71a7020d9f60077f6af931a8bbf590da0223dacf75c7af0155565b611de9565b836001600160a01b0316856001600160a01b031614611de957611de9858261214a565b6001600160a01b038416611e0557611e00816121e7565b611e28565b846001600160a01b0316846001600160a01b031614611e2857611e288482612296565b5050505050565b6000806000808451604114611e4a576000935050505061074b565b50505060208201516040830151606084015160001a601b811015611e7657611e73601b82612a52565b90505b60006040518060400160405280601c81526020017f19457468657265756d205369676e6564204d6573736167653a0a333200000000815250905060008188604051602001611ec5929190612a6b565b6040516020818303038152906040528051906020012090508260ff16601b14158015611ef557508260ff16601c14155b15611f085760009550505050505061074b565b60408051600081526020810180835283905260ff851691810191909152606081018690526080810185905260019060a0016020604051602081039080840390855afa158015611f5b573d6000803e3d6000fd5b505050602060405103519550505050505061074b565b60006001600160a01b0384163b1561206757604051630a85bd0160e11b81526001600160a01b0385169063150b7a0290611fb5903390899088908890600401612a8d565b6020604051808303816000875af1925050508015611ff0575060408051601f3d908101601f19168201909252611fed91810190612aca565b60015b61204d573d80801561201e576040519150601f19603f3d011682016040523d82523d6000602084013e612023565b606091505b5080516000036120455760405162461bcd60e51b81526004016107ba90612a00565b805181602001fd5b6001600160e01b031916630a85bd0160e11b1490506118d2565b506001949350505050565b60008072184f03e93ff9f4daa797ed6e38ed64bf6a1f0160401b83106120b15772184f03e93ff9f4daa797ed6e38ed64bf6a1f0160401b830492506040015b6d04ee2d6d415b85acef810000000083106120dd576d04ee2d6d415b85acef8100000000830492506020015b662386f26fc1000083106120fb57662386f26fc10000830492506010015b6305f5e1008310612113576305f5e100830492506008015b612710831061212757612710830492506004015b60648310612139576064830492506002015b600a831061074b5760010192915050565b6000600161215784610d1f565b6121619190612945565b6000838152600860205260409020549091508082146121b4576001600160a01b03841660009081526007602090815260408083208584528252808320548484528184208190558352600890915290208190555b5060009182526008602090815260408084208490556001600160a01b039094168352600781528383209183525290812055565b6009546000906121f990600190612945565b6000838152600a602052604081205460098054939450909284908110612221576122216128e5565b906000526020600020015490508060098381548110612242576122426128e5565b6000918252602080832090910192909255828152600a9091526040808220849055858252812055600980548061227a5761227a612ae7565b6001900381819060005260206000200160009055905550505050565b60006122a183610d1f565b6001600160a01b039093166000908152600760209081526040808320868452825280832085905593825260089052919091209190915550565b6001600160e01b0319811681146114a657600080fd5b60006020828403121561230257600080fd5b8135611380816122da565b80356001600160a01b038116811461232457600080fd5b919050565b60006020828403121561233b57600080fd5b6113808261230d565b60005b8381101561235f578181015183820152602001612347565b50506000910152565b60008151808452612380816020860160208601612344565b601f01601f19169290920160200192915050565b6020815260006113806020830184612368565b6000602082840312156123b957600080fd5b5035919050565b600080604083850312156123d357600080fd5b6123dc8361230d565b946020939093013593505050565b600080604083850312156123fd57600080fd5b8235915061240d6020840161230d565b90509250929050565b60008060006060848603121561242b57600080fd5b6124348461230d565b92506124426020850161230d565b9150604084013590509250925092565b634e487b7160e01b600052604160045260246000fd5b600067ffffffffffffffff8084111561248357612483612452565b604051601f8501601f19908116603f011681019082821181831017156124ab576124ab612452565b816040528093508581528686860111156124c457600080fd5b858560208301376000602087830101525050509392505050565b6000602082840312156124f057600080fd5b813567ffffffffffffffff81111561250757600080fd5b8201601f8101841361251857600080fd5b6118d284823560208401612468565b6020808252825182820181905260009190848201906040850190845b8181101561255f57835183529284019291840191600101612543565b50909695505050505050565b600082601f83011261257c57600080fd5b61138083833560208501612468565b6000806040838503121561259e57600080fd5b82359150602083013567ffffffffffffffff8111156125bc57600080fd5b6125c88582860161256b565b9150509250929050565b80151581146114a657600080fd5b600080604083850312156125f357600080fd5b6125fc8361230d565b9150602083013561260c816125d2565b809150509250929050565b6000806000806080858703121561262d57600080fd5b6126368561230d565b93506126446020860161230d565b925060408501359150606085013567ffffffffffffffff81111561266757600080fd5b6126738782880161256b565b91505092959194509250565b60006020828403121561269157600080fd5b813567ffffffffffffffff8111156126a857600080fd5b6118d28482850161256b565b600080604083850312156126c757600080fd5b6126d08361230d565b915061240d6020840161230d565b600181811c908216806126f257607f821691505b60208210810361271257634e487b7160e01b600052602260045260246000fd5b50919050565b60208082526023908201527f5472616e73616374696f6e2065786365656473206d6178206d696e7420616d6f6040820152621d5b9d60ea1b606082015260800190565b634e487b7160e01b600052601160045260246000fd5b6000600182016127835761278361275b565b5060010190565b6020808252602d908201527f4552433732313a2063616c6c6572206973206e6f7420746f6b656e206f776e6560408201526c1c881bdc88185c1c1c9bdd9959609a1b606082015260800190565b601f8211156109ae57600081815260208120601f850160051c810160208610156127fe5750805b601f850160051c820191505b8181101561281d5782815560010161280a565b505050505050565b815167ffffffffffffffff81111561283f5761283f612452565b6128538161284d84546126de565b846127d7565b602080601f83116001811461288857600084156128705750858301515b600019600386901b1c1916600185901b17855561281d565b600085815260208120601f198616915b828110156128b757888601518255948401946001909101908401612898565b50858210156128d55787850151600019600388901b60f8161c191681555b5050505050600190811b01905550565b634e487b7160e01b600052603260045260246000fd5b6020808252602a908201527f45786365656473206d617820616d6f756e7420706572207472616e73616374696040820152691bdb88185b1b1bddd95960b21b606082015260800190565b8181038181111561074b5761074b61275b565b808202811582820484141761074b5761074b61275b565b60008351612981818460208801612344565b835190830190612995818360208801612344565b01949350505050565b6000602082840312156129b057600080fd5b8151611380816125d2565b60208082526025908201527f4552433732313a207472616e736665722066726f6d20696e636f72726563742060408201526437bbb732b960d91b606082015260800190565b60208082526032908201527f4552433732313a207472616e7366657220746f206e6f6e20455243373231526560408201527131b2b4bb32b91034b6b83632b6b2b73a32b960711b606082015260800190565b60ff818116838216019081111561074b5761074b61275b565b60008351612a7d818460208801612344565b9190910191825250602001919050565b6001600160a01b0385811682528416602082015260408101839052608060608201819052600090612ac090830184612368565b9695505050505050565b600060208284031215612adc57600080fd5b8151611380816122da565b634e487b7160e01b600052603160045260246000fdfea264697066735822122077122c1487a660c0b5a8744fe66aa1963056e32b4ff4154318b24460ef3d207d64736f6c63430008110033",
    "linkReferences": {}
  },
  "methodIdentifiers": {
    "_baseTokenURI()": "cfc86f7b",
    "adminMint(uint256,address)": "0dc28efe",
    "approve(address,uint256)": "095ea7b3",
    "balanceOf(address)": "70a08231",
    "claim(bytes)": "c63ff8dd",
    "cost()": "13faede6",
    "freezeBaseURI()": "e7bc8208",
    "getApproved(uint256)": "081812fc",
    "isApprovedForAll(address,address)": "e985e9c5",
    "isBlacklisted(address)": "fe575a87",
    "max()": "6ac5db19",
    "maxMintPerTx()": "de7fcb1d",
    "mint(uint256)": "a0712d68",
    "name()": "06fdde03",
    "owner()": "8da5cb5b",
    "ownerOf(uint256)": "6352211e",
    "publicSaleStarted()": "a2e91477",
    "renounceOwnership()": "715018a6",
    "safeTransferFrom(address,address,uint256)": "42842e0e",
    "safeTransferFrom(address,address,uint256,bytes)": "b88d4fde",
    "setApprovalForAll(address,bool)": "a22cb465",
    "setBaseTokenURI(string)": "30176e13",
    "setCost(uint256)": "44a0d68a",
    "setWLSigner(address)": "0399e3bc",
    "startPublicSale()": "0c1c972a",
    "startWLMint()": "7e5f3e14",
    "supportsInterface(bytes4)": "01ffc9a7",
    "symbol()": "95d89b41",
    "tokenByIndex(uint256)": "4f6ccce7",
    "tokenOfOwnerByIndex(address,uint256)": "2f745c59",
    "tokenURI(uint256)": "c87b56dd",
    "tokenURIFrozen()": "c29de630",
    "totalSupply()": "18160ddd",
    "transferFrom(address,address,uint256)": "23b872dd",
    "transferOwnership(address)": "f2fde38b",
    "walletOfOwner(address)": "438b6300",
    "whitelistMint(uint256,bytes)": "9e852f75",
    "withdraw(address,uint256)": "f3fef3a3",
    "wlMintStarted()": "927a5d21",
    "wlSigner()": "dce042fd"
  },
  "id": 2
}